:020000040800F2
:1000000000400020E1110008251200082512000818
:1000100000000000000000000000000000000000E0
:100020000000000000000000000000002512000891
:10003000000000000000000025120008310B00083D
:1000400025120008251200082512000825120008B4
:1000500025120008251200082512000825120008A4
:100060002512000825120008251200082512000894
:100070002512000825120008251200082512000884
:100080002512000825120008251200083115000865
:100090002512000825120008251200082512000864
:1000A000251200082512000825120008FD0E000880
:1000B0002512000825120008251200082512000844
:1000C0005FF808F180B500AF104B1A68FA23990069
:1000D000100002F095FE03009BB2013B9AB20C4B5C
:1000E0001A800A4B1B680B49180002F089FE0300B6
:1000F0009BB2013B9AB2084B1A80084B074AD2695F
:1001000010210A43DA61C046BD4680BD14000020BC
:100110000809002040420F000A0900200010024098
:1001200080B582B000AF0200BB1D1A80144A154B87
:100130001B881385124BBA1D1288013ADA62104BE4
:1001400000225A620E4A0E4B1B889BB201210B43C0
:100150009BB2138000E0C046094B1B8A9BB21A0079
:1001600001231340F7D0064A054B1B8A9BB201219D
:100170008B439BB21382C046BD4602B080BDC046D1
:10018000001000400809002080B582B000AF0200D6
:10019000BB1D1A80144A154B1B881385124BBA1DC0
:1001A0001288013ADA62104B00225A620E4A0E4B54
:1001B0001B889BB201210B439BB2138000E0C04619
:1001C000094B1B8A9BB21A0001231340F7D0064A41
:1001D000054B1B8A9BB201218B439BB21382C04605
:1001E000BD4602B080BDC046001000400A09002094
:1001F00080B500AF044B044A92698021C9020A43CA
:100200009A61C046BD4680BD0010024080B500AF77
:10021000084B084A5269802109030A435A61064B78
:10022000054A1268C02189000A431A60C046BD46CB
:1002300080BDC046001002400008004880B500AFF5
:100240000A4B0A4A9269802189000A439A61074B46
:10025000064A526B01210A435A63C046034B5B6B4B
:1002600002221340FAD0C046BD4680BD00100240B5
:1002700080B500AF0C4B9B680122134005D00A4BA0
:10028000094A926801218A439A60074B064A92689C
:10029000802109060A439A60C046034B9B68002BE5
:1002A000FBDBC046BD4680BD0024014080B500AFE9
:1002B000064B064A926801210A439A60034B1B6869
:1002C00001221340F4D0C046BD4680BD0024014049
:1002D00080B500AF034B8022D2019A62C046BD4672
:1002E00080BDC0460024014080B500AFFFF78EFFFF
:1002F000FFF7A4FFFFF7BCFFFFF7D8FFFFF7E8FF0A
:10030000C0461800BD4680BD80B584B000AF78609F
:100310000A00BB1C1A80FA23DB001800FFF700FF5D
:100320007B68524A93420CD1BB1C1A8880239B01E4
:100330009A4206D14E4BFB600A23FB1802221A8018
:1003400005E04A4BFB600A23FB184A4A1A800A233D
:10035000FB181A88FB681100180000F051F9BB1C4B
:100360001A887B681100180000F06AF9FA23DB0094
:100370001800FFF7D5FE7B683C4A934219D1BB1C9D
:100380001A8880239B019A4213D1BB1C1A887B6870
:100390001100180000F074F903009AB2364B1A806D
:1003A000354B1B881A00354B1100180002F0DCFE9B
:1003B00012E0BB1C1A887B681100180000F060F97D
:1003C00003009AB22E4B1A802B4B1B881A002B4B22
:1003D0001100180002F0C8FE0A23FB181A88FB68F7
:1003E0001100180000F01CF9FA23DB001800FFF7D9
:1003F00097FE7B681D4A934219D1BB1C1A88802343
:100400009B019A4213D1BB1C1A887B68110018000B
:1004100000F036F903009AB21A4B1A80194B1B8868
:100420001A00194B1100180002F09EFE12E0BB1CCE
:100430001A887B681100180000F022F903009AB2B4
:10044000124B1A80114B1B881A000F4B1100180019
:1004500002F08AFEBB1C1A887B681100180000F0AD
:10046000FFF8C046BD4604B080BDC0460008004845
:10047000001400480080FFFF0E090020F4B40008BB
:100480000C0900201209002004B500081009002002
:1004900080B588B000AFF86008007A6019000A23C0
:1004A000FB18021C1A800823FB180A1C1A80C8209B
:1004B000FFF736FE0823FB181A887B681100180026
:1004C00000F09EF80A23FB181A88FB681100180038
:1004D00000F0B6F8FA239B001800FFF721FE08236E
:1004E000FB181A887B681100180000F0C9F8030097
:1004F0007B610A23FB181A88FB681100180000F0C2
:10050000AFF80823FB181A887B681100180000F068
:1005100087F8FB68234A93421FD10A23FB181A88E5
:1005200080239B019A4218D11F4B1B881A007B69BC
:10053000D31A1D4A128811007A698A1A5343FB6143
:100540001A4B1B881A007B69D31A184A12881100AB
:100550007A698A1A5343BB6117E0154B1B881A004E
:100560007B69D31A124A128811007A698A1A534396
:10057000FB61104B1B881A007B69D31A0D4A128845
:1005800011007A698A1A5343BB61FB69BA69D80FB3
:10059000D1179A4248410300DBB21800BD4608B0AB
:1005A00080BDC04600080048120900200E09002046
:1005B000100900200C09002080B584B000AF7860DD
:1005C0000A00BB1C1A80BB1C1A880823FB181A607F
:1005D0000823FB1801225A710823FB1801221A7103
:1005E0000823FB1800229A710823FA187B6811006F
:1005F000180001F0DBF9C046BD4604B080BDC0461E
:1006000080B582B000AF78600A00BB1C1A80BB1CAA
:100610001A887B689A61C046BD4602B080BDC0465C
:1006200080B582B000AF78600A00BB1C1A807B687E
:10063000BA1C12881A85C046BD4602B080BDC046AD
:1006400080B582B000AF78600A00BB1C1A80BB1C6A
:100650001A887B689A61C046BD4602B080BDC0461C
:1006600080B582B000AF78600A00BB1C1A807B683E
:10067000BA1C12881A85C046BD4602B080BDC0466D
:1006800080B582B000AF78600A00BB1C1A80094BAD
:10069000084A926804210A439A60C046054B1B68C9
:1006A00004221340FAD0034B1B6C1800BD4602B065
:1006B00080BDC0460024014080B588B000AF78609E
:1006C0000023FB610023BB6100237B6100233B61AE
:1006D0000023FB608A4B5B680C221340FB61FB69C3
:1006E000042B0CD002D8002B05D03AE0082B0AD0FE
:1006F0000C2B32D035E07B68824A1A6035E07B688B
:10070000804A1A6031E07E4B5A68F0239B03134005
:10071000BB617B4B5A68C0235B0213407B61BB69A2
:100720009B0C0233BB617B69002B05D1BB69764A08
:100730005A437B681A6018E0714BDB6A0F22134042
:1007400001333B6139696F4802F05AFB03001A001C
:10075000BB695A437B681A6007E07B686B4A1A6082
:1007600003E07B68674A1A60C046654B5B68F0220D
:100770001340FB61FB691B09FB61654AFB69D318E8
:100780001B78DBB2FB607B681A68FB68DA407B6829
:100790005A605B4B5A68E023DB001340FB61FB6946
:1007A0001B0AFB615A4AFB69D3181B78DBB2FB605A
:1007B0007B685A68FB68DA407B689A60504B1A6B1A
:1007C00080235B00134003D17B68524ADA6010E05B
:1007D0004B4B5A688023DB01134005D17B689B6833
:1007E0005A087B68DA6004E07B689B689A087B683B
:1007F000DA60434B1B6B4022134003D17B68464AAF
:100800001A6103E07B68802212021A613C4B1B6B69
:100810001022134003D17B683A4A5A6103E07B6897
:100820001A687B685A61364B1B6B0322134004D154
:100830007B689A687B689A611EE0314B1B6B0322D0
:100840001340012B04D17B681A687B689A6113E01E
:100850002B4B1B6B03221340022B04D17B6880229D
:1008600012029A6108E0264B1B6B03221340032BF4
:1008700002D17B68234A9A61214B1A6BC0239B02E9
:10088000134004D17B689A687B68DA6127E01C4BCF
:100890001A6BC0239B021A4080235B029A4204D148
:1008A0007B681A687B68DA6119E0154B1A6BC02304
:1008B0009B021A4080239B029A4204D17B688022CB
:1008C0001202DA610BE00E4B1A6BC0239B021A4036
:1008D000C0239B029A4202D17B680A4ADA61084B24
:1008E0001B6B8022134003D17B68084A1A6203E025
:1008F0007B681A687B681A62C046BD4608B080BD36
:100900000010024000127A0000093D00006CDC0279
:1009100000000020809FD5001280000080B582B0CA
:1009200000AF78600A00FB1C1A70FB1C1B78002BC0
:1009300006D0094B084A51697A680A435A6106E0B1
:10094000054B054A52697968C9430A405A61C04655
:10095000BD4602B080BDC0460010024080B582B0E6
:1009600000AF78600A00FB1C1A70FB1C1B78002B80
:1009700006D0094B084A91697A680A439A6106E0F1
:10098000054B054A92697968C9430A409A61C04695
:10099000BD4602B080BDC0460010024080B582B0A6
:1009A00000AF78600A00FB1C1A70FB1C1B78002B40
:1009B00006D0094B084AD1697A680A43DA6106E031
:1009C000054B054AD2697968C9430A40DA61C046D5
:1009D000BD4602B080BDC0460010024080B582B066
:1009E00000AF0200FB1D1A70064BFA1D12781100B1
:1009F0001F220A40012191400A001A60C046BD46EC
:100A000002B080BD00E100E0B0B582B000AF0200EE
:100A10003960FB1D1A70FB1D1B787F2B32D92F4CC0
:100A2000FB1D1B781A000F231340083B99082B4A23
:100A3000FB1D1B7818000F230340083B9B0806335F
:100A40009B00D31804331B68FA1D12781000032290
:100A50000240D200FF2090400200D2431A403B687F
:100A60009B01FF201840FB1D1B781D0003232B401A
:100A7000DB00984003001A438B1D9B00E3180433EE
:100A80001A6027E0164CFB1D1B785BB29B081449CB
:100A9000FA1D127852B29208C03292005258F91DD3
:100AA0000978080003210140C900FF2088400100A7
:100AB000C94311403A689201FF201040FA1D127894
:100AC000150003222A40D200904002000A43C0339E
:100AD0009B001A51C046BD4602B0B0BD00ED00E01B
:100AE00000E100E080B582B000AF78607B680E4A1C
:100AF000934201D9012312E00C4B7A681202120AC8
:100B0000013A5A6001235B4203211800FFF77CFF82
:100B1000064B00229A60054B07221A60002318003A
:100B2000BD4602B080BDC046FFFFFF0010E000E000
:100B300080B500AF034B1B685A1C024B1A60C046BD
:100B4000BD4680BDCC08002080B500AF80239B024D
:100B500001211800FFF7E2FE00F072FD0C4B0322AA
:100B60001A600B4B01221A71094B00229A71084B33
:100B70000022DA71064B02225A71054A9023DB05E6
:100B80001100180000F012FFC046BD4680BDC046EF
:100B9000180A002080B584B000AF7860074B1B684E
:100BA000FB60C046054B1A68FB68D21A7B689A4204
:100BB000F8D3C046BD4604B080BDC046CC08002076
:100BC00090B58DB000AF78600023FB620023BB625C
:100BD0000023FB612D23BB612D235B427B6103233B
:100BE0003B617B68012B04D12623FB1801221A806C
:100BF00006E07B68022B03D12623FB1802221A8011
:100C00002623FB1819889023DB051222180000F018
:100C100095FD03001A000F23FB181A70484B1A6841
:100C2000FA239900100002F0EBF803001800FFF718
:100C300059FF3B69002B00DC7EE0FB693B623B6AAD
:100C40001AB22623FB1819889023DB05180000F040
:100C500057FE00F0A1FEFA23DB001800FFF79AFF11
:100C600060E03A6ABB69D3183B623B6A1AB226233A
:100C7000FB1819889023DB05180000F041FE00F0F6
:100C80008BFEFA23DB001800FFF784FF3A6A7B69CA
:100C9000D3183B623B6A1AB22623FB1819889023AB
:100CA000DB05180000F02CFE00F076FEFA23DB00D6
:100CB0001800FFF76FFF7B68012B0CD180231A020D
:100CC000204C8023D9011F4813002200FFF7E0FBCE
:100CD0000300BB6208E01C4A8023990119480223E3
:100CE000FFF7D6FB0300BB62BB6A002B14D03A6A45
:100CF0007B69D3183B623B6A1AB22623FB1819881A
:100D00009023DB05180000F0FBFD00F045FEFA2300
:100D1000DB001800FFF73EFFFB6A0133FB62FB6A52
:100D2000052B08D0BB6A002B9BD03B69013B3B6184
:100D30000023BB6200E0C0461800BD460DB090BD68
:100D400014000020000800480014004880B58AB054
:100D500002AF0823FB18180001F092F88023DB0192
:100D600001211800FFF7FAFD802399009023D80590
:100D700003230193012300930023012201F04AFB86
:100D800080239B0201211800FFF7C8FD8023D900B2
:100D90009023D8050323019301230093002301220C
:100DA00001F038FB80239B0201211800FFF7B6FDFC
:100DB0000823FB189622D2011A600823FB18002290
:100DC0005A600823FB1800229A600823FB180022AF
:100DD000DA600823FB1800225A610823FB180C2252
:100DE0001A610823FB18124A1900100000F08EFF48
:100DF0001B20FFF7F3FD3B1D1B221A703B1D012238
:100E00005A703B1D01229A703B1D180001F0F8FB3F
:100E10000849074B0122180001F08CF8044B01210E
:100E2000180001F049F8C046BD4608B080BDC04674
:100E3000003801400501050080B58AB000AF1823D5
:100E4000FA182B4B1000190005231A0002F04EF976
:100E500000233B6200237B62012001F067FD3B1D04
:100E6000244A03CA03C312881A803B1D180001F0EC
:100E700079FCFA239B001800FFF752F91EE000F0FE
:100E800005FB03003B623B6A002B17D03B6AD9B2DB
:100E90001823FA187B6AD3180A1C1A707B6A01336C
:100EA0007B62012001F042FD1823FB18180001F0BD
:100EB00059FCFA239B001800FFF732F97B6A032BD9
:100EC000DDDD1823FA180C4B1100180002F04CF964
:100ED000FA239B001800FFF723F9012001F026FDFB
:100EE000C02001F023FDC0461800BD460AB080BDF9
:100EF00028B5000814B5000820B5000880B582B0F8
:100F000000AF344B1A68344B1B689A4255DD314BA5
:100F100000221A60304B00221A604EE02F4A304BFC
:100F20001100180001F0C0F82D4B180000F0F4FF7C
:100F300003001A00FB1D1A70274B1B68002B06D1FB
:100F4000FB1D1B78403B1A00234B1A600AE0214B23
:100F50001B68244AF91D0978D1541E4B1B685A1C82
:100F60001C4B1A601B4B1A681B4B1B689A4224D1FE
:100F70001C4B180002F042F91B4A1A4B11001800D2
:100F800002F068F9031E01D1FFF756FF174A154B0F
:100F90001100180002F05EF9031E09D102233B6024
:100FA0003B681800FFF70CFE114B180002F026F901
:100FB000084B1B685A1C074B1A60084A084B110063
:100FC000180001F019F8031EA8D1C046BD4602B0B2
:100FD00080BDC046240A0020200A0020050105002B
:100FE000003801401809002030B5000838B5000865
:100FF0003CB5000890B589B000AF674B00221A607D
:10100000664B00221A60664B00221A80654B002254
:101010001A80654B00221A80644B00221A80644BB0
:101020001A68FA239900100001F0EAFE03009AB250
:10103000604B1A805E4B1B685F49180001F0E0FEB0
:1010400003009AB25D4B1A8001F05AF9FFF77CFD5C
:1010500080231B0301211800FFF760FC8023DB03C2
:1010600001211800FFF75AFC80239B020121180080
:10107000FFF754FC01F024FE01F036FEFFF722F8E2
:10108000FFF7B6F8FFF730F9FFF760FE0023FB61CA
:1010900080239B014A4A19001000FFF78DFA802334
:1010A000DB01474A19001000FFF786FA454B022181
:1010B0001800FFF781FA80231B02414A1900100033
:1010C000FFF77AFA80239B013D4A19001000FFF7D1
:1010D000B7FA8023DB013A4A19001000FFF7B0FA93
:1010E00080239B01364A19001000FFF70DF92C4BA5
:1010F0001B8819002B4B1B881A00334B180002F079
:1011000033F88023DB012E4A19001000FFF7FCF8AA
:10111000254B1B881900254B1B881A002B4B1800E8
:1011200002F022F82A4B180002F01EF8012001F00C
:10113000FDFB802001F0FAFB3B1D264A13CA13C3B6
:101140001188198092789A70FA239B001800FEF794
:10115000E7FF00F0B5F80023BB611F4B180002F059
:101160004DF8FA239B001800FEF7DAFF0220FFF784
:1011700027FD00F08BF90300BB61BB69002BF5D0A4
:10118000BA69164B1100180001F0EEFFFA239B001C
:101190001800FEF7C5FFE9E7240A0020200A002016
:1011A0000E090020120900200C090020100900205F
:1011B000140000200809002040420F000A09002006
:1011C000000800480014004848B500086CB5000845
:1011D00094B50008ACB50008BCB50008C4B500085B
:1011E000002103E00A4B5B584350043109480A4B85
:1011F00042189A42F6D3094A02E0002313600432EF
:10120000074B9A42F9D301F07BF8FFF7F3FE7047E2
:1012100004BB000800000020CC080020CC080020FF
:10122000C00A0020FEE7000080B584B000AF7860FF
:101230000A00BB1C1A80BB1C1A880823FB181A6002
:101240000823FB1801225A710823FB1800221A7187
:101250000823FB1800229A710823FB180222DA7176
:101260000823FA187B681100180000F09FFBC046A5
:10127000BD4604B080BDC04680B584B000AF786084
:101280000A00BB1C1A80BB1C1A880823FB181A60B2
:101290000823FB1801225A710823FB1801221A7136
:1012A0000823FB1800229A710823FA187B681100A2
:1012B000180000F07BFBC046BD4604B080BDC046B0
:1012C00080B582B000AFF0235B0301211800FFF767
:1012D00025FB80239B001C4A19001000FFF7CCFF60
:1012E00080235B00184A19001000FFF7C5FF164B5A
:1012F00080211800FFF7C0FF134B40211800FFF7B3
:10130000BBFF80231A029023DB0511001800FFF7B2
:101310008BFF80231B010C4A19001000FFF784FF8C
:101320008023DB00084A19001000FFF77DFF8023AF
:101330005A009023DB0511001800FFF775FFC04627
:10134000BD4602B080BDC0460008004880B582B0EE
:1013500000AF78600A00BB1C1A80BB1C1A887B682F
:101360009A61C046BD4602B080BDC04680B582B01D
:1013700000AF78600A00BB1C1A807B68BA1C128818
:101380001A85C046BD4602B080BDC04680B500AFDC
:1013900080235A009023DB051100180000F09EFB0B
:1013A000031E01D0012322E08023DB00114A190033
:1013B000100000F093FB031E01D0022317E08023EE
:1013C0001B010C4A1900100000F088FB031E01D01D
:1013D00003230CE080231A029023DB051100180080
:1013E00000F07CFB031E01D0042300E00023180062
:1013F000BD4680BD0008004880B582B000AF78606F
:10140000214B40211800FFF7B1FF1F4B802118002E
:10141000FFF7ACFF80235B001B4A19001000FFF7A9
:10142000A5FF80239B00184A19001000FFF79EFFBC
:101430007B68022B0ED002DC012B05D020E0032BB1
:101440000ED0042B14D01BE00F4B40211800FFF7E7
:101450007DFF15E00C4B80211800FFF777FF0FE0B0
:1014600080235B00084A19001000FFF76FFF07E0B8
:1014700080239B00044A19001000FFF767FFC04655
:10148000C046BD4602B080BD0008004880B588B0A7
:1014900000AF3A1D164B1000190010231A0001F07E
:1014A00025FE0023BB6101237B610123FB6116E064
:1014B000FB691800FFF7A0FFFFF768FF0300BB619F
:1014C000BB69002B08D0FB69013B9A00BB69D318AC
:1014D000013B3A1DD35C06E0FB690133FB61FB690C
:1014E000042BE5DD00231800BD4608B080BDC046D2
:1014F000D4B5000880B582B000AF78600A00FB1C4C
:101500001A70FB1C1B78002B06D07B681B6801221D
:101510001A437B681A6006E07B681B6801229343CC
:101520001A007B681A60C046BD4602B080BDC04646
:1015300080B582B000AF3F4B0121180000F08EFE55
:10154000031E00D171E03B4B0121180000F0C6FEE4
:10155000394B1B681C2B35D800237B602EE03749A4
:101560007A6813005B009B189B00CB1808331B881C
:101570001A00314B1B689A421DD830497A68130013
:101580005B009B189B00CB1804331B78002B12D0F8
:101590002A497A6813005B009B189B00585827491A
:1015A0007A6813005B009B189B00CB1806331B88DE
:1015B000190000F0C7FA7B6801337B607B68072B5A
:1015C000CDDD2DE01C4B1B68BE2B29D11A4B002210
:1015D0001A6000237B6020E018497A6813005B00E2
:1015E0009B189B00CB1804331B78002B12D0134997
:1015F0007A6813005B009B189B0058580F497A6863
:1016000013005B009B189B00CB1806331B88190046
:1016100000F088FA7B6801337B607B68072BDBDD99
:10162000054B1B685A1C044B1A60C046BD4602B0ED
:1016300080BDC0460020004010000020340A002079
:1016400080B582B000AF80235B0001211800FFF756
:10165000A5F9314B1800FFF72FF82F4B9B682F4946
:10166000180001F0CDFB03001A002D4B5343142149
:10167000180001F0C5FB03001A002A4B1A602A4B20
:1016800000221A81284B00225A80274B00221A8000
:10169000254B00229A72234B1A68234B5A60224B27
:1016A000224A1900100000F017FD204B01211800FC
:1016B00000F014FE1D4B01220121180000F0A4FDD2
:1016C0001B4B13221A701A4B01229A70184B0122DD
:1016D0005A70174B180000F093FF00237B600CE05A
:1016E00014497A6813005B009B189B00CB180433E5
:1016F00000221A707B6801337B607B68072BEFD96F
:101700000D4B00221A60094B0121180000F05CFD0E
:10171000C046BD4602B080BD980A002040420F007E
:1017200034080000940A0020280A0020002000400D
:1017300014090020340A00201000002080B584B075
:1017400000AF786008001100BB1C021C1A803B002F
:101750000A1C1A800B23FB1800221A700A23FB189C
:1017600001221A700023FB602CE04149FA68130043
:101770005B009B189B005A587B689A4210D13C49E9
:10178000FA6813005B009B189B00CB1806331B887C
:10179000BA1C12889A4203D10B23FB1801221A703B
:1017A0003349FA6813005B009B189B00CB18043385
:1017B0001B78002B03D10A23FB1800221A70FB6848
:1017C0000133FB60FB68072BCFD90B23FB181B7879
:1017D000002B02D001235B4246E00A23FB181B7852
:1017E000002B02D002235B423EE00023FB6037E087
:1017F0001F49FA6813005B009B189B00CB18043349
:101800001B78002B29D11A49FA6813005B009B183A
:101810009B00CB180633BA1C12881A803B0018882C
:101820001349FA6813005B009B189B00CB18083320
:10183000021C1A800E49FA6813005B009B189B007B
:10184000CB18043301221A700949FA6813005B00AF
:101850009B189B007A685A5005E0FB680133FB60D7
:10186000FB68072BC4D900231800BD4604B080BD17
:10187000340A002080B584B000AF78600800110001
:10188000BB1C021C1A803B000A1C1A800023FB6050
:1018900026E01A49FA6813005B009B189B005A580F
:1018A0007B689A4219D11549FA6813005B009B18AE
:1018B0009B00CB1806331B88BA1C12889A420CD1A5
:1018C0003B0018880D49FA6813005B009B189B00C9
:1018D000CB180833021C1A8005E0FB680133FB605B
:1018E000FB68072BD5DDFB68082B02D103235B4285
:1018F00000E000231800BD4604B080BD340A00207B
:1019000080B584B000AF786008001100BB1C021CD9
:101910001A803B000A1C1A803B0000229B5E5A334F
:1019200004DB3B0000229B5E5A2B02DD04235B425A
:101930001FE03B0000229B5E5A331A001300DB00BD
:101940009B1A9B0019003B0000229B5E5A22D31A6F
:10195000DB00CB18B421180001F0DCFA0300FB60B7
:10196000FB681AB2BB1C19887B681800FFF782FF5E
:1019700003001800BD4604B080BDC04680B500AF6E
:10198000044B1A681C21002391425B41DBB2180012
:10199000BD4680BD1000002080B500AFC046FFF7F7
:1019A000EDFF031EFBD1C046BD4680BD80B586B0AD
:1019B00000AF7860396000237B6100233B61002326
:1019C000FB6000237B6181E001227B699A40130068
:1019D0003B613B681B683A691340FB60FA683B69EE
:1019E0009A4270D13B681B79012B03D03B681B796D
:1019F000022B38D17B689B687A69520003219140A1
:101A00000A00D2431A407B689A607B689A683B68F8
:101A10005B7919007B695B0099400B001A437B6876
:101A20009A607B689B889BB27A691204120C012130
:101A300091400A0092B2D24392B213409AB27B68AC
:101A40009A807B689B889BB21AB23B689B7919008D
:101A50007B691B041B0C99400B001BB213431BB288
:101A60009AB27B689A807B681B687A69520003216E
:101A700091400A00D2431A407B681A607B681A685A
:101A80003B681B7919007B695B0099400B001A4386
:101A90007B681A607B68DB687A691204120C52005A
:101AA000032191400A00D2431A407B68DA607B68C8
:101AB000DA683B68DB7919007B695B0099400B00B1
:101AC0001A437B68DA607B6901337B617B690F2B8A
:101AD00000D879E7C046BD4606B080BD80B584B069
:101AE00000AF78600A00BB1C1A800F23FB1800228D
:101AF0001A707B681B8A9BB2BA1C128813409BB277
:101B0000002B04D00F23FB1801221A7003E00F23CF
:101B1000FB1800221A700F23FB181B781800BD4613
:101B200004B080BD80B582B000AF78600A00BB1CF5
:101B30001A80BB1C1A887B689A61C046BD4602B0F9
:101B400080BDC04680B582B000AF78600A00BB1C83
:101B50001A807B68BA1C12881A85C046BD4602B03E
:101B600080BDC04680B584B000AF78600800110029
:101B7000BB1C021C1A807B1C0A1C1A700023FB6011
:101B80000023BB607B1C1A78BB1C1B8807210B4001
:101B90009B009A401300FB60BB1C1B88DB089BB2B8
:101BA0001800BB1C1B88DB089BB21A007B6808323C
:101BB0009200D358BA1C128807210A4092000F21C4
:101BC00091400A00D2431A4011007B68020008329B
:101BD0009200D150BB1C1B88DB089BB21A007B68AB
:101BE00008329200D258FB681343BB60BB1C1B88B1
:101BF000DB089BB21A007B6808329200B968D150AA
:101C0000C046BD4604B080BD80B584B000AF7860EA
:101C10000A4B1B68002B02D1084B094A1A60074B7C
:101C20001B68FB60054B1A687B68D218034B1A606F
:101C3000FB681800BD4604B080BDC046D008002037
:101C4000C00A002080B582B000AF786001235B42FB
:101C50001800BD4602B080BD80B582B000AF78608C
:101C600039603B68802292015A6000231800BD460B
:101C700002B080BD80B582B000AF7860012318004B
:101C8000BD4602B080BDC04680B584B000AFF860EC
:101C9000B9607A6000231800BD4604B080BDC0461C
:101CA00080B584B000AFF860B9607A607B681800D6
:101CB000BD4604B080BDC04680B586B000AFF860B8
:101CC000B9607A6000237B6114E0C0460E4B80212E
:101CD000180000F073F9031EF8D0BB685A1CBA60F4
:101CE0001B789BB2084A1900100000F003F97B69C9
:101CF00001337B617A697B689A42E6DB7B68180076
:101D0000BD4606B080BDC0460038014080B58EB0EB
:101D100000AF7860396000237B6300233B630023BE
:101D2000FB627B681B68012293431A007B681A6080
:101D30007B685B68FB62FB6A4B4A1340FB623B6853
:101D40009B68FA6A1343FB627B68FA6A5A607B6895
:101D50001B68FB62FB6A454A1340FB623B685A689A
:101D60003B68DB681A433B681B691343FA6A1343F9
:101D7000FB627B68FA6A1A607B689B68FB62FB6A9D
:101D80003B4A1340FB623B685B69FA6A1343FB62A0
:101D90007B68FA6A9A600823FB181800FEF78CFC2F
:101DA0007B68344A934204D10823FB189B693B6348
:101DB0000CE07B68304A934204D10823FB18DB69AE
:101DC0003B6303E00823FB189B683B637B681A684E
:101DD00080231B02134014D03B6B5A003B681B68E6
:101DE0001900100001F00CF803007B633B6B5A00F4
:101DF0003B681B681900100001F088F80B00FB62BB
:101E000010E03B681B681900386B00F0F9FF030015
:101E10007B633B681A683B6B1100180001F076F891
:101E20000B00FB623B681B685A08FB6A9A4202D8A7
:101E30007B6B01337B637B681A6880231B02134032
:101E40000AD07B6B5B0807221340FB627B6B0B4A5B
:101E50001A40FB6A13437B637B6B9AB27B689A815F
:101E6000C046BD460EB080BDFFCFFFFFF3E9FFFFC8
:101E7000FFFCFFFF0038014000440040F0FF00007D
:101E800080B582B000AF78607B68962292011A60BC
:101E90007B6800225A607B6800229A607B6800227F
:101EA000DA607B680C221A617B6800225A61C046A6
:101EB000BD4602B080BDC04680B582B000AF78603C
:101EC0000A00FB1C1A70FB1C1B78002B06D07B68D9
:101ED0001B6801221A437B681A6006E07B681B6856
:101EE000012293431A007B681A60C046BD4602B0C7
:101EF00080BDC04680B582B000AF78600A00BB1CD0
:101F00001A80BB1C1B88DB05DB0D9AB27B681A8527
:101F1000C046BD4602B080BD80B582B000AF7860DB
:101F20007B689B8C9BB2DB05DB0D9BB21800BD462A
:101F300002B080BD80B588B000AFF860B960FB1D0D
:101F40001A700023BB6100237B6100233B610023E7
:101F5000FB61FB68FB61BB681B121A00FF23134087
:101F6000BB61BB68FF2213407B6101227B699A4001
:101F700013003B61BB69022B03D1FB690433FB6196
:101F800005E0BB69032B02D1FB690833FB61FB1D34
:101F90001B78002B06D0FB69FA6911683A690A437D
:101FA0001A6006E0FB69FA6912683969C9430A4098
:101FB0001A60C046BD4608B080BDC04680B584B03A
:101FC00000AF786039600F23FB1800221A707B681D
:101FD000DB693A68134004D00F23FB1801221A7002
:101FE00003E00F23FB1800221A700F23FB181B7845
:101FF0001800BD4604B080BD80B586B000AF7860E3
:1020000039600023FB6000237B610023BB60132346
:10201000FB1800221A703B681B121A00FF231340A2
:10202000BB603B68FF2213407B6101227B699A40C1
:1020300013007B61BB68012B05D17B681A687B6943
:1020400013407B610DE0BB68022B05D17B685A68A9
:102050007B6913407B6104E07B689A687B6913406D
:102060007B613B681B0CFB600122FB689A401300FC
:10207000FB607B68DA69FB681340FB607B69002BBF
:1020800007D0FB68002B04D01323FB1801221A7021
:1020900003E01323FB1800221A701323FB181B788C
:1020A0001800BD4606B080BD80B584B000AF786032
:1020B00039600023FB600023BB603B681B0CFB60A6
:1020C0000122FB689A401300BB607B68BA681A6201
:1020D000C046BD4604B080BD80B584B000AF786016
:1020E00039600E23FB1800221A800E23FB187A6831
:1020F00012881A807B682D4A934208D07A68802320
:10210000DB059A4203D07B68294A934210D10E2303
:10211000FB180E22BA18128870218A431A803B6875
:1021200059880E23FB180E22BA1812880A431A8007
:102130007B68204A934210D00E23FB180E22BA1857
:1021400012881D490A401A803B6819890E23FB1822
:102150000E22BA1812880A431A807B680E22BA1817
:1021600012881A803B685A687B68DA623B681A8872
:102170007B681A857B680D4A93420BD07B680F4AB7
:10218000934207D07B680E4A934203D07B680D4A86
:10219000934204D13B689B7A9AB27B681A867B682B
:1021A00001229A82C046BD4604B080BD002C014089
:1021B0000004004000100040FFFCFFFF0040014011
:1021C000004401400048014080B582B000AF786013
:1021D0000A00FB1C1A70FB1C1B78002B08D07B68C4
:1021E0001B889BB2012213439AB27B681A8007E0D6
:1021F0007B681B889BB2012293439AB27B681A804A
:10220000C046BD4602B080BD80B582B000AF7860E8
:1022100008001100BB1C021C1A807B1C0A1C1A70CF
:102220007B1C1B78002B09D07B689B899AB2BB1C56
:102230001B8813439AB27B689A810AE07B689B896A
:102240009BB2BA1C1288D24392B213409AB27B68F6
:102250009A81C046BD4602B080BDC04680B584B0FC
:1022600000AF78600A00BB1C1A800F23FB18002205
:102270001A700C23FB1800221A800A23FB18002274
:102280001A807B681B8A9AB20C23FB18B91C098838
:102290000A401A807B689B899AB20A23FB18B91CF2
:1022A00009880A401A800C23FB181B88002B09D0D0
:1022B0000A23FB181B88002B04D00F23FB180122D4
:1022C0001A7003E00F23FB1800221A700F23FB186B
:1022D0001B781800BD4604B080BDC04680B582B0F2
:1022E00000AF78600A00BB1C1A80BB1C1B88DB4354
:1022F0009AB27B681A82C046BD4602B080BDC04615
:1023000080B500AF1B4B1B4A126801210A431A60BB
:10231000184B184A526818490A405A60154B154A1A
:10232000126816490A401A60124B124A1268144980
:102330000A401A600F4B0F4A526812490A405A600D
:102340000C4B0C4AD26A0F218A43DA62094B094AC4
:10235000126B0D490A401A63064B064A526B012163
:102360008A435A63034B00229A6000F00FF8C0467C
:10237000BD4680BD001002400CB8FFF8FFFFF6FE1E
:10238000FFFFFBFFFFFFC0FFACFEFFFF80B500AF0C
:102390001D4B11221A601D4B1C4A52685A601B4B80
:1023A0001A4A52685A60194B184A526818490A402A
:1023B0005A60164B154A5268A02189030A435A6095
:1023C000124B124A1268802149040A431A60C0461F
:1023D0000E4B1A6880239B041340F9D00B4B0B4A19
:1023E000526803218A435A60084B084A5268022106
:1023F0000A435A60C046054B5B680C221340082B09
:10240000F9D1C046BD4680BD002002400010024008
:10241000FF7FC0FF80B588B000AFF860B9601900D9
:10242000FB1D1A70BB1D0A1C1A700023FB61FA68A1
:102430009023DB059A4206D180239B0201211800DC
:10244000FEF76CFA35E0FB68684A934206D18023B8
:10245000DB0201211800FEF761FA2AE0FB68644AFA
:10246000934206D180231B0301211800FEF756FA80
:102470001FE0FB685F4A934206D180235B03012182
:102480001800FEF74BFA14E0FB685B4A934206D152
:1024900080239B0301211800FEF740FA09E0FB6846
:1024A000564A934205D18023DB0301211800FEF731
:1024B00035FABB68802B00D151E010D8082B42D0F0
:1024C00006D8022B39D0042B3AD0012B32D061E050
:1024D000202B3ED0402B3FD0102B37D05AE080220B
:1024E0001201934247D08022120193420CD88022DD
:1024F0009200934239D08022D200934238D0802279
:10250000520093422ED045E080229201934238D06F
:1025100080229201934204D88022520193422DD00E
:1025200038E08022D20193422ED0802212029342C0
:102530002DD02FE00023FB612CE00123FB6129E07B
:102540000223FB6126E00323FB6123E00423FB61FC
:1025500020E00523FB611DE00623FB611AE0072351
:10256000FB6117E00823FB6114E00923FB6111E024
:102570000A23FB610EE00B23FB610BE00C23FB61E4
:1025800008E00D23FB6105E00E23FB6102E00F2351
:10259000FB61C046FB6999B2FB1D1A78FB68180005
:1025A000FFF7E0FA1423FB18BA681A601423FB182B
:1025B00002221A711423FB18BA1D12789A7114237F
:1025C000FB182822BA181278DA711423FB182C226F
:1025D000BA1812785A711423FA18FB6811001800FF
:1025E000FFF7E4F9C046BD4608B080BD00040048CE
:1025F00000080048000C0048001000480014004883
:1026000080B584B000AF78600023FB607B689B7866
:10261000002B39D0244A7B681B789B08DBB2C0337F
:102620009B009B58FB607B681B781A0003231340B8
:10263000DB00FF229A401300DA43FB681340FB6083
:102640007B685B789B01FF221A407B681B7819002E
:1026500003230B40DB009A401300FA681343FB602E
:1026600011497B681B789B08DBB2C0339B00FA687A
:102670005A500D4B7A68127811001F220A4001212E
:1026800091400A001A600AE007497B681B781A002B
:102690001F23134001229A40130080228B50C04612
:1026A000BD4604B080BDC04600E100E080B582B008
:1026B00000AF8023DB0201211800FEF72FF93B0059
:1026C000C0221A603B0002221A713B0003225A7199
:1026D0003B000122DA713B0001229A713B00094A5A
:1026E00019001000FFF762F9064B064A126A12023F
:1026F000120A882149050A431A62C046BD4602B043
:1027000080BDC0460004004880B500AF114B114A9F
:10271000D269802189030A43DA610F4B0E4A12689D
:1027200001218A431A600C4B0C4A1A610A4B0A4A6F
:10273000126801210A431A60074B074A5268084988
:102740000A435A60044B01211800FEF7D3FEC0462D
:10275000BD4680BD0010024000540040FFD3E000A1
:102760004E00010280B584B000AF78600F23FB18E3
:1027700001221A700BE00F23FB181B78180000F0E1
:10278000A9F90520FDF7CCFC7B6801337B600F23A2
:10279000FB187A6812781A700F23FB181B78002B2D
:1027A000E9D1C046BD4604B080BDC04680B500AF8B
:1027B000002000F0BBF8FA235B001800FDF7B0FC26
:1027C00000F050F8382000F0B1F8082000F0AEF822
:1027D000022000F0ABF8082000F0A8F8012000F07B
:1027E000A5F80720FDF79CFC062000F09FF80C20C0
:1027F00000F09CF8C046BD4680BDC04680B582B0A2
:1028000000AF0200FB1D1A70C046144B9A6980236A
:102810001B021340F9D1C046114B9B6901221340A2
:10282000FAD00F4BFA1D12789A620D4B0C4A52687F
:10283000802189010A435A60C046094B9B690122E5
:102840001340FAD0C046054B9A6980231B021340FF
:10285000F9D1C046BD4602B080BDC0460058004018
:102860000054004080B500AF0720FFF7C7FF642089
:10287000FDF78AFC2C4B1B78DB005BB2082213406F
:102880005BB2032213435BB2DBB21800FFF7B6FF63
:102890000520FDF745FC0720FFF7B0FF6420FDF79A
:1028A00073FC214B1B78DB005BB2082213405BB248
:1028B000032213435BB2DBB21800FFF79FFF6420D3
:1028C000FDF762FC0720FFF799FF6420FDF75CFC31
:1028D000154B1B78DB005BB2082213405BB203226E
:1028E00013435BB2DBB21800FFF788FF6420FDF7EB
:1028F0004BFC0620FFF782FF6420FDF745FC0A4BE6
:102900001B78DB005BB2082213405BB20222134348
:102910005BB2DBB21800FFF771FF6420FDF734FCF7
:10292000C046BD4680BDC0462800002080B584B0AA
:1029300000AF0200FB1D1A700F23FB1800221A7053
:10294000634B1B78DB005BB2082213405AB20F23A3
:10295000FB181B785BB213435AB20F23FB181A7093
:10296000FB1D1B785BB2102213405AB20F23FB18D9
:102970001B785BB213435AB20F23FB181A70FB1D6E
:102980001B785BB2202213405AB20F23FB181B782E
:102990005BB213435AB20F23FB181A70FB1D1B784E
:1029A0005BB2402213405AB20F23FB181B785BB274
:1029B00013435AB20F23FB181A70FB1D1B78DB0957
:1029C000DBB2DB015AB20F23FB181B785BB2134357
:1029D0005AB20F23FB181A700020FFF70FFF0F23C6
:1029E000FB181B7804221343DBB21800FFF706FF25
:1029F0000F23FB181B781800FFF700FF0F23FB18AD
:102A000000221A70324B1B78DB005BB208221340A5
:102A10005AB20F23FB181B785BB213435AB20F2331
:102A2000FB181A70FB1D1B781B015BB210221340B0
:102A30005AB20F23FB181B785BB213435AB20F2311
:102A4000FB181A70FB1D1B785B105B015BB2202228
:102A500013405AB20F23FB181B785BB213435AB2D0
:102A60000F23FB181A70FB1D1B789B109B015BB298
:102A7000402213405AB20F23FB181B785BB213435A
:102A80005AB20F23FB181A70FB1D1B78DB10DB01F9
:102A90005AB20F23FB181B785BB213435AB20F23B1
:102AA000FB181A700020FFF7A9FE0F23FB181B78F4
:102AB00004221343DBB21800FFF7A0FE0F23FB181C
:102AC0001B781800FFF79AFEC046BD4604B080BDD3
:102AD0002800002080B584B000AF0200FB1D1A70F2
:102AE0000F23FB1800221A700F23FB180F22BA18AD
:102AF000127801210A431A70704B1B78DB005BB21D
:102B0000082213405AB20F23FB181B785BB2134301
:102B10005AB20F23FB181A70FB1D1B785BB21022F0
:102B200013405AB20F23FB181B785BB213435AB2FF
:102B30000F23FB181A70FB1D1B785BB22022134079
:102B40005AB20F23FB181B785BB213435AB20F2300
:102B5000FB181A70FB1D1B785BB2402213405AB25F
:102B60000F23FB181B785BB213435AB20F23FB18D9
:102B70001A70FB1D1B78DB09DBB2DB015AB20F2395
:102B8000FB181B785BB213435AB20F23FB181A7061
:102B90004A4B1B78DB00DBB208221340DBB2180083
:102BA000FFF72CFE0F23FB181B7804221343DBB224
:102BB0001800FFF723FE0F23FB181B781800FFF700
:102BC0001DFE0F23FB1800221A700F23FB180F2283
:102BD000BA18127801210A431A70384B1B78DB00AF
:102BE0005BB2082213405AB20F23FB181B785BB26A
:102BF00013435AB20F23FB181A70FB1D1B781B01DD
:102C00005BB2102213405AB20F23FB181B785BB241
:102C100013435AB20F23FB181A70FB1D1B785B106D
:102C20005B015BB2202213405AB20F23FB181B78C2
:102C30005BB213435AB20F23FB181A70FB1D1B78AB
:102C40009B109B015BB2402213405AB20F23FB182A
:102C50001B785BB213435AB20F23FB181A70FB1D8B
:102C60001B78DB10DB015AB20F23FB181B785BB219
:102C700013435AB20F23FB181A70104B1B78DB005A
:102C8000DBB208221340DBB21800FFF7B7FD0F23B9
:102C9000FB181B7804221343DBB21800FFF7AEFDCC
:102CA0000F23FB181B781800FFF7A8FD6420FDF721
:102CB0006BFAC046BD4604B080BDC0462800002067
:102CC00080B500AFFFF7F2FCFFF71EFDFDF7FAF944
:102CD000FDF78EFA6420FDF723FAFFF767FDC04683
:102CE0001800BD4680BDC04690B589B000AF1C231A
:102CF000FB183D4A1A601823FB183C4A1A60C02092
:102D0000FFF714FE1823FA183B1D1100180000F0FD
:102D10007FFA3B1D1800FFF725FD8020FFF706FE18
:102D20001C23FA183B1D1100180000F071FA3B1D1E
:102D30001800FFF717FDFA239B001800FDF7F0F9C4
:102D40000120FFF7F3FD8020FFF7F0FD3B1D284A2F
:102D500013CA13C33B1D1800FFF704FD3B1D254A92
:102D6000116819609188998092799A713B1D1800B9
:102D7000FFF7F8FCFA239B001800FDF7D1F90120BA
:102D8000FFF7D4FDC020FFF7D1FD3B1D1A4A1168A3
:102D900019609188998092799A713B1D1800FFF70C
:102DA000E1FCFA239B001800FDF7BAF93B1D18005F
:102DB000FFF7D8FCFA239B001800FDF7B1F90120BA
:102DC000FFF7B4FD8020FFF7B1FD3B1D0B4A03CA9E
:102DD00003C312881A80FA239B001800FDF7A0F99C
:102DE000C046BD4609B090BD545741004141410025
:102DF000E4B50008F0B50008F8B5000800B6000812
:102E0000002243088B4274D303098B425FD3030A29
:102E10008B4244D3030B8B4228D3030C8B420DD33C
:102E2000FF22090212BA030C8B4202D312120902CA
:102E300065D0030B8B4219D300E0090AC30B8B4208
:102E400001D3CB03C01A5241830B8B4201D38B03B6
:102E5000C01A5241430B8B4201D34B03C01A52415B
:102E6000030B8B4201D30B03C01A5241C30A8B429E
:102E700001D3CB02C01A5241830A8B4201D38B0289
:102E8000C01A5241430A8B4201D34B02C01A52412D
:102E9000030A8B4201D30B02C01A5241CDD2C3099F
:102EA0008B4201D3CB01C01A524183098B4201D31B
:102EB0008B01C01A524143098B4201D34B01C01A06
:102EC000524103098B4201D30B01C01A5241C3087E
:102ED0008B4201D3CB00C01A524183088B4201D3ED
:102EE0008B00C01A524143088B4201D34B00C01AD9
:102EF0005241411A00D20146524110467047FFE745
:102F000001B5002000F0F0F802BDC0460029F7D05E
:102F100076E7704703460B437FD4002243088B4279
:102F200074D303098B425FD3030A8B4244D3030B50
:102F30008B4228D3030C8B420DD3FF22090212BA15
:102F4000030C8B4202D31212090265D0030B8B4291
:102F500019D300E0090AC30B8B4201D3CB03C01A7B
:102F60005241830B8B4201D38B03C01A5241430B56
:102F70008B4201D34B03C01A5241030B8B4201D346
:102F80000B03C01A5241C30A8B4201D3CB02C01AB1
:102F90005241830A8B4201D38B02C01A5241430A29
:102FA0008B4201D34B02C01A5241030A8B4201D318
:102FB0000B02C01A5241CDD2C3098B4201D3CB01BF
:102FC000C01A524183098B4201D38B01C01A52416E
:102FD00043098B4201D34B01C01A524103098B4272
:102FE00001D30B01C01A5241C3088B4201D3CB005D
:102FF000C01A524183088B4201D38B00C01A524140
:1030000043088B4201D34B00C01A5241411A00D2EF
:1030100001465241104670475DE0CA0F00D0494258
:10302000031000D34042534000229C4603098B42C8
:103030002DD3030A8B4212D3FC22890112BA030A50
:103040008B420CD3890192118B4208D389019211D2
:103050008B4204D389013AD0921100E08909C30957
:103060008B4201D3CB01C01A524183098B4201D359
:103070008B01C01A524143098B4201D34B01C01A44
:10308000524103098B4201D30B01C01A5241C308BC
:103090008B4201D3CB00C01A524183088B4201D32B
:1030A0008B00C01A5241D9D243088B4201D34B0046
:1030B000C01A5241411A00D20146634652415B1088
:1030C000104601D34042002B00D549427047634669
:1030D0005B1000D3404201B5002000F005F802BDAE
:1030E0000029F8D016E770477047C04670B50F2A20
:1030F00032D90C0004430B00A40731D115000400A1
:10310000103D2D0901352D0149191E6826605E68A4
:1031100066609E68A660DE681033E66010349942EF
:10312000F3D10F2345191340032B1BD91C1F002378
:10313000A4080134A400CE58EE5004339C42FAD1C6
:1031400003232D1909191A4005D00023CC5CEC5437
:1031500001339A42FAD170BD0500002AF5D1FAE791
:103160000500F2E71A00F8E70FB400B5064983B08E
:1031700004AB086804CB8168019301F0F3FC03B051
:1031800008BC04B01847C0465804002030B50500FC
:1031900089B008000C0000F0A1F804AB154A0193B7
:1031A0000223069201220293AB6B05900130049436
:1031B00007920390AC68002B17D00C22A35E8022EC
:1031C0009201134205D11343A381626E0A4B13404F
:1031D000636601AA2100280004F04AFC431E9841BE
:1031E0000A234042184309B030BD280004F002FB16
:1031F000E3E7C0460CB60008FFDFFFFF10B5034B46
:1032000001001868FFF7C2FF10BDC0465804002037
:103210000EB410B59DB002A9029008610B4882243B
:1032200088604861012040421FABC881084804CB38
:10323000A400006801938C8100F084F80023029AB6
:1032400013701DB010BC08BC03B01847FFFFFF7F10
:1032500058040020024670B50A4392072AD11E4D39
:10326000EE0104C808C9541B9443344017D0D0B2AF
:10327000D9B2401A2106014310D190B299B2401A36
:10328000210401430AD110021902000A090A401A56
:103290002102014302D1100E190E401A70BD9A424C
:1032A000DFD010BA19BA884201D9012070BD0020C0
:1032B000C04370BD02780B7801300131002A09D07B
:1032C0009A4207D102780B7801300131002A01D0EF
:1032D0009A42EFD0D01A70BD0101010110B58307E9
:1032E00027D00378002B26D00300032102E01A78B0
:1032F000002A1CD001330B42F9D119680F4A104C37
:103300008A188A4322420FD1043319680B4A8A185B
:103310008A43224208D104331968084A8A188A432A
:103320002242F1D000E001331A78002AFBD1181AAA
:1033300010BD0300E1E70020FAE7C046FFFEFEFEF5
:1033400080808080F0B55F46444656464D46F0B4D6
:10335000C3B00C00119307919346099004F046FD09
:1033600000681990FFF7BAFF1890A3891B0605D5CE
:1033700023690893002B01D101F06CF932AB25933E
:10338000002325AFBB607B6014931693179332AE76
:103390001A930C935B461B785C46002B1CD0252BA4
:1033A00002D119E0252B03D001342378002BF9D169
:1033B0005B46E51A10D05B463360BB6875605B19ED
:1033C000BB607B6801337B60072B61DC08360C9B9C
:1033D0009C46AC4463460C932378002B61D00120BB
:1033E00040420B900020631C9B4600230D900890E8
:1033F00010308146303016AA84464030D377002101
:10340000002282465D46637801351C00203C582C22
:1034100000D9ABE3D448A4000459A7460D9B1194EE
:103420005B420D9304230898184308902B78EBE730
:103430003024119B1EAA1470181D48341B68547048
:10344000AB460022089D0E930023290016ACE277BC
:103450000B9A0F9302331943002A00DA96E3802275
:1034600095432A001A430E9B08921190002B00D01E
:1034700076E37833BD4913930B9B9846002B00D11C
:103480000CE300239846002400230E930F946BE274
:103490003A000799099805F03BFE002809D132AEA1
:1034A00095E7BB68002B04D03A000799099805F00E
:1034B0002FFE079B0C989B895B0601D501F05EF9F6
:1034C00043B03CBC90469946A246AB46F0BD139330
:1034D000AB46002A01D001F010FB202308990B40D5
:1034E00000D1A8E10722119B073393430132944690
:1034F0009C4462465C681B6825001C0000231192F6
:1035000016AAD3770B9B0E940F95002B01DA00F0CF
:10351000B9FF8023994308912100294300D1A6E1F6
:10352000002398460722B44632AB92461C000E9AFE
:103530000F9B5807D6085146DD0830432B00050085
:103540001140013C3031217002001D43F1D10E9237
:103550000F93089A12946646D20700D41EE23029CF
:1035600001D101F0CDF83023129D013D2B7032AB1B
:103570005B1B10931295109A13000B9A934200DA7A
:1035800013000A93002315934346002B02D00A9B95
:1035900001330A930223089A1A40924602D00A9BEA
:1035A00002330A938423089A1A40914600D0FCE221
:1035B0000D9B0A9A9C1A002C00DCF6E26C49BA6852
:1035C0007B688846102C1FDD31001025464603E03D
:1035D000103C0831102C15DD103201330E604D60A7
:1035E000BA607B60072BF3DD3A000799099805F074
:1035F0008FFD002800D05CE7103CBA687B6832A9D8
:10360000102CE9DCB0460E00414674600133A4186A
:103610003160BC607B60072B01DD00F05BFD16AB09
:10362000DB7F08369846C1E26B1C98462B782A2B24
:1036300001D101F04BFA3020404283469B4458466A
:1036400000244546092801D901F0DCF990465A4684
:10365000A30001351C196B1E1B786400A4181A0006
:10366000303A092AF4D94246A846002C01DA01F082
:103670008FF80B944546C8E65046089B03430893D1
:103680002B78C1E630246442A34600209B44904638
:1036900003005A469C00E3185B000135D3186A1EEC
:1036A00014782200303A092AF4D90D9342462300B7
:1036B000ABE61393AB46002A01D001F012FA1023B7
:1036C000089A1A430892089B9B0601D400F049FD12
:1036D0000723119A07329A4301339C469444634668
:1036E0001193536812680F930E92002B01DA00F0C9
:1036F00047FD16ABDB7F98460B9B002B01DA00F0F1
:1037000065FD8023089A9A4308920E9A0F9B110038
:10371000194301D100F053FC0F9B002B01D101F0A4
:1037200031F80E9C0F9D32ABB1461E0020002900DF
:103730000A22002305F0E6FF013E303232700023FA
:10374000200029000A2205F0DDFF030004000D001F
:103750000B43EBD1320032AB9B1A12960E940F95AD
:103760004E46109307E7C04610B60008A8B70008F9
:1037700074B700081393AB46002A01D001F0DDF9BD
:103780000722119B07339343013294469C446246BF
:1037900011921A68169201225B68169D1793179B67
:1037A00052425C006408E44B2800210007F0A8FDA9
:1037B000002801D000F0CDFD0122DF4B524228004D
:1037C000210005F081FF002801D000F0C2FD002299
:1037D00000231698179905F06DFF002801D001F01D
:1037E000AAF816ABDB7F9846139B472B01DD00F050
:1037F0002DFFD24B12938023089A9A4308927D3B67
:103800000A93109300230B931593BDE60820089BA1
:10381000034308932B78F7E51393AB46002A01D0B6
:1038200001F093F91023089A1A432023089208996B
:103830000B4000D056E6102208990A4001D100F052
:103840002CFE11980200006804320E9000200F90A8
:1038500016A8C3770B9B002B01DA00F012FE802321
:1038600099430E9B08911192002B00D058E60B9BB8
:10387000002B01D101F092F8002398460023002488
:103880000E930F944EE61393AB46002A01D001F03D
:1038900058F91023089A1A430892202308990B40DC
:1038A00000D171E30722119B073393430132944601
:1038B0009C4462465C681B6825001C000023119232
:1038C00016AAD3770B9B0E940F95002B01DA00F00C
:1038D0007BFC802399430891210029430B1E00D1D2
:1038E0006CE30023984617E71393AB46002A01D0F8
:1038F00001F01FF9089B92499B0600D4A5E007221E
:10390000119B07339343013294469C4462465C68A2
:103910001B680E930F9401231192089A134000D153
:10392000A7E00E9A0F9B1000184301D100F008FE8B
:1039300030221EAB1A704C206A4612181278089C6E
:103940005A7000220223200016ADEA770B9A184322
:10395000002A01DA00F0EAFF8022200090430200F2
:103960001A430023984608920F208C46B14632AB8A
:103970001C000E9A0F9B010065461140695C013CDA
:103980001E07217011091D090E432B00350032005E
:103990001D43F0D14E460E920F93129432AB1B1B77
:1039A0001093E8E5119B1C1D1B680D93002B00DA9A
:1039B00034E52B78119427E52B7801222B2123E580
:1039C0002020089B034308932B781DE51393119B3C
:1039D00016A91C1D1B68AB461A0012930023CB7757
:1039E000002A01D100F065FF0B9B002B01DA00F0EB
:1039F0008DFE1A000021129804F01AFD002801D152
:103A000000F0C0FF129BC31A1A001093DB43DB17B0
:103A10001A40002316A9C97F0A92884611940B9375
:103A20001593B1E51393AB46002A00D135E716ABE9
:103A3000D97732E71393AB46002A01D001F06AF838
:103A40004049089B9B0600D559E7089BDB0600D53B
:103A5000D3E3089B5B0600D4CFE3119B1A880433A1
:103A60000E92002211930F920123089A134000D066
:103A700057E716A8C3770B9B002B01DA00F079FDFE
:103A800080239A4308920E9A0F9B1000184300D08F
:103A900088E00B9B9846002B00D0F2E400230B93A8
:103AA000109332AB129366E52B786C2B01D100F0AA
:103AB000B8FD4C46089820430890A5E4AB46002A80
:103AC00001D001F023F8089B9B0601D400F01FFDF4
:103AD00011990C9A0B681A60D2175A600B000433C4
:103AE000119357E41393AB46002A00D1EBE516ABD4
:103AF000D977E8E5119A1393136828210A936B4646
:103B00005B181B78AB4628AD2B70002316A9CB772A
:103B10001300043311930023984601330A93109342
:103B2000002312950B93159334E52B78002900D0D0
:103B30006AE40122203167E4FFFFEF7F84B70008C9
:103B400094B70008A8B70008012308981843089004
:103B50002B7859E46046089B034308932B7853E481
:103B6000002398467833D0491393FDE61393AB4670
:103B7000002A01D000F0D3FF139B002B00D190E46A
:103B800028AD2B70002316AAD377C5E778230891B8
:103B9000C54913930E9A0F9B14001C43231E1190CA
:103BA00000D16FE400239846DEE6BC684346002B54
:103BB0000FD016AA1F239446634433600123736019
:103BC0007B6801340133BC607B60072B00DD19E2A8
:103BD00008365346002B0CD01EAB336002237360B3
:103BE0007B6802340133BC607B60072B00DD15E28B
:103BF00008364B46802B00D15EE10B9B109A9D1A34
:103C0000002D36DDA94A7B689146102D26DD102255
:103C100021009246099C32002E004D4603E0103EE2
:103C20000832102E16DD50461031013315605060F9
:103C3000B9607B60072BF2DD3A000799200005F0A0
:103C400067FA002800D034E4103EB9687B6832AAD5
:103C5000102EE8DCA9460C00350016004A4664190F
:103C6000013332607560BC607B60072B00DDBDE115
:103C70000836089BDB0500D5B8E0129B3360109B2B
:103C80009C4673607B6864440133BC607B60072B97
:103C900000DD9FE00836089B5B0743D50D9B0A9A21
:103CA0009D1A002D3EDD824A7B689046102D27DD4F
:103CB000102221009146099C32002E00454603E067
:103CC000103E0832102E17DD4846103101331560C2
:103CD0005060B9607B60072BF2DD3A000799200045
:103CE00005F016FA002801D0FFF7E3FB103EB96893
:103CF0007B6832AA102EE7DCA8460C0035001600BF
:103D000042466419013324C6BC607B60072B09DD81
:103D10003A000799099805F0FBF9002801D0FFF750
:103D2000C8FBBC680D9B0A9A934200DA13000C9AF8
:103D300094469C4463460C93002C00D01AE1002367
:103D400032AE7B60FFF726FB149B012B00DCF2E018
:103D5000129B01343360012373607B68BC600133C4
:103D60007B60072B00DDC5E20836199A013332600B
:103D7000189A9846944664447260BC607B60072B36
:103D800000DDC4E20836002200231698179905F0DA
:103D90008BFC002800D0ACE1129D149B0135013B47
:103DA00035607360E41801239C46E0444346BC60E0
:103DB0007B60072B00DDCFE0083621AB33601A9B18
:103DC0009C467360434664440133BC607B60072BB0
:103DD00000DC5FE73A000799099805F099F9002897
:103DE00001D0FFF766FBBC6832AE54E7139B652B2E
:103DF000AADD002200231698179905F055FC00282B
:103E000000D117E12B4B01343360012373607B68D1
:103E1000BC6001337B60072B00DD9EE308361F9BEF
:103E2000149A934203DB089BDB0700D433E7199B0A
:103E30003360189B9C4673607B6864440133BC60AC
:103E40007B60072B01DD00F0F4FB0836149B5D1E40
:103E5000002D00DC1FE7154A7B689146102D00DC21
:103E6000C0E1102221009046099C32002E004D46F0
:103E700004E00832103E102E00DCAFE14046103165
:103E8000013315605060B9607B60072BF1DD3A00AB
:103E90000799200005F03CF9002801D0FFF709FB45
:103EA000B9687B6832AAE5E7A8B70008C8B7000878
:103EB00074B70008C4B700080D9B0A9A9D1A002D1C
:103EC00000DC9AE6D14A7B689146102D27DD10224E
:103ED00021009246099C32002E004D4603E0103E20
:103EE0000832102E17DD5046103101331560506036
:103EF000B9607B60072BF2DD3A000799200005F0DE
:103F000007F9002801D0FFF7D4FA103EB9687B68A2
:103F100032AA102EE7DCA9460C00350016004A46EE
:103F20006419013332607560BC607B60072B00DD73
:103F3000FBE1083661E60123089A134200D007E747
:103F400073607B68129A013301343260BC6098461A
:103F50007B60072B00DC2FE73A000799099805F0F2
:103F6000D7F8002801D0FFF7A4FA7B68BC68984610
:103F700032AE22E73A000799099805F0C9F80028FF
:103F800000D1DCE6FFF795FA102208990A4000D12B
:103F90009FE211980200006804320E9000200F90FA
:103FA00016A8C3770B9B002B00DA0CE18023994302
:103FB0000E9B08911192002B00D092E498460B9B27
:103FC000002B00D16AE5002300240E930F942722D2
:103FD0000E9B28A930338B5416AB9C466F2532AB11
:103FE00065445B1B10931295FFF7C5FA3A000799D9
:103FF000099805F08DF8002801D0FFF75AFABC683F
:1040000032AE36E63A000799099805F081F80028A3
:1040100001D0FFF74EFABC6832AEDAE53A000799F4
:10402000099805F075F8002801D0FFF742FABC683E
:1040300032AEDEE51F98002800DC9DE2159A149947
:10404000130091468B4200DD89464B46002B0CDD68
:10405000129B4C4433604B4673607B68BC600133F9
:104060007B60072B00DD97E308364B46DB434A466F
:10407000DB171340159AD31A9846002B00DCD7E0C3
:10408000102B01DC00F006FD604A21009146102251
:104090007B689246099D32004C46464604E0083251
:1040A000103E102E00DCB3E0504610310133146096
:1040B0005060B9607B60072BF1DD3A00079928005A
:1040C00005F026F8002801D0FFF7F3F9B9687B68FE
:1040D00032AAE5E73A000799099805F019F800288F
:1040E00001D0FFF7E6F916ABDB7FBC68984632AE2D
:1040F0005CE5149B5D1E002D00DC5EE6434B99469B
:10410000102D29DD102332009A462E00210043464F
:10411000099C4D4603E0103E0832102E17DD504634
:104120001031013315605060B9607B60072BF2DD00
:104130003A000799200004F0EBFF002801D0FFF7B8
:10414000B8F9103EB9687B6832AA102EE7DCA946A0
:104150000C003500984616004B46756033606419B4
:1041600021E6089BDB0600D4EBE0119A13680A9362
:104170000E930432DB170F93119201D4FFF7B9FAB3
:104180000E990F9A00244B4294410E930F942D23C5
:1041900016AAD3770B9B002B00DAACE38023089A96
:1041A0009A43533B08929846FFF7B6FA11990A00D2
:1041B000096804320E9100210F9116A9CB770B9B51
:1041C000002B00DB2AE21192002398460E9A0F9BE7
:1041D0001100194301D0FFF79FFAF4E6A9460C003D
:1041E000350016004A466419013332607560BC60C0
:1041F0007B60072B00DC4DE5ECE5119B1A6804336E
:104200000E92002211930F922EE4C046C8B7000808
:10421000B046A14616000C004A463260424644446D
:1042200001337260BC607B60072B00DD35E308362C
:10423000129A159B944663449846149A1F9B934286
:1042400049DB089AD20746D4129A149915008C4675
:1042500042466544CB1AAD1A9D4200DD1D00002D7B
:104260000BDD424632607A68641901327560BC60C9
:104270007A60072A00DD2FE30836EA43D21715409B
:104280005D1B002D00DC06E5D34A7B689146102DAE
:10429000A8DD102221009046099C32002E004D46D8
:1042A00003E00832103E102E98DD404610310133F5
:1042B00015605060B9607B60072BF2DD3A0007990A
:1042C000200004F025FF002801D0FFF7F2F8B968BC
:1042D0007B6832AAE6E7199A3260189A94467260AF
:1042E0007A6864440132BC607A60072A00DDC7E264
:1042F0000836A9E73A000799099804F009FF002851
:1043000001D0FFF7D6F8BC687B6832AE2DE53A00E5
:104310000799099804F0FCFE002801D0FFF7C9F8BE
:104320007B68BC68984632AE2DE53A00079909983B
:1043300004F0EEFE002801D0FFF7BBF8BC6832AEF7
:104340005BE4089B119A5B0600D40FE70021535EE3
:104350000EE7169D179C2A0023002800210006F076
:10436000CFFF002800D06EE30B9B013300D1E8E2C1
:104370002023139D9D43472D00D1A6E18023089A59
:104380005B001A43179B1B92002B00DAEFE2169A90
:104390009846002391460A93139C662C00D1AEE206
:1043A000462C00D172E12B00453B594259410B9BF1
:1043B0004A469A4623AB049320AB8A4403931FAB2F
:1043C000029353460193022309980093434602F057
:1043D00029F91290672C00D0F0E2129B53441C0084
:1043E000089BDB0700D426E3002300224846414611
:1043F00005F05AF92300002809D1239B9C4206D9D5
:1044000030215A1C23921970239B9C42F9D8129A8E
:104410009B1A1493472D00D1A8E1139B652B00DC58
:10442000DEE2139B662B00D1E0E21F9B1593159AE9
:1044300014998A4200DA8AE2089BDB0700D5F3E28E
:10444000D343DB1713401092672213920A9A002A73
:1044500000D07FE10A931B9B16AA08930023D27F0A
:104460000B939046FFF790F811990A0009680432FF
:104470000E9100210F9116A9CB770B9B002B00DB2F
:10448000C8E01192002398460E9A0F9B1100194321
:1044900001D0FFF747F8FFF7F1F9402308990B40E7
:1044A000E2D011980300008804330E9000200F9092
:1044B00016A8C2770B9A002A00DA11E180229143F4
:1044C0000E9A08911193002A01D0FFF729F8FFF7FF
:1044D000CEF9402308990B4000D167E611980300FC
:1044E000008804330E9000200F9016A8C2770B9A14
:1044F000002A00DAF0E080221193002391430E9A03
:1045000008919846002A01D0FFF706F957E5089B65
:10451000DB060CD4089B5B0609D56946119B098E06
:104520001A680433089211801193FEF733FF119A31
:104530000C9913681960130004331193FEF72AFFD6
:104540000B9B16AAD077002B01DAFEF79AFF802387
:10455000089A9A430892FEF78FFF3A000799099844
:1045600004F0D6FD002801D0FEF7A3FFBC6832AEF0
:1045700055E41198FFF70EFB184B0134336001230B
:1045800073607B68BC6001337B60072B71DC08368D
:10459000002807D1149B002B04D1089BDB0701D412
:1045A000FFF779FB199B3360189B191973607B68BF
:1045B000B96001337B60072B00DD27E2320008324F
:1045C0004442002C00DCB5E003488146102C00DC9E
:1045D0004AE11026050008E0C8B70008C4B7000883
:1045E0000832103C102C00DC3DE110310133156025
:1045F0005660B9607B60072BF2DD3A000799099895
:1046000004F086FD002801D0FEF753FFB9687B68EF
:1046100032AAE6E780230899FFF722F98023089958
:10462000C5E42020089B0135034308932B78FEF74F
:10463000EBFE3A000799099804F06AFD002801D0C2
:10464000FEF737FFBC6832AEFFF700FCE54B129374
:10465000FFF7D1F84021099803F040FC079B186050
:104660001861002800D15EE24023079A5361FEF7EB
:1046700085FE3A000799099804F04AFD002801D008
:10468000FEF717FF1F98BC6832AE81E723AB049397
:1046900020AB03931FAB029303230B9C0093019465
:1046A0004A464346099801F0BDFFA2461290129B6C
:1046B00053441C00139B462B00D095E6129B1B789D
:1046C000302B0FD01F9BE4188EE60B9B002B00D0E5
:1046D00054E601330B9351E611930023984675E598
:1046E0001193CFE6002200234846414604F0DCFF48
:1046F0000028E7D1012352469B1A1F93E41873E662
:10470000129A32AB9B1A1093FEF735FF1298FEF700
:10471000E5FD020010900300FFF778F93A000799D1
:10472000099804F0F5FC002801D0FEF7C2FEB96834
:104730007B6832AA12980133106014987B60441889
:104740005060BC60072B01DDFFF744FB0832160008
:10475000FFF7A1FA0A931B9B2D2208932D2398465D
:10476000002316A9CA770B93FEF711FF1F9CE31CC9
:104770001EDB0B9BA3421BDB159458E60120404235
:10478000FEF79EFE0E9B092B01D9FEF7CAFF1EE421
:1047900001246442FEF76DFF3A000799099804F07E
:1047A000B7FC002801D0FEF784FEBC6832AE5CE4A2
:1047B000139B023B13936B464C229B181B78013CC6
:1047C00021AD1F942B70002C00DA5AE12B236B7063
:1047D000092C00DC31E116AA3B2394466344B04621
:1047E0009A461E0020000A21FEF77AFC013E303175
:1047F000317020000A21FEF78DFB04000928F1DC4E
:10480000330030345A1EE4B246461470984652457E
:1048100000D376E14146791A2B00691800E014783C
:104820009C70013301329942F9D116A98C462E228F
:10483000434662449446FB1A634414995B1B0A0086
:104840009C4662441A931092012900DC27E1189AD1
:10485000109B944663441A001093DB43DB1713400C
:1048600000221592F2E5A946484609190133106065
:104870005460B9607B60072B00DD4FE7083259E7D1
:104880003A000799099804F043FC002801D0FEF78C
:1048900010FE1F9BBC6832AED6E43A000799099817
:1048A00004F036FC002801D0FEF703FEBC6832AEEF
:1048B000BEE40B9B062B00D906231A001093DB43A2
:1048C000DB171A40002398460B931593464B0A9228
:1048D00011941293FEF75EFE3A000799099804F0CE
:1048E00017FC002801D0FEF7E4FD149B1F9ABC685A
:1048F0009B1A32AEC1E42D239846FEF70DFF23AB81
:10490000049320AB03931FAB029303230B9C0093F0
:1049100001944A464346099801F084FEA4460100EA
:104920002200614412900C009246C7E600230890D2
:104930009846FFF719F82D2316AAD3779846FEF765
:1049400053FF2023139D9D431A3B0B9316E5189AA2
:10495000149B9446159A63441093002A00DC94E05B
:104960001A00DB43DB171340672213926EE58022A7
:1049700012069446169B9946179B634498462D232E
:104980000A9309E516ABDB7F119498460B9B0A93BB
:10499000109300230B931593FEF7F6FD9846089BA2
:1049A000DB0705D53021272328AAD154FFF714FBB4
:1049B0000023109332AB1293FEF7DDFD129B53449C
:1049C0001C00139B472B00D00EE5089BDB0700D58E
:1049D0006DE6239B129A9B1A1493472D00D1C5E6CE
:1049E0001F9CE8E688B70008BCB700081F9B15931A
:1049F000002B5EDD0B9A002A34D1089AD20731D4FD
:104A0000109323E500200B90FEF7FFFC3A00079976
:104A1000099804F07DFB002801D0FEF74AFD1F989D
:104A2000B9687B6832AACBE5189A159B9446634413
:104A30001A00109395E7239BE9E430233034AB70E0
:104A4000EC7022ABF9E6139B472B2FDC414B129302
:104A50008023089A9A4316ABDB7F0892984603237B
:104A6000FEF7CEFE189A159B9446634418000B9BE4
:104A70009C46844463461093DB436246DB17134035
:104A8000E4E42D2364426B70A2E6109B159A981AF9
:104A9000431CCDE7304A7B689146FFF7BDFB089B7E
:104AA000DB0700D5D3E6109A1300D6E62B4B129302
:104AB000CEE70B9B002B02D1089BDB0702D5189B8E
:104AC000581CD4E7012201231092BFE4119B1C1D46
:104AD0001B680B93002B08DB6B7811944546FEF79F
:104AE00093FC16ABD977FEF7EAFD012040426B78C4
:104AF000119445460B90FEF787FC16ABD977FEF76D
:104B0000ECFC16AA2E239446634496E616ABD9779E
:104B1000FEF7D9FF16ABD9771149FEF792FF16AB16
:104B2000D977FFF729F80C23099A01381360FEF7AB
:104B3000C7FC16ABD977FEF7DDFE16ABD977FEF7CB
:104B40001FFE16ABD977FEF7A4FE16ABD977FEF79A
:104B500069FEC0468CB70008C8B7000890B70008C7
:104B6000A8B70008F0B544465F4656464D46F0B437
:104B7000C3B01C001193834688460A9203F036F9AD
:104B800000681990FEF7AAFB5B461890002B03D033
:104B90009B6B002B00D1D9E0434680210C229A5E0A
:104BA000890193B20B4209D10A43434641469A8197
:104BB000496EBC4B0B4041464B6693B21A0700D47A
:104BC00097E042461269002A00D192E01A2213406F
:104BD0000A2B00D19CE032AB2593002325AFBB60AC
:104BE0007B601493169317931A930C935B46C346FA
:104BF00032AE07930A9C2378002B00D1AAE0252B24
:104C000002D1A7E0252B03D001342378002BF9D162
:104C10000A9BE51A11D00A9B75603360BB685B196B
:104C2000BB607B6801337B60072B00DD83E00836C7
:104C30000C9B9C46AC4463460C932378002B01D11B
:104C400001F0DAF8002316AAD377012252420B9220
:104C500000220D92089240329246383A91467832BC
:104C6000611C637800200024944601311A00203A28
:104C7000582A00D98DE38C4D9200AA5897460D9B77
:104C800011925B420D930423089A1A4308920B7801
:104C9000EBE73024119B1EAA1470181D48341B68C2
:104CA0005470089D00220E9300230A91290016AC2F
:104CB000E2770B9A0F9302331943002A00DA79E363
:104CC000802295432A001A430E9B08921190002BD4
:104CD00000D058E37833754913930B9B9846002B0B
:104CE00000D11EE300239846002400230E930F9466
:104CF000C0E24146584601F083FB002801D001F094
:104D000073F843461A229B8913400A2B00D062E7AE
:104D100043460E229B5E002B00DA5CE723000A9AD2
:104D20004146584601F032FB43B03CBC90469946A0
:104D3000A246AB46F0BD3A005946079804F0BCFACB
:104D4000002801D000F027FD32AE71E7584602F08E
:104D500051FD21E70A9C70E7119B1A1D1B680D93FA
:104D6000002B00DA8BE70B7811927EE74B1C9846FC
:104D70000B782A2B01D101F0BBFA1A00303A00213E
:104D8000092A01D901F060FA4346804608008100F3
:104D900009184900013388185A1E11780A00303A60
:104DA000092AF4D9424698460B0001001000002958
:104DB00001DA01F0FDF80B91414657E76246089B86
:104DC000134308930B7850E700221500303B8046D0
:104DD0001A00280083001B185B000131D0184B1EFD
:104DE0001B781A00303A092AF4D90D9040463DE765
:104DF00013930A91002801D001F0A7FA1023089A12
:104E00001A430892089B9B0601D400F09CFD0723DF
:104E1000119A07329A4301339C4694446346119396
:104E2000536812680F930E92002B01DA00F08EFE89
:104E300016ABDB7F98460B9B002B01DA00F0E3FDFD
:104E40008023089A9A4308920E9A0F9B11001943E7
:104E500001D100F0BDFC0F9B002B01D101F0A2F8A5
:104E60000E9C0F9D32ABB1461E00200029000A2285
:104E7000002304F047FC013E303232700023200052
:104E800029000A2204F03EFC030004000D000B433D
:104E9000EBD1320032AB9B1A12960E940F954E4610
:104EA0001093B1E0FFDFFFFFD8B70008A8B70008F4
:104EB00013930A91002801D001F032FA0722119BC6
:104EC00007339343013294469C44624611921A6818
:104ED000169201225B68169D1793179B52425C0045
:104EE0006408C24B2800210006F00AFA002801D00D
:104EF00000F06CFE0122BD4B52422800210004F05C
:104F0000E3FB002801D000F061FE00220023169888
:104F1000179904F0CFFB002801D001F01FF916AB60
:104F2000DB7F9846139B472B01DC00F072FFB04BF0
:104F300012938023089A9A4308927D3B0993109319
:104F400000230B93159368E04A46089B134308938C
:104F50000B788AE613930A91002801D001F0E4F956
:104F60001023089A1A430892202308990B4001D174
:104F700000F0C1FC0722119B073393430132944692
:104F80009C4462465C681B6825001C00002311924B
:104F900016AAD3770B9B0E940F95002B01DA00F025
:104FA000FDFD8023994308912100294301D100F0A0
:104FB000BDFC002398460722B44632AB92461C0043
:104FC0000E9A0F9B5807D6085146DD0830432B0038
:104FD00005001140013C3031217002001D43F1D128
:104FE0000E920F93089A12946646D20700D45BE1A2
:104FF000302901D100F099FF3023129D013D2B7023
:1050000032AB5B1B10931295109A13000B9A9342CC
:1050100000DA13000993002315934346002B02D0B6
:10502000099B013309930223089A1A40924602D041
:10503000099B023309938423089A1A40914600D0B1
:10504000C7E10D9B099A9C1A002C00DCC1E169495B
:10505000BA687B688846102C21DD310010255E4639
:1050600003E0103C0831102C17DD404610320133AC
:1050700008604D60BA607B60072BF2DD3A003100BA
:10508000079804F019F9002801D000F032FC103C18
:10509000BA687B6832A9102CE7DCB3460E004146A3
:1050A00074600133A4183160BC607B60072B01DDA4
:1050B00000F011FC16ABDB7F083698468AE11393AB
:1050C0000A91002801D001F038F91023089A1A43F8
:1050D0000892202308990B4000D15EE30722119B20
:1050E00007339343013294469C4462465C681B68D4
:1050F00025001C000023119216AAD3770B9B0E9457
:105100000F95002B01DA00F07CFC80239943089175
:10511000210029430B1E00D159E3002398469AE64B
:1051200013930A91002800D11EE716ABDC771BE72A
:105130002022089B134308930B7896E51393119B49
:105140000A911C1D1B6816A91A0012930023CB7725
:10515000002A01D100F0C6FF0B9B002B01DA00F002
:10516000EAFE1A000021129803F062F9002801D12A
:1051700001F040F8129BC31A1A001093DB43DB17AF
:105180001A40002316A9C97F0992884611940B93EF
:10519000159342E713930A91002800D132E616AB2B
:1051A000DC772FE65246089B134308930B785CE5A7
:1051B0000B786C2B01D100F0A4FE1025089A2A432D
:1051C000089252E50A91002801D001F0CBF8089B23
:1051D0009B0601D400F085FD11990C9A0B681A60AA
:1051E000D2175A600B000433119303E5FFFFEF7FE2
:1051F00088B700083CB9000813930A91002801D031
:1052000001F09FF8089BB5499B0663D50722119BC7
:1052100007339343013294469C4462465C681B68A2
:105220000E930F9401231192089A134065D00E9AA1
:105230000F9B1000184301D100F06CFD30221EAB13
:105240001A704C206A4612181278089C5A70002274
:105250000223200016ADEA770B9A1843002A01DAE0
:1052600000F082FF80222000904302001A430023B6
:10527000984608920F208C46B14632AB1C000E9A1D
:105280000F9B010065461140695C013C1E072170BF
:1052900011091D090E432B00350032001D43F0D1CA
:1052A0004E460E920F93129432AB1B1B1093ABE63B
:1052B00013930A91002800D10BE716ABDC7708E7BF
:1052C00013930A91002801D001F043F88449089B08
:1052D0009B069BD4089BDB0604D4089B5B0601D588
:1052E00000F0CBFD119B1A680E920022043311933B
:1052F00001230F92089A134099D116A8C3770B9BEC
:10530000002B01DA00F06DFD80239A4308920E9A7B
:105310000F9B1000184359D10B9B9846002B00D0CF
:10532000E0E400230B93109332AB12936CE60B78FE
:10533000002C00D099E40120203496E40123089A3F
:105340001A4308920B7890E40B7801202B248CE40C
:10535000119A139313680A91099324216B465B18E1
:105360001B7828AD2B70002316A9CB7713000433CC
:10537000119300239846013309931093002312954B
:105380000B9315934FE600239846783354491393B3
:1053900070E713930A91002801D000F0DFFF139B00
:1053A000002B01D100F028FD28AD2B70002316AA98
:1053B000D377DFE778230891494913930E9A0F9B1F
:1053C00014001C43231E119000D18CE40023984646
:1053D00050E7BC684346002B0FD016AA1F23944603
:1053E00063443360012373607B6801340133BC6024
:1053F0007B60072B00DD0CE208365346002B0CD0F7
:105400001EAB3360022373607B6802340133BC60DF
:105410007B60072B00DD06E208364B46802B00D16F
:1054200052E10B9B109A9D1A002D32DD2D4A7B68AC
:105430009146102D22DD1022924622005C4603E0A8
:10544000103D0836102D17DD4946316051461032A7
:1054500001337160BA607B60072BF1DD3A002100F7
:10546000079803F029FF002800D066E1103DBA68D4
:105470007B6832AE102DE7DCA34614004A4664195F
:10548000013332607560BC607B60072B00DDB6E1E4
:105490000836089BDB0500D5BAE0129B3360109BF1
:1054A0009C4673607B6864440133BC607B60072B5F
:1054B00000DDA2E00836089B5B0746D50D9B099AE4
:1054C0009D1A002D41DD084A7B689046102D2BDD8A
:1054D0001022914622005C460CE0C04694B70008BA
:1054E000A8B700084CB900083CB90008103D0836C0
:1054F000102D17DD4146316049461032013371608D
:10550000BA607B60072BF1DD3A002100079803F0B9
:10551000D3FE002800D010E1103DBA687B6832AE9F
:10552000102DE7DCA346140042466419013324C65B
:10553000BC607B60072B08DD3A005946079803F0F2
:10554000BBFE002800D026E1BC680D9B099A93425F
:1055500000DA13000C9A94469C4463460C93002C8A
:1055600000D010E1002332AE7B60FFF743FB149BB9
:10557000012B00DCEAE0129B0134336001237360ED
:105580007B68BC6001337B60072B00DDB2E208362C
:10559000199A01333260189A9846944664447260AE
:1055A000BC607B60072B00DDB8E2083600220023D8
:1055B0001698179904F078F8002800D0D1E1129DD0
:1055C000149B0135013B35607360E41801239C4650
:1055D000E0444346BC607B60072B00DDC7E0083633
:1055E00021AB33601A9B9C4673604346644401338D
:1055F000BC607B60072B00DC5CE73A0059460798EB
:1056000003F05AFE002800D0C5E0BC6832AE52E775
:10561000139B652BABDD002200231698179904F02D
:1056200043F8002800D108E1D64B01343360012350
:1056300073607B68BC6001337B60072B00DD7AE31D
:1056400008361F9B149A934203DB089BDB0700D4A8
:1056500031E7199B3360189B9C4673607B686444F8
:105660000133BC607B60072B01DD00F052FC083683
:10567000149B5D1E002D00DC1DE7C34A7B6891462C
:10568000102D00DC9FE11022904622004C46D946A6
:1056900004E00836103D102D00DC48E3414610328E
:1056A000013334607160BA607B60072BF1DD3A0032
:1056B0004946079803F000FE002801D000F00FFDD6
:1056C000BA687B6832AEE5E70D9B099A9D1A002DFA
:1056D00000DCA6E6AC4A7B689146102D21DD102245
:1056E000924622005C4603E0103D0836102D16DD80
:1056F000494631605146103201337160BA607B60B7
:10570000072BF1DD3A002100079803F0D5FD0028B2
:1057100013D1103DBA687B6832AE102DE8DCA34689
:1057200014004A466419013332607560BC607B60C6
:10573000072B00DDFFE1083673E6A04643469B8950
:105740005B0600D550E30C98FFF7EEFA0123089AA8
:10575000134200D00FE773607B68129A0133013463
:105760003260BC6098467B60072B00DC37E73A006C
:105770005946079803F0A0FD00280CD17B68BC684F
:10578000984632AE2CE73A005946079803F094FD4C
:10579000002800D1E6E6D846D0E7102208990A4052
:1057A00000D11BE111980200006804320E90002025
:1057B0000F9016A8C3770B9B002B00DA20E1802303
:1057C00099430E9B08911192002B00D0A5E49846B6
:1057D0000B9B002B00D1A4E5002300240E930F9413
:1057E00027220E9B28A930338B5416AB9C466F257D
:1057F00032AB65445B1B10931295FFF705FC3A0032
:105800005946079803F058FD0028C4D1BC6832AE51
:105810003FE63A005946079803F04EFD0028BAD1FA
:10582000BC6832AEE9E53A005946079803F044FDFA
:105830000028B0D1BC6832AEEFE51F98002800DC2C
:1058400084E2159A1499130091468B4200DD894633
:105850004B46002B0CDD129B4C4433604B4673606F
:105860007B68BC6001337B60072B00DDA4E3083656
:105870004B46DB434A46DB171340159AD31A98462A
:10588000002B00DCD7E0102B01DC00F019FD3E4AB4
:105890007B68914610224D46924622004446D846E7
:1058A00004E00836103C102C00DCB4E05146103205
:1058B000013335607160BA607B60072BF1DD3A001F
:1058C0004146079803F0F8FC002800D036E7BA6894
:1058D0007B6832AEE6E73A005946079803F0ECFCE5
:1058E000002800D057E716ABDB7FBC68984632AE85
:1058F00070E5B04622E7102208990A4000D13BE14A
:1059000011980200006804320E9000200F9016A833
:10591000C3770B9B002B00DA3FE1802399430E9B5A
:1059200008911192002B01D0FFF743FB0B9B002B3A
:1059300001D100F06BFC00239846002300240E9355
:105940000F94FFF738FB089BDB0600D430E1119A77
:10595000136809930E930432DB170F931192FFF72C
:1059600063FA149B5D1E002D00DC39E6064B994658
:10597000102D00DCCDE0102322009A465C46434601
:1059800009E0C046C4B700084CB900080836103D0D
:10599000102D00DCBAE04946316051461032013327
:1059A0007160BA607B60072BF0DD3A002100079838
:1059B00003F082FC002800D0BFE6BA687B6832AEF4
:1059C000E5E7A34614004A46641901333260756066
:1059D000BC607B60072B00DC6CE50EE64023089979
:1059E0000B4000D030E211990A00096804320E9190
:1059F00000210F9116A9CB770B9B002B00DBDFE07A
:105A00001192002398460E9A0F9B1100194301D062
:105A1000FFF721FAE0E6C346A946A04614004A462D
:105A200032604246444401337260BC607B60072BA5
:105A300000DD6AE30836129A159B94466344984643
:105A4000149A1F9B934246DB089AD20743D4129ABA
:105A5000149915008C4642466544CB1AAD1A9D42F6
:105A600000DD1D00002D0BDD424632607A686419AE
:105A700001327560BC607A60072A00DD1CE30836DD
:105A8000EA43D21715405D1B002D00DC13E5D84A10
:105A90007B689146102D96DD1022904622005C46D0
:105AA00003E00836103D102D8BDD4946316041463C
:105AB000103201337160BA607B60072BF1DD3A0070
:105AC0002100079803F0F8FB002800D035E6BA68FB
:105AD0007B6832AEE6E7199A3260189A9446726093
