:020000040800F2
:1000000000400020AD060008F10600085B1400085F
:1000100000000000000000000000000000000000E0
:10002000000000000000000000000000F1060008D1
:100030000000000000000000F1060008C9050008EB
:10004000F1060008F1060008F1060008F1060008B4
:10005000F1060008F1060008F1060008F1060008A4
:10006000F1060008F1060008F1060008F106000894
:10007000F1060008F1060008F1060008F106000884
:10008000F1060008F1060008F106000885100008D6
:10009000F1060008F1060008F1060008F106000864
:1000A000F1060008F1060008F1060008F106000854
:1000B000F1060008F1060008F1060008F106000844
:1000C0005FF808F180B582B000AF7860134B1B7801
:1000D0005A1CD1B2114A11701A007B68D9B2104B68
:1000E00099540E4B1B781A000D4B002199540B4B61
:1000F0001B7801330F2B05D87B680A2B02D07B6855
:10010000002B08D1054B00221A70054B0022190064
:10011000042001F099F9BD4602B080BD64040020BE
:100120005404002080B500AF104B1A68FA239900E0
:10013000100001F091FB03009BB2013B9AB20C4B03
:100140001A800A4B1B680B49180001F085FB03005D
:100150009BB2013B9AB2084B1A80084B074AD269FE
:1001600010210A43DA61C046BD4680BD400400202C
:100170007004002040420F00720400200010024072
:1001800080B582B000AF0200BB1D1A80144A154B27
:100190001B881385124BBA1D1288013ADA62104B84
:1001A00000225A620E4A0E4B1B889BB201210B4360
:1001B0009BB2138000E0C046094B1B8A9BB21A0019
:1001C00001231340F7D0064A054B1B8A9BB201213D
:1001D0008B439BB21382C046BD4602B080BDC04671
:1001E000001000407004002080B500AF084B084AA2
:1001F0005269802109030A435A61064B054A126875
:10020000C02189000A431A60C046BD4680BDC04671
:10021000001002400008004880B500AF0A4B0A4AAF
:100220009269802189000A439A61074B064A526B02
:1002300001210A435A63C046034B5B6B0222134001
:10024000FAD0C046BD4680BD0010024080B500AF68
:100250000C4B9B680122134005D00A4B094A926857
:1002600001218A439A60074B064A92688021090659
:100270000A439A60C046034B9B68002BFBDBC046D9
:10028000BD4680BD0024014080B500AF064B064A44
:10029000926801210A439A60034B1B6801221340B4
:1002A000F4D0C046BD4680BD0024014080B500AFFB
:1002B000034B8022D2019A62C046BD4680BDC04633
:1002C0000024014080B500AFFFF78EFFFFF7A4FFC9
:1002D000FFF7BCFFFFF7D8FFFFF7E8FFC0461800A5
:1002E000BD4680BD80B588B000AF78600023FB615B
:1002F0000023BB6100237B6100233B610023FB6083
:100300008A4B5B680C221340FB61FB69042B0CD009
:1003100002D8002B05D03AE0082B0AD00C2B32D0A3
:1003200035E07B68824A1A6035E07B68804A1A6053
:1003300031E07E4B5A68F0239B031340BB617B4B3B
:100340005A68C0235B0213407B61BB699B0C02337C
:10035000BB617B69002B05D1BB69764A5A437B6838
:100360001A6018E0714BDB6A0F22134001333B61C6
:1003700039696F4801F070FA03001A00BB695A43EB
:100380007B681A6007E07B686B4A1A6003E07B6851
:10039000674A1A60C046654B5B68F0221340FB61F8
:1003A000FB691B09FB61654AFB69D3181B78DBB24B
:1003B000FB607B681A68FB68DA407B685A605B4BBD
:1003C0005A68E023DB001340FB61FB691B0AFB61F9
:1003D0005A4AFB69D3181B78DBB2FB607B685A680A
:1003E000FB68DA407B689A60504B1A6B80235B0095
:1003F000134003D17B68524ADA6010E04B4B5A68D5
:100400008023DB01134005D17B689B685A087B6819
:10041000DA6004E07B689B689A087B68DA60434B8B
:100420001B6B4022134003D17B68464A1A6103E0EC
:100430007B68802212021A613C4B1B6B1022134016
:1004400003D17B683A4A5A6103E07B681A687B688B
:100450005A61364B1B6B0322134004D17B689A68A8
:100460007B689A611EE0314B1B6B03221340012B0A
:1004700004D17B681A687B689A6113E02B4B1B6B75
:1004800003221340022B04D17B68802212029A615E
:1004900008E0264B1B6B03221340032B02D17B6821
:1004A000234A9A61214B1A6BC0239B02134004D14B
:1004B0007B689A687B68DA6127E01C4B1A6BC02363
:1004C0009B021A4080235B029A4204D17B681A681F
:1004D0007B68DA6119E0154B1A6BC0239B021A4046
:1004E00080239B029A4204D17B6880221202DA6147
:1004F0000BE00E4B1A6BC0239B021A40C0239B02D9
:100500009A4202D17B680A4ADA61084B1B6B80224F
:10051000134003D17B68084A1A6203E07B681A68BB
:100520007B681A62C046BD4608B080BD001002401C
:1005300000127A0000093D00006CDC02000000207F
:10054000809FD5001280000080B582B000AF786037
:100550000A00FB1C1A70FB1C1B78002B06D0094BF1
:10056000084A51697A680A435A6106E0054B054A10
:1005700052697968C9430A405A61C046BD4602B013
:1005800080BDC0460010024080B582B000AF7860E8
:100590000A00FB1C1A70FB1C1B78002B06D0094BB1
:1005A000084AD1697A680A43DA6106E0054B054AD0
:1005B000D2697968C9430A40DA61C046BD4602B0D3
:1005C00080BDC0460010024080B500AF034B1B68E1
:1005D0005A1C024B1A60C046BD4680BD680400200C
:1005E00080B500AF80239B0201211800FFF7ACFF0C
:1005F00000F0D0FD0C4B03221A600B4B01221A7144
:10060000094B00229A71084B0022DA71064B022234
:100610005A71054A9023DB051100180000F038FEDE
:10062000C046BD4680BDC0467804002080B582B07B
:1006300000AF194B1A68FA239900100001F00CF969
:1006400003009AB2154B1A80134B1B68144918000B
:1006500001F002F903009AB2124B1A8001F01CF863
:1006600000F0F4FBFFF7BCFFFFF75CFDFFF72AFE8D
:1006700000F0D4FC03007B607B68002BF8D07A6824
:10068000094B1100180000F037FBFA239B001800FB
:10069000FFF776FDECE7C046400400207004002020
:1006A00040420F0072040020EC190008002103E012
:1006B0000A4B5B584350043109480A4B42189A428E
:1006C000F6D3094A02E0002313600432074B9A4232
:1006D000F9D300F0E1FFFFF7A9FF7047B41A000853
:1006E00000000020540400205404002014050020C1
:1006F000FEE7000080B582B000AF0200FB1D1A705B
:10070000FB1D1B781800FFF7DDFCC046BD4602B09C
:1007100080BDC04680B582B000AF78600A00FB1C87
:100720001A707B68FA1C12781A7001231800BD46F3
:1007300002B080BD80B584B000AF7860396000231E
:10074000FB600AE07B685A1C7A603A68511C396089
:1007500012781A70FB680133FB603B681B78002B32
:10076000F0D1FB681800BD4604B080BD90B587B0DD
:1007700000AFF8607A603B600B23FB180A1C1A700C
:1007800000237B617B68013B7B603B68092B26D99A
:100790003B680A21180001F05FF803001C007A682A
:1007A0000B23FB181978F8682300FFF7DFFF03001D
:1007B0007B617B69FA68D318FB6013E00B23FB189D
:1007C0001A78FB6811001800FFF7A4FFFB680133DB
:1007D000FB607B6901337B617B68013B7B607B68ED
:1007E000002BEBDC3B680A21180001F0BBF80B0082
:1007F000DBB23033DAB2FB6811001800FFF78AFF72
:1008000002007B699B187B617B691800BD4607B0BD
:1008100090BDC04690B587B000AFF8607A603B608D
:100820000B23FB180A1C1A7000237B613B68002B0A
:1008300003DA3B685B423B6101E03B683B617B68FC
:10084000013B7B603B69092B2BD93B68002B12DAFB
:100850003B690A21180000F0FFFF03005B421C0007
:100860007A680B23FB181978F8682300FFF7D2FF8A
:1008700003007B6110E03B690A21180000F0ECFFE7
:1008800003001C007A680B23FB181978F868230012
:10089000FFF7C0FF03007B617B69FA68D318FB6038
:1008A00029E03B68002B14DA7B68013B7B6010E099
:1008B0000B23FB181A78FB6811001800FFF72AFFBA
:1008C000FB680133FB607B6901337B617B68013B23
:1008D0007B607B68002BEBDC3B68002B0BDAFB6852
:1008E0002D211800FFF716FF02007B699B187B6122
:1008F000FB680133FB603B690A21180001F032F804
:100900000B00DBB23033DAB2FB6811001800FFF7DE
:1009100001FF02007B699B187B617B691800BD4663
:1009200007B090BDB0B588B002AFF86008007A603B
:1009300019000B23FB18021C1A700A23FB180A1C4F
:100940001A7000237B617B68013B7B60BB6A1B09DB
:1009500028D0BB6A1B090A22BA1815787C680B22BA
:10096000BA181178F86800932B002200FFF7DAFF1D
:1009700002007B699B187B617B69FA68D318FB6076
:1009800013E00B23FB181A78FB6811001800FFF71F
:10099000C1FEFB680133FB607B6901337B617B68CF
:1009A000013B7B607B68002BEBDCBB6A0F221340B2
:1009B000092B0CD8BB6ADBB20F221340DBB23033F9
:1009C000DAB2FB6811001800FFF7A4FE1DE00A234D
:1009D000FB181B78002B0CD0BB6ADBB20F22134034
:1009E000DBB23733DAB2FB6811001800FFF792FE72
:1009F0000BE0BB6ADBB20F221340DBB25733DAB233
:100A0000FB6811001800FFF785FE7B6901337B61ED
:100A10007B691800BD4606B0B0BDC04690B58BB02E
:100A200002AFF860B9607A603B600023BB610023CD
:100A30007B61FB68002B00D1E2E0FB6800221A70AA
:100A4000DEE07B681B78252B0BD0FB685A1CFA6014
:100A50007A68511C796012781A707B6901337B6166
:100A6000CEE07B6801331B78252B0BD1FB685A1C29
:100A7000FA6025221A707B6802337B607B69013340
:100A80007B61BDE01F23FB1820221A701E23FB1878
:100A900000221A707B6801337B607B681B78302BE7
:100AA0001AD11F23FB1830221A707B6801337B6038
:100AB00012E01E23FB181B781A1C9200D318DB18B7
:100AC000DAB27B681B78D318DAB21E23FB18303AEF
:100AD0001A707B6801337B607B681B782F2B03D9EE
:100AE0007B681B78392BE4D91E23FB181A787B69A5
:100AF000D3181A00BB689A4207D9BB68D9B27B6980
:100B0000DAB21E23FB188A1A1A707B681B78583BCE
:100B1000202B67D89A004A4BD3181B689F461E2388
:100B2000FB181C783B681A1D3A601A681F23FB18D3
:100B30001978F86813002200FFF76CFE0300BB6110
:100B400053E01E23FB181C783B681A1D3A601A6894
:100B50001F23FB181978F86813002200FFF706FE20
:100B60000300BB6141E01E23FB181C783B681A1D83
:100B70003A601B681F22BA181178F86800930023A6
:100B80002200FFF7CFFE0300BB612EE01E23FB18FF
:100B90001C783B681A1D3A601B681F22BA1811782E
:100BA000F868009301232200FFF7BCFE0300BB613D
:100BB0001BE03B681A1D3A601A68FB6811001800B8
:100BC000FFF7B8FD0300BB610FE03B681A1D3A60F8
:100BD0001B68DAB2FB6811001800FFF79BFD0300E9
:100BE000BB6102E001235B4225E07B6801337B604F
:100BF000BB69FA68D318FB607A69BB69D3187B615B
:100C00007B681B78002B04D07A69BB689A4200D2BB
:100C100017E77A69BB689A4203D2FB6800221A7010
:100C200008E0FB68013BFB60FB6800221A707B69EF
:100C3000013B7B617B691800BD4609B090BDC04691
:100C4000FC19000880B584B000AFF860B9607A6024
:100C50007B68BA68F8686421FFF7E0FE03001800BB
:100C6000BD4604B080BDC04690B5A7B000AFF860E7
:100C7000B9607A601023FB18134A13CA13C313CA4E
:100C800013C313CA13C37A68B9683423FB18180056
:100C9000FFF7D8FF0300632B09DD0C4B1B68DA68F4
:100CA0001023FB181100180000F05EF8FEE7FA6848
:100CB0003423FB181100180000F056F80300180048
:100CC000BD4627B090BDC046801A000838040020F9
:100CD00080B582B000AF78603960064B1B689B68B6
:100CE0003A6879681800FFF7BFFF03001800BD4697
:100CF00002B080BD380400200FB480B582B000AFD0
:100D00001423FB183B603A683B6911001800FFF799
:100D1000DFFF03007B607B681800BD4602B080BC2B
:100D200008BC04B01847C04680B582B000AF7860F8
:100D300039600C4B1B689A683B689A4205D0094B96
:100D40001B68DA683B689A4206D17B68DBB2180000
:100D5000FFF7D0FC7B6801E001235B421800BD4631
:100D600002B080BD3804002080B584B000AF786048
:100D700039600023FB6013E07B681B781A003B6836
:100D800019001000FFF7D0FF0300013302D1012347
:100D90005B420AE0FB680133FB607B6801337B60E8
:100DA0007B681B78002BE7D1FB681800BD4604B0B8
:100DB00080BDC04680B584B000AF78600A00BB1C1F
:100DC0001A80BB1C1A880823FB181A600823FB181A
:100DD00001225A710823FB1800221A710823FB18FC
:100DE00000229A710823FB180222DA710823FA18EC
:100DF0007B681100180000F04BFAC046BD4604B0F5
:100E000080BDC04680B584B000AF78600A00BB1CCE
:100E10001A80BB1C1A880823FB181A600823FB18C9
:100E200001225A710823FB1801221A710823FB18AA
:100E300000229A710823FA187B681100180000F04C
:100E400027FAC046BD4604B080BDC04680B582B01A
:100E500000AFE0231B0301211800FFF775FB80237F
:100E60009B001D4A19001000FFF7CCFF80235B0098
:100E7000194A19001000FFF7C5FF174B8021180011
:100E8000FFF7C0FF144B40211800FFF7BBFF802382
:100E90001A029023DB0511001800FFF78BFF802357
:100EA000DA009023DB0511001800FFF783FF802391
:100EB0009A009023DB0511001800FFF77BFF8023C9
:100EC0005A009023DB0511001800FFF773FFC0469E
:100ED000BD4602B080BDC0460008004880B582B063
:100EE00000AF78600A00BB1C1A80BB1C1A887B68A4
:100EF0009A61C046BD4602B080BDC04680B582B092
:100F000000AF78600A00BB1C1A807B68BA1C12888C
:100F10001A85C046BD4602B080BDC04680B500AF50
:100F200080235A009023DB051100180000F048FAD6
:100F3000031E01D0012324E080239A009023DB05C7
:100F40001100180000F03CFA031E01D0022318E043
:100F50008023DA009023DB051100180000F030FA3E
:100F6000031E01D003230CE080231A029023DB052B
:100F70001100180000F024FA031E01D0042300E041
:100F800000231800BD4680BD80B582B000AF7860F8
:100F9000214B40211800FFF7B1FF1F4B80211800A3
:100FA000FFF7ACFF80235B001B4A19001000FFF71E
:100FB000A5FF80239B00184A19001000FFF79EFF31
:100FC0007B68022B0ED002DC012B05D020E0032B26
:100FD0000ED0042B14D01BE00F4B40211800FFF75C
:100FE0007DFF15E00C4B80211800FFF777FF0FE025
:100FF00080235B00084A19001000FFF76FFF07E02D
:1010000080239B00044A19001000FFF767FFC046C9
:10101000C046BD4602B080BD0008004880B588B01B
:1010200000AF3A1D164B1000190010231A0000F0F3
:101030009FFC0023BB6101237B610123FB6116E060
:10104000FB691800FFF7A0FFFFF768FF0300BB6113
:10105000BB69002B08D0FB69013B9A00BB69D31820
:10106000013B3A1DD35C06E0FB690133FB61FB6980
:10107000042BE5DD00231800BD4608B080BDC04646
:10108000A41A000880B582B000AF3F4B01211800C0
:1010900000F0B0FA031E00D171E03B4B01211800B3
:1010A00000F0E8FA394B1B681C2B35D800237B6015
:1010B0002EE037497A6813005B009B189B00CB1821
:1010C00008331B881A00314B1B689A421DD83049DF
:1010D0007A6813005B009B189B00CB1804331B78C5
:1010E000002B12D02A497A6813005B009B189B00E2
:1010F000585827497A6813005B009B189B00CB184F
:1011000006331B88190000F08FF97B6801337B6080
:101110007B68072BCDDD2DE01C4B1B68BE2B29D136
:101120001A4B00221A6000237B6020E018497A687D
:1011300013005B009B189B00CB1804331B78002B1B
:1011400012D013497A6813005B009B189B00585813
:101150000F497A6813005B009B189B00CB1806337D
:101160001B88190000F050F97B6801337B607B68B5
:10117000072BDBDD054B1B685A1C044B1A60C0466D
:10118000BD4602B080BDC046002000403C040020A7
:101190008C04002080B582B000AF80235B00012169
:1011A0001800FFF7F1F9314B1800FFF79BF82F4BB0
:1011B0009B682F49180000F04FFB03001A002D4BCD
:1011C00053431421180000F047FB03001A002A4B78
:1011D0001A602A4B00221A81284B00225A80274B82
:1011E00000221A80254B00229A72234B1A68234B47
:1011F0005A60224B224A1900100000F039F9204BA6
:101200000121180000F036FA1D4B012201211800BF
:1012100000F0C6F91B4B13221A701A4B01229A7068
:10122000184B01225A70174B180000F0BFFA002328
:101230007B600CE014497A6813005B009B189B00EC
:10124000CB18043300221A707B6801337B607B6803
:10125000072BEFD90D4B00221A60094B0121180012
:1012600000F07EF9C046BD4602B080BDF00400200B
:1012700040420F0034080000EC04002080040020ED
:1012800000200040740400208C0400203C04002056
:1012900080B586B000AF7860396000237B610023A1
:1012A0003B610023FB6000237B6181E001227B69BD
:1012B0009A4013003B613B681B683A691340FB602E
:1012C000FA683B699A4270D13B681B79012B03D0C5
:1012D0003B681B79022B38D17B689B687A69520086
:1012E000032191400A00D2431A407B689A607B68D0
:1012F0009A683B685B7919007B695B0099400B0039
:101300001A437B689A607B689B889BB27A69120457
:10131000120C012191400A0092B2D24392B21340C2
:101320009AB27B689A807B689B889BB21AB23B68B2
:101330009B7919007B691B041B0C99400B001BB2A5
:1013400013431BB29AB27B689A807B681B687A69E8
:101350005200032191400A00D2431A407B681A6070
:101360007B681A683B681B7919007B695B009940B0
:101370000B001A437B681A607B68DB687A69120489
:10138000120C5200032191400A00D2431A407B689C
:10139000DA607B68DA683B68DB7919007B695B009F
:1013A00099400B001A437B68DA607B6901337B61EB
:1013B0007B690F2B00D879E7C046BD4606B080BDDB
:1013C00080B584B000AF78600A00BB1C1A800F2380
:1013D000FB1800221A707B681B8A9BB2BA1C128809
:1013E00013409BB2002B04D00F23FB1801221A706C
:1013F00003E00F23FB1800221A700F23FB181B7841
:101400001800BD4604B080BD80B582B000AF7860E2
:101410000A00BB1C1A80BB1C1A887B689A61C046F4
:10142000BD4602B080BDC04680B582B000AF7860D6
:101430000A00BB1C1A807B68BA1C12881A85C04639
:10144000BD4602B080BDC046ABBE01E00020704783
:10145000002A00D010600120704706980188034AD6
:10146000914202D1043006907047FEE7ABBE000007
:1014700080B584B000AF786039600E23FB1800227D
:101480001A800E23FB187A6812881A807B682D4A0E
:10149000934208D07A688023DB059A4203D07B68A8
:1014A000294A934210D10E23FB180E22BA18128833
:1014B00070218A431A803B6859880E23FB180E223C
:1014C000BA1812880A431A807B68204A934210D0C7
:1014D0000E23FB180E22BA1812881D490A401A80E2
:1014E0003B6819890E23FB180E22BA1812880A438A
:1014F0001A807B680E22BA1812881A803B685A68D4
:101500007B68DA623B681A887B681A857B680D4ABB
:1015100093420BD07B680F4A934207D07B680E4AF8
:10152000934203D07B680D4A934204D13B689B7A77
:101530009AB27B681A867B6801229A82C046BD46B1
:1015400004B080BD002C01400004004000100040A9
:10155000FFFCFFFF00400140004401400048014003
:1015600080B582B000AF78600A00FB1C1A70FB1CCB
:101570001B78002B08D07B681B889BB20122134389
:101580009AB27B681A8007E07B681B889BB20122B5
:1015900093439AB27B681A80C046BD4602B080BDB4
:1015A00080B582B000AF786008001100BB1C021C3F
:1015B0001A807B1C0A1C1A707B1C1B78002B09D01C
:1015C0007B689B899AB2BB1C1B8813439AB27B68C9
:1015D0009A810AE07B689B899BB2BA1C1288D2432D
:1015E00092B213409AB27B689A81C046BD4602B05F
:1015F00080BDC04680B584B000AF78600A00BB1CD7
:101600001A800F23FB1800221A700C23FB180022EB
:101610001A800A23FB1800221A807B681B8A9AB260
:101620000C23FB18B91C09880A401A807B689B8927
:101630009AB20A23FB18B91C09880A401A800C23A5
:10164000FB181B88002B09D00A23FB181B88002BD2
:1016500004D00F23FB1801221A7003E00F23FB189C
:1016600000221A700F23FB181B781800BD4604B027
:1016700080BDC04680B582B000AF78600A00BB1C58
:101680001A80BB1C1B88DB439AB27B681A82C04657
:10169000BD4602B080BDC04680B500AF1B4B1B4AA3
:1016A000126801210A431A60184B184A52681849F7
:1016B0000A405A60154B154A126816490A401A60CA
:1016C000124B124A126814490A401A600F4B0F4A13
:1016D000526812490A405A600C4B0C4AD26A0F21D8
:1016E0008A43DA62094B094A126B0D490A401A63B0
:1016F000064B064A526B01218A435A63034B002270
:101700009A6000F00FF8C046BD4680BD0010024050
:101710000CB8FFF8FFFFF6FEFFFFFBFFFFFFC0FF67
:10172000ACFEFFFF80B500AF1D4B11221A601D4BB0
:101730001C4A52685A601B4B1A4A52685A60194B2D
:10174000184A526818490A405A60164B154A52689E
:10175000A02189030A435A60124B124A1268802161
:1017600049040A431A60C0460E4B1A6880239B0442
:101770001340F9D00B4B0B4A526803218A435A603D
:10178000084B084A526802210A435A60C046054B7A
:101790005B680C221340082BF9D1C046BD4680BDC2
:1017A0000020024000100240FF7FC0FF80B584B0DF
:1017B00000AF78600023FB607B689B78002B39D0FA
:1017C000244A7B681B789B08DBB2C0339B009B5884
:1017D000FB607B681B781A0003231340DB00FF22A9
:1017E0009A401300DA43FB681340FB607B685B7828
:1017F0009B01FF221A407B681B78190003230B40D2
:10180000DB009A401300FA681343FB6011497B68C0
:101810001B789B08DBB2C0339B00FA685A500D4B13
:101820007A68127811001F220A40012191400A00B3
:101830001A600AE007497B681B781A001F231340CF
:1018400001229A40130080228B50C046BD4604B04E
:1018500080BDC04600E100E0002243088B4274D303
:1018600003098B425FD3030A8B4244D3030B8B42A1
:1018700028D3030C8B420DD3FF22090212BA030CAA
:101880008B4202D31212090265D0030B8B4219D38B
:1018900000E0090AC30B8B4201D3CB03C01A5241AB
:1018A000830B8B4201D38B03C01A5241430B8B42F3
:1018B00001D34B03C01A5241030B8B4201D30B03DC
:1018C000C01A5241C30A8B4201D3CB02C01A524103
:1018D000830A8B4201D38B02C01A5241430A8B42C6
:1018E00001D34B02C01A5241030A8B4201D30B02AF
:1018F000C01A5241CDD2C3098B4201D3CB01C01AC9
:10190000524183098B4201D38B01C01A52414309D2
:101910008B4201D34B01C01A524103098B4201D3C0
:101920000B01C01A5241C3088B4201D3CB00C01A2D
:10193000524183088B4201D38B00C01A52414308A5
:101940008B4201D34B00C01A5241411A00D20146CA
:10195000524110467047FFE701B5002000F006F83D
:1019600002BDC0460029F7D076E770477047C046F1
:1019700070B50F2A32D90C0004430B00A40731D1F3
:1019800015000400103D2D0901352D0149191E686F
:1019900026605E6866609E68A660DE681033E6605A
:1019A00010349942F3D10F2345191340032B1BD94F
:1019B0001C1F0023A4080134A400CE58EE500433A9
:1019C0009C42FAD103232D1909191A4005D000238E
:1019D000CC5CEC5401339A42FAD170BD0500002A68
:1019E000F5D1FAE70500F2E71A00F8E76B65795FD1
:1019F000636F6C202563200A0D0000008C0B00082B
:101A0000E40B0008E40B0008E40B0008E40B0008FA
:101A1000E40B0008E40B0008E40B0008E40B0008EA
:101A2000E40B0008E40B0008CA0B00081E0B0008BA
:101A3000E40B0008E40B0008E40B0008E40B0008CA
:101A40001E0B0008E40B0008E40B0008E40B000880
:101A5000E40B0008E40B0008E40B0008E40B0008AA
:101A6000E40B0008E40B0008B20B0008E40B0008CC
:101A7000420B0008E40B0008E40B0008660B0008AA
:101A8000737464696F2E633A20696E637265617363
:101A900065204D41585F535452494E475F53495A50
:101AA000450A0D0031323341343536423738394337
:041AB0002A30234471
:101AB40000000000010203040102030406070809F0
:101AC4000000000000000000010000000000000011
:101AD4000000000000000000000000000000000002
:101AE40000000000000000000000000000000000F2
:101AF40000000000000000000000000000000000E2
:101B040000000000000000000000000000000000D1
:101EE400000000000000000010000020BE00000000
:101EF400006CDC020000000000000000010203048A
:041F040006070809BB
:0400000508000000EF
:00000001FF
