:020000040800F2
:1000000000400020250B0008690B0008690B000860
:1000100000000000000000000000000000000000E0
:10002000000000000000000000000000690B000854
:100030000000000000000000690B0008A108000893
:10004000690B0008690B0008690B0008690B0008C0
:10005000690B0008690B0008690B0008690B0008B0
:10006000690B0008690B0008690B0008690B0008A0
:10007000690B0008690B0008690B0008690B000890
:10008000690B0008690B0008690B0008CD0C00081B
:10009000690B0008690B0008690B0008690B000870
:1000A000690B0008690B0008690B0008690B000860
:1000B000690B0008690B0008690B0008690B000850
:1000C0005FF808F180B500AF104B1A68FA23990069
:1000D000100001F01DFF03009BB2013B9AB20C4BD4
:1000E0001A800A4B1B680B49180001F011FF03002E
:1000F0009BB2013B9AB2084B1A80084B074AD2695F
:1001000010210A43DA61C046BD4680BD14000020BC
:100110000C09002040420F000E0900200010024090
:1001200080B582B000AF0200BB1D1A80144A154B87
:100130001B881385124BBA1D1288013ADA62104BE4
:1001400000225A620E4A0E4B1B889BB201210B43C0
:100150009BB2138000E0C046094B1B8A9BB21A0079
:1001600001231340F7D0064A054B1B8A9BB201219D
:100170008B439BB21382C046BD4602B080BDC046D1
:10018000001000400C09002080B582B000AF0200D2
:10019000BB1D1A80144A154B1B881385124BBA1DC0
:1001A0001288013ADA62104B00225A620E4A0E4B54
:1001B0001B889BB201210B439BB2138000E0C04619
:1001C000094B1B8A9BB21A0001231340F7D0064A41
:1001D000054B1B8A9BB201218B439BB21382C04605
:1001E000BD4602B080BDC046001000400E09002090
:1001F00080B500AF044B044A92698021C9020A43CA
:100200009A61C046BD4680BD0010024080B500AF77
:10021000084B084A5269802109030A435A61064B78
:10022000054A1268C02189000A431A60C046BD46CB
:1002300080BDC046001002400008004880B500AFF5
:100240000A4B0A4A9269802189000A439A61074B46
:10025000064A526B01210A435A63C046034B5B6B4B
:1002600002221340FAD0C046BD4680BD00100240B5
:1002700080B500AF0C4B9B680122134005D00A4BA0
:10028000094A926801218A439A60074B064A92689C
:10029000802109060A439A60C046034B9B68002BE5
:1002A000FBDBC046BD4680BD0024014080B500AFE9
:1002B000064B064A926801210A439A60034B1B6869
:1002C00001221340F4D0C046BD4680BD0024014049
:1002D00080B500AF034B8022D2019A62C046BD4672
:1002E00080BDC0460024014080B500AFFFF78EFFFF
:1002F000FFF7A4FFFFF7BCFFFFF7D8FFFFF7E8FF0A
:10030000C0461800BD4680BD80B584B000AF78609F
:100310000A00BB1C1A80FA23DB001800FFF700FF5D
:100320007B68524A93420CD1BB1C1A8880239B01E4
:100330009A4206D14E4BFB600A23FB1802221A8018
:1003400005E04A4BFB600A23FB184A4A1A800A233D
:10035000FB181A88FB681100180000F0BDF8BB1CE0
:100360001A887B681100180000F0D6F8FA23DB0029
:100370001800FFF7D5FE7B683C4A934219D1BB1C9D
:100380001A8880239B019A4213D1BB1C1A887B6870
:100390001100180000F0E0F803009AB2364B1A8002
:1003A000354B1B881A00354B1100180001F064FF13
:1003B00012E0BB1C1A887B681100180000F0CCF812
:1003C00003009AB22E4B1A802B4B1B881A002B4B22
:1003D0001100180001F050FF0A23FB181A88FB686F
:1003E0001100180000F088F8FA23DB001800FFF76E
:1003F00097FE7B681D4A934219D1BB1C1A88802343
:100400009B019A4213D1BB1C1A887B68110018000B
:1004100000F0A2F803009AB21A4B1A80194B1B88FD
:100420001A00194B1100180001F026FF12E0BB1C46
:100430001A887B681100180000F08EF803009AB249
:10044000124B1A80114B1B881A000F4B1100180019
:1004500001F012FFBB1C1A887B681100180000F025
:100460006BF8C046BD4604B080BDC04600080048D9
:10047000001400480080FFFF120900207CA500083E
:1004800010090020160900208CA50008140900207E
:1004900080B584B000AF78600A00BB1C1A80BB1C1A
:1004A0001A880823FB181A600823FB1801225A71C6
:1004B0000823FB1801221A710823FB1800229A71E5
:1004C0000823FA187B681100180000F087FCC0466A
:1004D000BD4604B080BDC04680B582B000AF786034
:1004E0000A00BB1C1A80BB1C1A887B689A61C04634
:1004F000BD4602B080BDC04680B582B000AF786016
:100500000A00BB1C1A807B68BA1C12881A85C04678
:10051000BD4602B080BDC04680B582B000AF7860F5
:100520000A00BB1C1A80BB1C1A887B689A61C046F3
:10053000BD4602B080BDC04680B582B000AF7860D5
:100540000A00BB1C1A807B68BA1C12881A85C04638
:10055000BD4602B080BDC04680B582B000AF7860B5
:100560000A00BB1C1A80094B084A926804210A43FE
:100570009A60C046054B1B6804221340FAD0034B17
:100580001B6C1800BD4602B080BDC046002401406F
:1005900080B588B000AF78600023FB610023BB61A9
:1005A00000237B6100233B610023FB608A4B5B6877
:1005B0000C221340FB61FB69042B0CD002D8002BEA
:1005C00005D03AE0082B0AD00C2B32D035E07B68FE
:1005D000824A1A6035E07B68804A1A6031E07E4BBF
:1005E0005A68F0239B031340BB617B4B5A68C023BE
:1005F0005B0213407B61BB699B0C0233BB617B696F
:10060000002B05D1BB69764A5A437B681A6018E013
:10061000714BDB6A0F22134001333B6139696F482C
:1006200001F076FC03001A00BB695A437B681A602C
:1006300007E07B686B4A1A6003E07B68674A1A60D0
:10064000C046654B5B68F0221340FB61FB691B09E8
:10065000FB61654AFB69D3181B78DBB2FB607B68E2
:100660001A68FB68DA407B685A605B4B5A68E02383
:10067000DB001340FB61FB691B0AFB615A4AFB6903
:10068000D3181B78DBB2FB607B685A68FB68DA40E2
:100690007B689A60504B1A6B80235B00134003D138
:1006A0007B68524ADA6010E04B4B5A688023DB01CA
:1006B000134005D17B689B685A087B68DA6004E0C8
:1006C0007B689B689A087B68DA60434B1B6B40220F
:1006D000134003D17B68464A1A6103E07B6880229D
:1006E00012021A613C4B1B6B1022134003D17B6832
:1006F0003A4A5A6103E07B681A687B685A61364B54
:100700001B6B0322134004D17B689A687B689A6153
:100710001EE0314B1B6B03221340012B04D17B687D
:100720001A687B689A6113E02B4B1B6B0322134002
:10073000022B04D17B68802212029A6108E0264BCA
:100740001B6B03221340032B02D17B68234A9A615F
:10075000214B1A6BC0239B02134004D17B689A681B
:100760007B68DA6127E01C4B1A6BC0239B021A409E
:1007700080235B029A4204D17B681A687B68DA6145
:1007800019E0154B1A6BC0239B021A4080239B0271
:100790009A4204D17B6880221202DA610BE00E4B90
:1007A0001A6BC0239B021A40C0239B029A4202D1BB
:1007B0007B680A4ADA61084B1B6B8022134003D125
:1007C0007B68084A1A6203E07B681A687B681A62D1
:1007D000C046BD4608B080BD0010024000127A003D
:1007E00000093D00006CDC0200000020809FD50065
:1007F0001280000080B582B000AF78600A00FB1C58
:100800001A70FB1C1B78002B06D0094B084A516953
:100810007A680A435A6106E0054B054A52697968CD
:10082000C9430A405A61C046BD4602B080BDC046B9
:100830000010024080B582B000AF78600A00FB1C57
:100840001A70FB1C1B78002B06D0094B084A9169D3
:100850007A680A439A6106E0054B054A926979680D
:10086000C9430A409A61C046BD4602B080BDC04639
:100870000010024080B582B000AF0200FB1D1A706C
:10088000064BFA1D127811001F220A4001219140E7
:100890000A001A60C046BD4602B080BD00E100E01B
:1008A00080B500AF034B1B685A1C024B1A60C04650
:1008B000BD4680BDCC08002080B58AB002AF0823B9
:1008C000FB18180000F0D0FC8023DB010121180088
:1008D000FFF7B0FF802399009023D80503230193ED
:1008E000012300930023012200F048FE80239B0295
:1008F00001211800FFF77EFF8023D9009023D8053F
:1009000003230193012300930023012200F036FE0C
:1009100080239B0201211800FFF76CFF0823FB18BE
:100920009622D2011A600823FB1800225A6008237D
:10093000FB1800229A600823FB180022DA600823C3
:10094000FB1800225A610823FB180C221A610823A5
:10095000FB18124A1900100000F0CCFB1B20FFF717
:1009600089FF3B1D1B221A703B1D01225A703B1D43
:1009700001229A703B1D180000F0F6FE0849074B53
:100980000122180000F0BCFC044B0121180000F00B
:1009900087FCC046BD4608B080BDC0460038014057
:1009A0000501050080B582B000AF504B00221A80CF
:1009B0004F4B00221A804F4B00221A804E4B0022D0
:1009C0001A804E4B1A68FA239900100001F0A0FA21
:1009D00003009AB24A4B1A80484B1B6849491800D9
:1009E00001F096FA03009AB2474B1A8000F03CFDE2
:1009F00080231B0301211800FFF7FCFE8023DB038B
:100A000001211800FFF7F6FE80239B020121180048
:100A1000FFF7F0FE01F008FA01F01AFAFFF752FBB7
:100A2000FFF7E6FBFFF760FCFFF74CFB02237B6060
:100A300080239B01354A19001000FFF729FD802310
:100A4000DB01324A19001000FFF722FD304B022172
:100A50001800FFF71DFD80231B022C4A190010000F
:100A6000FFF716FD80239B01284A19001000FFF7AD
:100A700053FD8023DB01254A19001000FFF74CFDD0
:100A800080239B01214A19001000FFF73DFC174B02
:100A90001B881900164B1B881A001E4B180001F00A
:100AA000EBFB8023DB01194A19001000FFF72CFC37
:100AB000104B1B881900104B1B881A00164B18008E
:100AC00001F0DAFB154B180001F0D6FBFFF7F4FE3E
:100AD00000F098F800233B60114B180001F016FC61
:100AE000FA239B001800FFF71BFBF5E71209002013
:100AF000160900201009002014090020140000200D
:100B00000C09002040420F000E0900200008004898
:100B100000140048ACA50008D0A50008F8A50008FE
:100B200010A60008002103E00A4B5B584350043133
:100B300009480A4B42189A42F6D3094A02E00023B8
:100B400013600432074B9A42F9D300F08DFCFFF793
:100B500029FF70471CAB000800000020CC080020D3
:100B6000CC080020B0090020FEE7000080B584B06A
:100B700000AF78600A00BB1C1A80BB1C1A880823CF
:100B8000FB181A600823FB1801225A710823FB186E
:100B900000221A710823FB1800229A710823FB18FF
:100BA0000222DA710823FA187B681100180000F09D
:100BB00015F9C046BD4604B080BDC04680B584B0BE
:100BC00000AF78600A00BB1C1A80BB1C1A8808237F
:100BD000FB181A600823FB1801225A710823FB181E
:100BE00001221A710823FB1800229A710823FA18AF
:100BF0007B681100180000F0F1F8C046BD4604B053
:100C000080BDC04680B582B000AFF0235B030121F8
:100C10001800FFF7EFFD80239B001C4A190010000D
:100C2000FFF7CCFF80235B00184A19001000FFF784
:100C3000C5FF164B80211800FFF7C0FF134B402162
:100C40001800FFF7BBFF80231A029023DB05110079
:100C50001800FFF78BFF80231B010C4A19001000BE
:100C6000FFF784FF8023DB00084A19001000FFF71C
:100C70007DFF80235A009023DB0511001800FFF749
:100C800075FFC046BD4602B080BDC04600080048A2
:100C900080B582B000AF78600A00FB1C1A70FB1CA4
:100CA0001B78002B06D07B681B6801221A437B68E7
:100CB0001A6006E07B681B68012293431A007B6878
:100CC0001A60C046BD4602B080BDC04680B582B045
:100CD00000AF3F4B0121180000F074FB031E00D150
:100CE00071E03B4B0121180000F0ACFB394B1B6855
:100CF0001C2B35D800237B602EE037497A6813001F
:100D00005B009B189B00CB1808331B881A00314BE3
:100D10001B689A421DD830497A6813005B009B1803
:100D20009B00CB1804331B78002B12D02A497A6819
:100D300013005B009B189B00585827497A681300E2
:100D40005B009B189B00CB1806331B88190000F032
:100D5000EDF87B6801337B607B68072BCDDD2DE0F0
:100D60001C4B1B68BE2B29D11A4B00221A60002392
:100D70007B6020E018497A6813005B009B189B0099
:100D8000CB1804331B78002B12D013497A68130058
:100D90005B009B189B0058580F497A6813005B0052
:100DA0009B189B00CB1806331B88190000F0AEF887
:100DB0007B6801337B607B68072BDBDD054B1B68A1
:100DC0005A1C044B1A60C046BD4602B080BDC046E6
:100DD00000200040100000202409002080B586B0CB
:100DE00000AF7860396000237B6100233B61002302
:100DF000FB6000237B6181E001227B699A40130044
:100E00003B613B681B683A691340FB60FA683B69C9
:100E10009A4270D13B681B79012B03D03B681B7948
:100E2000022B38D17B689B687A695200032191407C
:100E30000A00D2431A407B689A607B689A683B68D4
:100E40005B7919007B695B0099400B001A437B6852
:100E50009A607B689B889BB27A691204120C01210C
:100E600091400A0092B2D24392B213409AB27B6888
:100E70009A807B689B889BB21AB23B689B79190069
:100E80007B691B041B0C99400B001BB213431BB264
:100E90009AB27B689A807B681B687A69520003214A
:100EA00091400A00D2431A407B681A607B681A6836
:100EB0003B681B7919007B695B0099400B001A4362
:100EC0007B681A607B68DB687A691204120C520036
:100ED000032191400A00D2431A407B68DA607B68A4
:100EE000DA683B68DB7919007B695B0099400B008D
:100EF0001A437B68DA607B6901337B617B690F2B66
:100F000000D879E7C046BD4606B080BD80B582B046
:100F100000AF78600A00BB1C1A80BB1C1A887B6873
:100F20009A61C046BD4602B080BDC04680B582B061
:100F300000AF78600A00BB1C1A807B68BA1C12885C
:100F40001A85C046BD4602B080BDC04680B584B09B
:100F500000AF786008001100BB1C021C1A807B1CCB
:100F60000A1C1A700023FB600023BB607B1C1A78EC
:100F7000BB1C1B8807210B409B009A401300FB60A1
:100F8000BB1C1B88DB089BB21800BB1C1B88DB0842
:100F90009BB21A007B6808329200D358BA1C1288A0
:100FA00007210A4092000F2191400A00D2431A40C3
:100FB00011007B68020008329200D150BB1C1B88D4
:100FC000DB089BB21A007B6808329200D258FB689B
:100FD0001343BB60BB1C1B88DB089BB21A007B68F9
:100FE00008329200B968D150C046BD4604B080BDF9
:100FF00080B584B000AF78600A4B1B68002B02D12B
:10100000084B094A1A60074B1B68FB60054B1A68BE
:101010007B68D218034B1A60FB681800BD4604B009
:1010200080BDC046D4080020B009002080B582B041
:1010300000AF786001235B421800BD4602B080BD5E
:1010400080B582B000AF786039603B688022920141
:101050005A6000231800BD4602B080BD80B582B042
:1010600000AF786001231800BD4602B080BDC046C5
:1010700080B584B000AFF860B9607A6000231800D2
:10108000BD4604B080BDC04680B584B000AFF860F6
:10109000B9607A607B681800BD4604B080BDC04668
:1010A00080B586B000AFF860B9607A6000237B61DC
:1010B00014E0C0460E4B8021180000F065F9031EB5
:1010C000F8D0BB685A1CBA601B789BB2084A19005A
:1010D000100000F003F97B6901337B617A697B685A
:1010E0009A42E6DB7B681800BD4606B080BDC0466C
:1010F0000038014080B58EB000AF786039600023C1
:101100007B6300233B630023FB627B681B68012237
:1011100093431A007B681A607B685B68FB62FB6A1A
:101120004B4A1340FB623B689B68FA6A1343FB62BD
:101130007B68FA6A5A607B681B68FB62FB6A454AF7
:101140001340FB623B685A683B68DB681A433B68A4
:101150001B691343FA6A1343FB627B68FA6A1A60DD
:101160007B689B68FB62FB6A3B4A1340FB623B68FF
:101170005B69FA6A1343FB627B68FA6A9A60082328
:10118000FB181800FFF704FA7B68344A934204D135
:101190000823FB189B693B630CE07B68304A934251
:1011A00004D10823FB18DB693B6303E00823FB1829
:1011B0009B683B637B681A6880231B02134014D032
:1011C0003B6B5A003B681B681900100000F0A0FE42
:1011D00003007B633B6B5A003B681B6819001000DF
:1011E00000F01CFF0B00FB6210E03B681B6819005D
:1011F000386B00F08DFE03007B633B681A683B6B25
:101200001100180000F00AFF0B00FB623B681B682E
:101210005A08FB6A9A4202D87B6B01337B637B6876
:101220001A6880231B0213400AD07B6B5B080722DD
:101230001340FB627B6B0B4A1A40FB6A13437B63D0
:101240007B6B9AB27B689A81C046BD460EB080BD6A
:10125000FFCFFFFFF3E9FFFFFFFCFFFF0038014076
:1012600000440040F0FF000080B582B000AF78601D
:101270007B68962292011A607B6800225A607B6824
:1012800000229A607B680022DA607B680C221A6177
:101290007B6800225A61C046BD4602B080BDC04690
:1012A00080B582B000AF78600A00FB1C1A70FB1C8E
:1012B0001B78002B06D07B681B6801221A437B68D1
:1012C0001A6006E07B681B68012293431A007B6862
:1012D0001A60C046BD4602B080BDC04680B582B02F
:1012E00000AF78600A00BB1C1A80BB1C1B88DB05A2
:1012F000DB0D9AB27B681A85C046BD4602B080BD40
:1013000080B588B000AFF860B960FB1D1A7000238B
:10131000BB6100237B6100233B610023FB61FB6811
:10132000FB61BB681B121A00FF231340BB61BB6843
:10133000FF2213407B6101227B699A4013003B61CD
:10134000BB69022B03D1FB690433FB6105E0BB6978
:10135000032B02D1FB690833FB61FB1D1B78002BBB
:1013600006D0FB69FA6911683A690A431A6006E017
:10137000FB69FA6912683969C9430A401A60C046B4
:10138000BD4608B080BDC04680B584B000AF78606F
:1013900039600F23FB1800221A707B68DB693A68FA
:1013A000134004D00F23FB1801221A7003E00F230F
:1013B000FB1800221A700F23FB181B781800BD467B
:1013C00004B080BD80B584B000AF78600A00BB1C5B
:1013D0001A800F23FB1800221A700C23FB1800221E
:1013E0001A800A23FB1800221A807B681B8A9AB293
:1013F0000C23FB18B91C09880A401A807B689B895A
:101400009AB20A23FB18B91C09880A401A800C23D7
:10141000FB181B88002B09D00A23FB181B88002B04
:1014200004D00F23FB1801221A7003E00F23FB18CE
:1014300000221A700F23FB181B781800BD4604B059
:1014400080BDC04680B582B000AF78600A00BB1C8A
:101450001A80BB1C1B88DB439AB27B681A82C04689
:10146000BD4602B080BDC04680B500AF1B4B1B4AD5
:10147000126801210A431A60184B184A5268184929
:101480000A405A60154B154A126816490A401A60FC
:10149000124B124A126814490A401A600F4B0F4A45
:1014A000526812490A405A600C4B0C4AD26A0F210A
:1014B0008A43DA62094B094A126B0D490A401A63E2
:1014C000064B064A526B01218A435A63034B0022A2
:1014D0009A6000F00FF8C046BD4680BD0010024083
:1014E0000CB8FFF8FFFFF6FEFFFFFBFFFFFFC0FF9A
:1014F000ACFEFFFF80B500AF1D4B11221A601D4BE3
:101500001C4A52685A601B4B1A4A52685A60194B5F
:10151000184A526818490A405A60164B154A5268D0
:10152000A02189030A435A60124B124A1268802193
:1015300049040A431A60C0460E4B1A6880239B0474
:101540001340F9D00B4B0B4A526803218A435A606F
:10155000084B084A526802210A435A60C046054BAC
:101560005B680C221340082BF9D1C046BD4680BDF4
:101570000020024000100240FF7FC0FF80B588B00D
:1015800000AFF860B9601900FB1D1A70BB1D0A1C82
:101590001A700023FB61FA689023DB059A4206D19A
:1015A00080239B0201211800FFF724F935E0FB6836
:1015B000684A934206D18023DB0201211800FFF71D
:1015C00019F92AE0FB68644A934206D180231B0381
:1015D00001211800FFF70EF91FE0FB685F4A9342F4
:1015E00006D180235B0301211800FFF703F914E003
:1015F000FB685B4A934206D180239B0301211800BC
:10160000FFF7F8F809E0FB68564A934205D18023BA
:10161000DB0301211800FFF7EDF8BB68802B00D138
:1016200051E010D8082B42D006D8022B39D0042B19
:101630003AD0012B32D061E0202B3ED0402B3FD05E
:10164000102B37D05AE080221201934247D08022DB
:10165000120193420CD880229200934239D080220A
:10166000D200934238D08022520093422ED045E0DF
:1016700080229201934238D080229201934204D872
:101680008022520193422DD038E08022D201934231
:101690002ED08022120293422DD02FE00023FB6136
:1016A0002CE00123FB6129E00223FB6126E00323F8
:1016B000FB6123E00423FB6120E00523FB611DE0C7
:1016C0000623FB611AE00723FB6117E00823FB6197
:1016D00014E00923FB6111E00A23FB610EE00B23F8
:1016E000FB610BE00C23FB6108E00D23FB6105E0CF
:1016F0000E23FB6102E00F23FB61C046FB6999B238
:10170000FB1D1A78FB681800FFF720FC1423FB1858
:10171000BA681A601423FB1802221A711423FB18EA
:10172000BA1D12789A711423FB182822BA1812785D
:10173000DA711423FB182C22BA1812785A71142368
:10174000FA18FB6811001800FFF748FBC046BD46B9
:1017500008B080BD0004004800080048000C0048A4
:10176000001000480014004880B584B000AF7860D5
:101770000023FB607B689B78002B39D0244A7B6870
:101780001B789B08DBB2C0339B009B58FB607B68D7
:101790001B781A0003231340DB00FF229A4013003A
:1017A000DA43FB681340FB607B685B789B01FF2298
:1017B0001A407B681B78190003230B40DB009A401A
:1017C0001300FA681343FB6011497B681B789B0880
:1017D000DBB2C0339B00FA685A500D4B7A6812781E
:1017E00011001F220A40012191400A001A600AE0FC
:1017F00007497B681B781A001F23134001229A4077
:10180000130080228B50C046BD4604B080BDC04648
:1018100000E100E080B582B000AF8023DB0201214F
:101820001800FEF7E7FF3B00C0221A603B000222CF
:101830001A713B0003225A713B000122DA713B000E
:1018400001229A713B00094A19001000FFF7C6FAFD
:10185000064B064A126A1202120A882149050A43F7
:101860001A62C046BD4602B080BDC04600040048B2
:1018700080B500AF114B114AD269802189030A4318
:10188000DA610F4B0E4A126801218A431A600C4B31
:101890000C4A1A610A4B0A4A126801210A431A606B
:1018A000074B074A526808490A435A60044B012112
:1018B0001800FFF7EDF9C046BD4680BD001002409C
:1018C00000540040FFD3E0004E00010280B584B018
:1018D00000AF78600F23FB1801221A700BE00F2372
:1018E000FB181B78180000F0A9F90520FEF718FC7A
:1018F0007B6801337B600F23FB187A6812781A70BB
:101900000F23FB181B78002BE9D1C046BD4604B05D
:1019100080BDC04680B500AF002000F0BBF8FA23C0
:101920005B001800FEF7FCFB00F050F8382000F0D8
:10193000B1F8082000F0AEF8022000F0ABF8082063
:1019400000F0A8F8012000F0A5F80720FEF7E8FB5A
:10195000062000F09FF80C2000F09CF8C046BD4621
:1019600080BDC04680B582B000AF0200FB1D1A707A
:10197000C046144B9A6980231B021340F9D1C0461C
:10198000114B9B6901221340FAD00F4BFA1D1278BC
:101990009A620D4B0C4A5268802189010A435A60B1
:1019A000C046094B9B6901221340FAD0C046054B43
:1019B0009A6980231B021340F9D1C046BD4602B08C
:1019C00080BDC046005800400054004080B500AFC4
:1019D0000720FFF7C7FF6420FEF7D6FB2C4B1B78D0
:1019E000DB005BB2082213405BB2032213435BB2FD
:1019F000DBB21800FFF7B6FF0520FEF791FB0720CA
:101A0000FFF7B0FF6420FEF7BFFB214B1B78DB0024
:101A10005BB2082213405BB2032213435BB2DBB21A
:101A20001800FFF79FFF6420FEF7AEFB0720FFF7CB
:101A300099FF6420FEF7A8FB154B1B78DB005BB217
:101A4000082213405BB2032213435BB2DBB21800DF
:101A5000FFF788FF6420FEF797FB0620FFF782FF61
:101A60006420FEF791FB0A4B1B78DB005BB2082277
:101A700013405BB2022213435BB2DBB21800FFF7E4
:101A800071FF6420FEF780FBC046BD4680BDC046A6
:101A90002800002080B584B000AF0200FB1D1A7042
:101AA0000F23FB1800221A70634B1B78DB005BB21C
:101AB000082213405AB20F23FB181B785BB2134362
:101AC0005AB20F23FB181A70FB1D1B785BB2102251
:101AD00013405AB20F23FB181B785BB213435AB260
:101AE0000F23FB181A70FB1D1B785BB220221340DA
:101AF0005AB20F23FB181B785BB213435AB20F2361
:101B0000FB181A70FB1D1B785BB2402213405AB2BF
:101B10000F23FB181B785BB213435AB20F23FB1839
:101B20001A70FB1D1B78DB09DBB2DB015AB20F23F5
:101B3000FB181B785BB213435AB20F23FB181A70C1
:101B40000020FFF70FFF0F23FB181B78042213431D
:101B5000DBB21800FFF706FF0F23FB181B781800F5
:101B6000FFF700FF0F23FB1800221A70324B1B787F
:101B7000DB005BB2082213405AB20F23FB181B781C
:101B80005BB213435AB20F23FB181A70FB1D1B786C
:101B90001B015BB2102213405AB20F23FB181B78B3
:101BA0005BB213435AB20F23FB181A70FB1D1B784C
:101BB0005B105B015BB2202213405AB20F23FB186B
:101BC0001B785BB213435AB20F23FB181A70FB1D2C
:101BD0001B789B109B015BB2402213405AB20F232B
:101BE000FB181B785BB213435AB20F23FB181A7011
:101BF000FB1D1B78DB10DB015AB20F23FB181B788F
:101C00005BB213435AB20F23FB181A700020FFF780
:101C1000A9FE0F23FB181B7804221343DBB2180024
:101C2000FFF7A0FE0F23FB181B781800FFF79AFEA2
:101C3000C046BD4604B080BD2800002080B584B0F9
:101C400000AF0200FB1D1A700F23FB1800221A7050
:101C50000F23FB180F22BA18127801210A431A70B9
:101C6000704B1B78DB005BB2082213405AB20F2383
:101C7000FB181B785BB213435AB20F23FB181A7080
:101C8000FB1D1B785BB2102213405AB20F23FB18C6
:101C90001B785BB213435AB20F23FB181A70FB1D5B
:101CA0001B785BB2202213405AB20F23FB181B781B
:101CB0005BB213435AB20F23FB181A70FB1D1B783B
:101CC0005BB2402213405AB20F23FB181B785BB261
:101CD00013435AB20F23FB181A70FB1D1B78DB0944
:101CE000DBB2DB015AB20F23FB181B785BB2134344
:101CF0005AB20F23FB181A704A4B1B78DB00DBB279
:101D000008221340DBB21800FFF72CFE0F23FB184C
:101D10001B7804221343DBB21800FFF723FE0F23C6
:101D2000FB181B781800FFF71DFE0F23FB1800227D
:101D30001A700F23FB180F22BA18127801210A43D8
:101D40001A70384B1B78DB005BB2082213405AB282
:101D50000F23FB181B785BB213435AB20F23FB18F7
:101D60001A70FB1D1B781B015BB2102213405AB284
:101D70000F23FB181B785BB213435AB20F23FB18D7
:101D80001A70FB1D1B785B105B015BB220221340B5
:101D90005AB20F23FB181B785BB213435AB20F23BE
:101DA000FB181A70FB1D1B789B109B015BB2402235
:101DB00013405AB20F23FB181B785BB213435AB27D
:101DC0000F23FB181A70FB1D1B78DB10DB015AB2C6
:101DD0000F23FB181B785BB213435AB20F23FB1877
:101DE0001A70104B1B78DB00DBB208221340DBB209
:101DF0001800FFF7B7FD0F23FB181B7804221343CD
:101E0000DBB21800FFF7AEFD0F23FB181B7818009C
:101E1000FFF7A8FD6420FEF7B7F9C046BD4604B041
:101E200080BDC0462800002080B500AFFFF7F2FC5F
:101E3000FFF71EFDFEF746F9FEF7DAF96420FEF71C
:101E40006FF9FFF767FDC0461800BD4680BDC0466C
:101E500090B589B000AF1C23FB18294A1A601823DB
:101E6000FB18284A1A60C020FFF714FE1823FA183E
:101E70003B1D1100180000F053FA3B1D1800FFF73E
:101E800025FD8020FFF706FE1C23FA183B1D1100DC
:101E9000180000F045FA3B1D1800FFF717FDFA2364
:101EA0009B001800FEF73CF90120FFF7F3FD8020AE
:101EB000FFF7F0FD3B1D144A1A603B1D1800FFF7A9
:101EC00005FD3B1D104A1A603B1D1800FFF7FEFC84
:101ED000FA239B001800FEF723F90120FFF7DAFD33
:101EE000C020FFF7D7FD3B1D084A13CA13C33B1D93
:101EF0001800FFF7EBFCC046BD4609B090BDC046D8
:101F0000545741004141410041424F0018A600088A
:101F1000002243088B4274D303098B425FD3030A28
:101F20008B4244D3030B8B4228D3030C8B420DD33B
:101F3000FF22090212BA030C8B4202D312120902C9
:101F400065D0030B8B4219D300E0090AC30B8B4207
:101F500001D3CB03C01A5241830B8B4201D38B03B5
:101F6000C01A5241430B8B4201D34B03C01A52415A
:101F7000030B8B4201D30B03C01A5241C30A8B429D
:101F800001D3CB02C01A5241830A8B4201D38B0288
:101F9000C01A5241430A8B4201D34B02C01A52412C
:101FA000030A8B4201D30B02C01A5241CDD2C3099E
:101FB0008B4201D3CB01C01A524183098B4201D31A
:101FC0008B01C01A524143098B4201D34B01C01A05
:101FD000524103098B4201D30B01C01A5241C3087D
:101FE0008B4201D3CB00C01A524183088B4201D3EC
:101FF0008B00C01A524143088B4201D34B00C01AD8
:102000005241411A00D20146524110467047FFE743
:1020100001B5002000F0F0F802BDC0460029F7D05D
:1020200076E7704703460B437FD4002243088B4278
:1020300074D303098B425FD3030A8B4244D3030B4F
:102040008B4228D3030C8B420DD3FF22090212BA14
:10205000030C8B4202D31212090265D0030B8B4290
:1020600019D300E0090AC30B8B4201D3CB03C01A7A
:102070005241830B8B4201D38B03C01A5241430B55
:102080008B4201D34B03C01A5241030B8B4201D345
:102090000B03C01A5241C30A8B4201D3CB02C01AB0
:1020A0005241830A8B4201D38B02C01A5241430A28
:1020B0008B4201D34B02C01A5241030A8B4201D317
:1020C0000B02C01A5241CDD2C3098B4201D3CB01BE
:1020D000C01A524183098B4201D38B01C01A52416D
:1020E00043098B4201D34B01C01A524103098B4271
:1020F00001D30B01C01A5241C3088B4201D3CB005C
:10210000C01A524183088B4201D38B00C01A52413E
:1021100043088B4201D34B00C01A5241411A00D2EE
:1021200001465241104670475DE0CA0F00D0494257
:10213000031000D34042534000229C4603098B42C7
:102140002DD3030A8B4212D3FC22890112BA030A4F
:102150008B420CD3890192118B4208D389019211D1
:102160008B4204D389013AD0921100E08909C30956
:102170008B4201D3CB01C01A524183098B4201D358
:102180008B01C01A524143098B4201D34B01C01A43
:10219000524103098B4201D30B01C01A5241C308BB
:1021A0008B4201D3CB00C01A524183088B4201D32A
:1021B0008B00C01A5241D9D243088B4201D34B0045
:1021C000C01A5241411A00D20146634652415B1087
:1021D000104601D34042002B00D549427047634668
:1021E0005B1000D3404201B5002000F005F802BDAD
:1021F0000029F8D016E770477047C04670B50F2A1F
:1022000032D90C0004430B00A40731D1150004009F
:10221000103D2D0901352D0149191E6826605E68A3
:1022200066609E68A660DE681033E66010349942EE
:10223000F3D10F2345191340032B1BD91C1F002377
:10224000A4080134A400CE58EE5004339C42FAD1C5
:1022500003232D1909191A4005D00023CC5CEC5436
:1022600001339A42FAD170BD0500002AF5D1FAE790
:102270000500F2E71A00F8E70FB400B5064983B08D
:1022800004AB086804CB8168019301F0AFFC03B094
:1022900008BC04B01847C0465804002030B50500FB
:1022A00089B008000C0000F05DF804AB154A0193FA
:1022B0000223069201220293AB6B05900130049435
:1022C00007920390AC68002B17D00C22A35E8022EB
:1022D0009201134205D11343A381626E0A4B13404E
:1022E000636601AA2100280004F006FC431E984101
:1022F0000A234042184309B030BD280004F0BEFA5A
:10230000E3E7C04624A60008FFDFFFFF10B5034B3C
:1023100001001868FFF7C2FF10BDC0465804002036
:102320000EB410B59DB002A9029008610B4882243A
:1023300088604861012040421FABC881084804CB37
:10234000A400006801938C8100F040F80023029AF9
:1023500013701DB010BC08BC03B01847FFFFFF7F0F
:102360005804002010B5830727D00378002B26D00F
:102370000300032102E01A78002A1CD001330B422B
:10238000F9D119680F4A104C8A188A4322420FD19A
:10239000043319680B4A8A188A43224208D104334D
:1023A0001968084A8A188A432242F1D000E00133B2
:1023B0001A78002AFBD1181A10BD0300E1E70020AB
:1023C000FAE7C046FFFEFEFE80808080F0B55F46E3
:1023D000444656464D46F0B4C3B00C0011930791E5
:1023E0009346099004F046FD00681990FFF7BAFF84
:1023F0001890A3891B0605D523690893002B01D1EA
:1024000001F06CF932AB2593002325AFBB607B60F4
:1024100014931693179332AE1A930C935B461B7862
:102420005C46002B1CD0252B02D119E0252B03D0B4
:1024300001342378002BF9D15B46E51A10D05B46B6
:102440003360BB6875605B19BB607B6801337B6080
:10245000072B61DC08360C9B9C46AC4463460C930E
:102460002378002B61D0012040420B900020631C98
:102470009B4600230D90089010308146303016AAFC
:1024800084464030D3770021002282465D4663783F
:1024900001351C00203C582C00D9ABE3D448A400E3
:1024A0000459A7460D9B11945B420D930423089891
:1024B000184308902B78EBE73024119B1EAA147068
:1024C000181D48341B685470AB460022089D0E93BB
:1024D0000023290016ACE2770B9A0F9302331943BD
:1024E000002A00DA96E3802295432A001A430E9BC5
:1024F00008921190002B00D076E37833BD491393F6
:102500000B9B9846002B00D10CE300239846002437
:1025100000230E930F946BE23A000799099805F097
:102520003BFE002809D132AE95E7BB68002B04D0F2
:102530003A000799099805F02FFE079B0C989B8994
:102540005B0601D501F05EF943B03CBC904699466C
:10255000A246AB46F0BD1393AB46002A01D001F072
:1025600010FB202308990B4000D1A8E10722119B02
:1025700007339343013294469C4462465C681B686F
:1025800025001C000023119216AAD3770B9B0E94F2
:102590000F95002B01DA00F0B9FF802399430891D1
:1025A0002100294300D1A6E1002398460722B44622
:1025B00032AB92461C000E9A0F9B5807D608514624
:1025C000DD0830432B0005001140013C3031217003
:1025D00002001D43F1D10E920F93089A12946646A1
:1025E000D20700D41EE2302901D101F0CDF830230A
:1025F000129D013D2B7032AB5B1B10931295109A0C
:1026000013000B9A934200DA13000A9300231593E8
:102610004346002B02D00A9B01330A930223089AF7
:102620001A40924602D00A9B02330A938423089AE6
:102630001A40914600D0FCE20D9B0A9A9C1A002C8D
:1026400000DCF6E26C49BA687B688846102C1FDD16
:1026500031001025464603E0103C0831102C15DDF2
:10266000103201330E604D60BA607B60072BF3DDE2
:102670003A000799099805F08FFD002800D05CE723
:10268000103CBA687B6832A9102CE9DCB0460E0019
:10269000414674600133A4183160BC607B60072B35
:1026A00001DD00F05BFD16ABDB7F08369846C1E22A
:1026B0006B1C98462B782A2B01D101F04BFA302065
:1026C000404283469B44584600244546092801D988
:1026D00001F0DCF990465A46A30001351C196B1E27
:1026E0001B786400A4181A00303A092AF4D942462B
:1026F000A846002C01DA01F08FF80B944546C8E695
:102700005046089B034308932B78C1E6302464426B
:10271000A34600209B44904603005A469C00E318C1
:102720005B000135D3186A1E14782200303A092A5A
:10273000F4D90D9342462300ABE61393AB46002A2F
:1027400001D001F012FA1023089A1A430892089B4C
:102750009B0601D400F049FD0723119A07329A43E2
:1027600001339C46944463461193536812680F9357
:102770000E92002B01DA00F047FD16ABDB7F984686
:102780000B9B002B01DA00F065FD8023089A9A4329
:1027900008920E9A0F9B1100194301D100F053FCCF
:1027A0000F9B002B01D101F031F80E9C0F9D32AB35
:1027B000B1461E00200029000A22002305F0E6FF92
:1027C000013E303232700023200029000A2205F039
:1027D000DDFF030004000D000B43EBD1320032ABF0
:1027E0009B1A12960E940F954E46109307E7C0461B
:1027F00028A60008C0A700088CA700081393AB46C2
:10280000002A01D001F0DDF90722119B0733934321
:10281000013294469C44624611921A681692012233
:102820005B68169D1793179B52425C006408E44B4B
:102830002800210007F0A8FD002801D000F0CDFD00
:102840000122DF4B52422800210005F081FF0028C1
:1028500001D000F0C2FD002200231698179905F060
:102860006DFF002801D001F0AAF816ABDB7F984677
:10287000139B472B01DD00F02DFFD24B12938023D9
:10288000089A9A4308927D3B0A93109300230B9376
:102890001593BDE60820089B034308932B78F7E5C2
:1028A0001393AB46002A01D001F093F91023089A44
:1028B0001A432023089208990B4000D056E61022B4
:1028C00008990A4001D100F02CFE1198020000681E
:1028D00004320E9000200F9016A8C3770B9B002B9C
:1028E00001DA00F012FE802399430E9B08911192A9
:1028F000002B00D058E60B9B002B01D101F092F881
:1029000000239846002300240E930F944EE6139361
:10291000AB46002A01D001F058F91023089A1A4357
:102920000892202308990B4000D171E30722119BE4
:1029300007339343013294469C4462465C681B68AB
:1029400025001C000023119216AAD3770B9B0E942E
:102950000F95002B01DA00F07BFC8023994308914E
:10296000210029430B1E00D16CE30023984617E792
:102970001393AB46002A01D001F01FF9089B92493E
:102980009B0600D4A5E00722119B07339343013235
:1029900094469C4462465C681B680E930F94012326
:1029A0001192089A134000D1A7E00E9A0F9B1000D5
:1029B000184301D100F008FE30221EAB1A704C20E3
:1029C0006A4612181278089C5A70002202232000CE
:1029D00016ADEA770B9A1843002A01DA00F0EAFFF5
:1029E00080222000904302001A4300239846089258
:1029F0000F208C46B14632AB1C000E9A0F9B010093
:102A000065461140695C013C1E07217011091D09D2
:102A10000E432B00350032001D43F0D14E460E927E
:102A20000F93129432AB1B1B1093E8E5119B1C1DF6
:102A30001B680D93002B00DA34E52B78119427E501
:102A40002B7801222B2123E52020089B03430893A8
:102A50002B781DE51393119B16A91C1D1B68AB4613
:102A60001A0012930023CB77002A01D100F065FFF2
:102A70000B9B002B01DA00F08DFE1A00002112984A
:102A800004F01AFD002801D100F0C0FF129BC31A08
:102A90001A001093DB43DB171A40002316A9C97FE5
:102AA0000A92884611940B931593B1E51393AB46A4
:102AB000002A00D135E716ABD97732E71393AB463E
:102AC000002A01D001F06AF84049089B9B0600D516
:102AD00059E7089BDB0600D5D3E3089B5B0600D4CF
:102AE000CFE3119B1A8804330E92002211930F92A8
:102AF0000123089A134000D057E716A8C3770B9B11
:102B0000002B01DA00F079FD80239A4308920E9A97
:102B10000F9B1000184300D088E00B9B9846002BB9
:102B200000D0F2E400230B93109332AB129366E5CE
:102B30002B786C2B01D100F0B8FD4C46089820434F
:102B40000890A5E4AB46002A01D001F023F8089BC9
:102B50009B0601D400F01FFD11990C9A0B681A60B6
:102B6000D2175A600B000433119357E41393AB460A
:102B7000002A00D1EBE516ABD977E8E5119A13935B
:102B8000136828210A936B465B181B78AB4628AD67
:102B90002B70002316A9CB77130004331193002365
:102BA000984601330A931093002312950B931593C3
:102BB00034E52B78002900D06AE40122203167E453
:102BC000FFFFEF7F9CA70008ACA70008C0A7000884
:102BD00001230898184308902B7859E46046089B15
:102BE000034308932B7853E4002398467833D04965
:102BF0001393FDE61393AB46002A01D000F0D3FFF8
:102C0000139B002B00D190E428AD2B70002316AA53
:102C1000D377C5E778230891C54913930E9A0F9B84
:102C200014001C43231E119000D16FE4002398462A
:102C3000DEE6BC684346002B0FD016AA1F2394463D
:102C400063443360012373607B6801340133BC60EB
:102C50007B60072B00DD19E208365346002B0CD0B1
:102C60001EAB3360022373607B6802340133BC60A7
:102C70007B60072B00DD15E208364B46802B00D128
:102C80005EE10B9B109A9D1A002D36DDA94A7B68E8
:102C90009146102D26DD102221009246099C32001B
:102CA0002E004D4603E0103E0832102E16DD504631
:102CB0001031013315605060B9607B60072BF2DD85
:102CC0003A000799200005F067FA002800D034E4A4
:102CD000103EB9687B6832AA102EE8DCA9460C00C9
:102CE000350016004A466419013332607560BC60D5
:102CF0007B60072B00DDBDE10836089BDB0500D5B6
:102D0000B8E0129B3360109B9C4673607B68644400
:102D10000133BC607B60072B00DD9FE00836089B19
:102D20005B0743D50D9B0A9A9D1A002D3EDD824A12
:102D30007B689046102D27DD102221009146099CCA
:102D400032002E00454603E0103E0832102E17DDFB
:102D500048461031013315605060B9607B60072B25
:102D6000F2DD3A000799200005F016FA002801D09C
:102D7000FFF7E3FB103EB9687B6832AA102EE7DC50
:102D8000A8460C003500160042466419013324C6DB
:102D9000BC607B60072B09DD3A000799099805F0B4
:102DA000FBF9002801D0FFF7C8FBBC680D9B0A9A0D
:102DB000934200DA13000C9A94469C4463460C93A9
:102DC000002C00D01AE1002332AE7B60FFF726FB17
:102DD000149B012B00DCF2E0129B013433600123D1
:102DE00073607B68BC6001337B60072B00DDC5E24C
:102DF0000836199A01333260189A9846944664440A
:102E00007260BC607B60072B00DDC4E208360022E4
:102E100000231698179905F08BFC002800D0ACE130
:102E2000129D149B0135013B35607360E41801234A
:102E30009C46E0444346BC607B60072B00DDCFE04E
:102E4000083621AB33601A9B9C467360434664444A
:102E50000133BC607B60072B00DC5FE73A00079919
:102E6000099805F099F9002801D0FFF766FBBC68C6
:102E700032AE54E7139B652BAADD0022002316987F
:102E8000179905F055FC002800D117E12B4B0134B0
:102E90003360012373607B68BC6001337B60072B68
:102EA00000DD9EE308361F9B149A934203DB089BC8
:102EB000DB0700D433E7199B3360189B9C46736093
:102EC0007B6864440133BC607B60072B01DD00F04C
:102ED000F4FB0836149B5D1E002D00DC1FE7154A2D
:102EE0007B689146102D00DCC0E110222100904645
:102EF000099C32002E004D4604E00832103E102E90
:102F000000DCAFE140461031013315605060B9601C
:102F10007B60072BF1DD3A000799200005F03CF9B2
:102F2000002801D0FFF709FBB9687B6832AAE5E702
:102F3000C0A70008E0A700088CA70008DCA70008CD
:102F40000D9B0A9A9D1A002D00DC9AE6D14A7B68F7
:102F50009146102D27DD102221009246099C320057
:102F60002E004D4603E0103E0832102E17DD50466D
:102F70001031013315605060B9607B60072BF2DDC2
:102F80003A000799200005F007F9002801D0FFF763
:102F9000D4FA103EB9687B6832AA102EE7DCA94645
:102FA0000C00350016004A46641901333260756022
:102FB000BC607B60072B00DDFBE1083661E6012386
:102FC000089A134200D007E773607B68129A0133B6
:102FD00001343260BC6098467B60072B00DC2FE731
:102FE0003A000799099805F0D7F8002801D0FFF7B3
:102FF000A4FA7B68BC68984632AE22E73A0007998B
:10300000099805F0C9F8002800D1DCE6FFF795FA29
:10301000102208990A4000D19FE21198020000682E
:1030200004320E9000200F9016A8C3770B9B002B44
:1030300000DA0CE1802399430E9B08911192002B3A
:1030400000D092E498460B9B002B00D16AE5002348
:1030500000240E930F9427220E9B28A930338B5403
:1030600016AB9C466F2532AB65445B1B10931295E3
:10307000FFF7C5FA3A000799099805F08DF800287E
:1030800001D0FFF75AFABC6832AE36E63A0007992B
:10309000099805F081F8002801D0FFF74EFABC68C6
:1030A00032AEDAE53A000799099805F075F800287C
:1030B00001D0FFF742FABC6832AEDEE51F98002867
:1030C00000DC9DE2159A1499130091468B4200DDB5
:1030D00089464B46002B0CDD129B4C4433604B461B
:1030E00073607B68BC6001337B60072B00DD97E376
:1030F00008364B46DB434A46DB171340159AD31A72
:103100009846002B00DCD7E0102B01DC00F006FD18
:10311000604A2100914610227B689246099D320048
:103120004C46464604E00832103E102E00DCB3E068
:1031300050461031013314605060B9607B60072B3A
:10314000F1DD3A000799280005F026F8002801D0A3
:10315000FFF7F3F9B9687B6832AAE5E73A00079907
:10316000099805F019F8002801D0FFF7E6F916AB29
:10317000DB7FBC68984632AE5CE5149B5D1E002D7B
:1031800000DC5EE6434B9946102D29DD102332000A
:103190009A462E0021004346099C4D4603E0103E0E
:1031A0000832102E17DD5046103101331560506083
:1031B000B9607B60072BF2DD3A000799200004F02C
:1031C000EBFF002801D0FFF7B8F9103EB9687B6823
:1031D00032AA102EE7DCA9460C00350098461600EE
:1031E0004B4675603360641921E6089BDB0600D40A
:1031F000EBE0119A13680A930E930432DB170F93D6
:10320000119201D4FFF7B9FA0E990F9A00244B429C
:1032100094410E930F942D2316AAD3770B9B002B6A
:1032200000DAACE38023089A9A43533B089298460D
:10323000FFF7B6FA11990A00096804320E910021CD
:103240000F9116A9CB770B9B002B00DB2AE2119282
:10325000002398460E9A0F9B1100194301D0FFF7E7
:103260009FFAF4E6A9460C00350016004A46641998
:10327000013332607560BC607B60072B00DC4DE57C
:10328000ECE5119B1A6804330E92002211930F9201
:103290002EE4C046E0A70008B046A14616000C0088
:1032A0004A4632604246444401337260BC607B60EF
:1032B000072B00DD35E30836129A159B94466344CC
:1032C0009846149A1F9B934249DB089AD20746D42A
:1032D000129A149915008C4642466544CB1AAD1AD1
:1032E0009D4200DD1D00002D0BDD424632607A68F4
:1032F000641901327560BC607A60072A00DD2FE333
:103300000836EA43D21715405D1B002D00DC06E5A8
:10331000D34A7B689146102DA8DD102221009046EB
:10332000099C32002E004D4603E00832103E102E5C
:1033300098DD40461031013315605060B9607B6004
:10334000072BF2DD3A000799200004F025FF002842
:1033500001D0FFF7F2F8B9687B6832AAE6E7199A5C
:103360003260189A944672607A6864440132BC6094
:103370007A60072A00DDC7E20836A9E73A00079914
:10338000099804F009FF002801D0FFF7D6F8BC68BF
:103390007B6832AE2DE53A000799099804F0FCFEEF
:1033A000002801D0FFF7C9F87B68BC68984632AEA8
:1033B0002DE53A000799099804F0EEFE002801D0A7
:1033C000FFF7BBF8BC6832AE5BE4089B119A5B0662
:1033D00000D40FE70021535E0EE7169D179C2A00CC
:1033E00023002800210006F0CFFF002800D06EE364
:1033F0000B9B013300D1E8E22023139D9D43472D11
:1034000000D1A6E18023089A5B001A43179B1B9208
:10341000002B00DAEFE2169A9846002391460A93B1
:10342000139C662C00D1AEE2462C00D172E12B0039
:10343000453B594259410B9B4A469A4623AB04935C
:1034400020AB8A4403931FAB02935346019302239C
:1034500009980093434602F029F91290672C00D096
:10346000F0E2129B53441C00089BDB0700D426E3C8
:10347000002300224846414605F05AF9230000285F
:1034800009D1239B9C4206D930215A1C23921970E2
:10349000239B9C42F9D8129A9B1A1493472D00D172
:1034A000A8E1139B652B00DCDEE2139B662B00D1A9
:1034B000E0E21F9B1593159A14998A4200DA8AE27A
:1034C000089BDB0700D5F3E2D343DB1713401092D0
:1034D000672213920A9A002A00D07FE10A931B9B6D
:1034E00016AA08930023D27F0B939046FFF790F81B
:1034F00011990A00096804320E9100210F9116A952
:10350000CB770B9B002B00DBC8E011920023984681
:103510000E9A0F9B1100194301D0FFF747F8FFF7F0
:10352000F1F9402308990B40E2D01198030000887C
:1035300004330E9000200F9016A8C2770B9A002A31
:1035400000DA11E1802291430E9A08911193002A2A
:1035500001D0FFF729F8FFF7CEF9402308990B4077
:1035600000D167E611980300008804330E90002014
:103570000F9016A8C2770B9A002A00DAF0E080229A
:103580001193002391430E9A08919846002A01D086
:10359000FFF706F957E5089BDB060CD4089B5B0692
:1035A00009D56946119B098E1A6804330892118067
:1035B0001193FEF733FF119A0C99136819601300E9
:1035C00004331193FEF72AFF0B9B16AAD077002B2A
:1035D00001DAFEF79AFF8023089A9A430892FEF7D1
:1035E0008FFF3A000799099804F0D6FD002801D012
:1035F000FEF7A3FFBC6832AE55E41198FFF70EFB4F
:10360000184B01343360012373607B68BC60013365
:103610007B60072B71DC0836002807D1149B002B38
:1036200004D1089BDB0701D4FFF779FB199B3360BA
:10363000189B191973607B68B96001337B60072B95
:1036400000DD27E2320008324442002C00DCB5E005
:1036500003488146102C00DC4AE11026050008E0F2
:10366000E0A70008DCA700080832103C102C00DCA2
:103670003DE11031013315605660B9607B60072B66
:10368000F2DD3A000799099804F086FD002801D080
:10369000FEF753FFB9687B6832AAE6E780230899F2
:1036A000FFF722F980230899C5E42020089B013503
:1036B000034308932B78FEF7EBFE3A00079909982D
:1036C00004F06AFD002801D0FEF737FFBC6832AE77
:1036D000FFF700FCE54B1293FFF7D1F84021099862
:1036E00003F040FC079B18601861002800D15EE2DF
:1036F0004023079A5361FEF785FE3A00079909981F
:1037000004F04AFD002801D0FEF717FF1F98BC689F
:1037100032AE81E723AB049320AB03931FAB02933C
:1037200003230B9C009301944A464346099801F0F9
:10373000BDFFA2461290129B53441C00139B462BC4
:1037400000D095E6129B1B78302B0FD01F9BE418FE
:103750008EE60B9B002B00D054E601330B9351E611
:1037600011930023984675E51193CFE600220023BC
:103770004846414604F0DCFF0028E7D101235246C9
:103780009B1A1F93E41873E6129A32AB9B1A10939C
:10379000FEF735FF1298FEF7E5FD020010900300DA
:1037A000FFF778F93A000799099804F0F5FC00282A
:1037B00001D0FEF7C2FEB9687B6832AA12980133C5
:1037C000106014987B6044185060BC60072B01DDCA
:1037D000FFF744FB08321600FFF7A1FA0A931B9B80
:1037E0002D2208932D239846002316A9CA770B9300
:1037F000FEF711FF1F9CE31C1EDB0B9BA3421BDB90
:10380000159458E601204042FEF79EFE0E9B092BC0
:1038100001D9FEF7CAFF1EE401246442FEF76DFFE2
:103820003A000799099804F0B7FC002801D0FEF788
:1038300084FEBC6832AE5CE4139B023B13936B4680
:103840004C229B181B78013C21AD1F942B70002C3F
:1038500000DA5AE12B236B70092C00DC31E116AA47
:103860003B2394466344B0469A461E0020000A213A
:10387000FEF7BEFC013E3031317020000A21FEF718
:10388000D1FB04000928F1DC330030345A1EE4B2C5
:10389000464614709846524500D376E14146791A5F
:1038A0002B00691800E014789C70013301329942B2
:1038B000F9D116A98C462E22434662449446FB1A3F
:1038C000634414995B1B0A009C4662441A9310924D
:1038D000012900DC27E1189A109B944663441A00E2
:1038E0001093DB43DB17134000221592F2E5A94643
:1038F00048460919013310605460B9607B60072B9A
:1039000000DD4FE7083259E73A000799099804F0BB
:1039100043FC002801D0FEF710FE1F9BBC6832AEAE
:10392000D6E43A000799099804F036FC002801D043
:10393000FEF703FEBC6832AEBEE40B9B062B00D93B
:1039400006231A001093DB43DB171A400023984626
:103950000B931593464B0A9211941293FEF75EFE59
:103960003A000799099804F017FC002801D0FEF7E7
:10397000E4FD149B1F9ABC689B1A32AEC1E42D2350
:103980009846FEF70DFF23AB049320AB03931FABC8
:10399000029303230B9C009301944A4643460998E3
:1039A00001F084FEA44601002200614412900C0044
:1039B0009246C7E6002308909846FFF719F82D2392
:1039C00016AAD3779846FEF753FF2023139D9D43F5
:1039D0001A3B0B9316E5189A149B9446159A634468
:1039E0001093002A00DC94E01A00DB43DB1713403D
:1039F000672213926EE5802212069446169B994622
:103A0000179B634498462D230A9309E516ABDB7F89
:103A1000119498460B9B0A93109300230B931593D4
:103A2000FEF7F6FD9846089BDB0705D530212723D6
:103A300028AAD154FFF714FB0023109332AB129342
:103A4000FEF7DDFD129B53441C00139B472B00D057
:103A50000EE5089BDB0700D56DE6239B129A9B1AA7
:103A60001493472D00D1C5E61F9CE8E6A0A70008E7
:103A7000D4A700081F9B1593002B5EDD0B9A002A2C
:103A800034D1089AD20731D4109323E500200B904B
:103A9000FEF7FFFC3A000799099804F07DFB002827
:103AA00001D0FEF74AFD1F98B9687B6832AACBE5C2
:103AB000189A159B944663441A00109395E7239B2C
:103AC000E9E430233034AB70EC7022ABF9E6139BA1
:103AD000472B2FDC414B12938023089A9A4316AB55
:103AE000DB7F089298460323FEF7CEFE189A159BBB
:103AF0009446634418000B9B9C4684446346109391
:103B0000DB436246DB171340E4E42D2364426B7011
:103B1000A2E6109B159A981A431CCDE7304A7B68A1
:103B20009146FFF7BDFB089BDB0700D5D3E6109A53
:103B30001300D6E62B4B1293CEE70B9B002B02D142
:103B4000089BDB0702D5189B581CD4E701220123F0
:103B50001092BFE4119B1C1D1B680B93002B08DB0C
:103B60006B7811944546FEF793FC16ABD977FEF7B8
:103B7000EAFD012040426B78119445460B90FEF718
:103B800087FC16ABD977FEF7ECFC16AA2E239446D9
:103B9000634496E616ABD977FEF7D9FF16ABD97713
:103BA0001149FEF792FF16ABD977FFF729F80C23DE
:103BB000099A01381360FEF7C7FC16ABD977FEF7F8
:103BC000DDFE16ABD977FEF71FFE16ABD977FEF7F1
:103BD000A4FE16ABD977FEF769FEC046A4A700087D
:103BE000E0A70008A8A70008C0A70008F0B5444651
:103BF0005F4656464D46F0B4C3B01C001193834651
:103C000088460A9203F036F900681990FEF7AAFB7D
:103C10005B461890002B03D09B6B002B00D1D9E0A2
:103C2000434680210C229A5E890193B20B4209D14E
:103C30000A43434641469A81496EBC4B0B4041467C
:103C40004B6693B21A0700D497E042461269002AE5
:103C500000D192E01A2213400A2B00D19CE032AB33
:103C60002593002325AFBB607B60149316931793B5
:103C70001A930C935B46C34632AE07930A9C237893
:103C8000002B00D1AAE0252B02D1A7E0252B03D0E1
:103C900001342378002BF9D10A9BE51A11D00A9B35
:103CA00075603360BB685B19BB607B6801337B6008
:103CB000072B00DD83E008360C9B9C46AC44634632
:103CC0000C932378002B01D101F0DAF8002316AA17
:103CD000D377012252420B9200220D920892403279
:103CE0009246383A91467832611C6378002000246D
:103CF000944601311A00203A582A00D98DE38C4DA0
:103D00009200AA5897460D9B11925B420D93042393
:103D1000089A1A4308920B78EBE73024119B1EAAED
:103D20001470181D48341B685470089D00220E93AF
:103D300000230A91290016ACE2770B9A0F93023305
:103D40001943002A00DA79E3802295432A001A43B6
:103D50000E9B08921190002B00D058E378337549E0
:103D600013930B9B9846002B00D11EE3002398462B
:103D7000002400230E930F94C0E24146584601F000
:103D800083FB002801D001F073F843461A229B8977
:103D900013400A2B00D062E743460E229B5E002BA5
:103DA00000DA5CE723000A9A4146584601F032FBEC
:103DB00043B03CBC90469946A246AB46F0BD3A00A3
:103DC0005946079804F0BCFA002801D000F027FDFE
:103DD00032AE71E7584602F051FD21E70A9C70E7C8
:103DE000119B1A1D1B680D93002B00DA8BE70B78D3
:103DF00011927EE74B1C98460B782A2B01D101F0DB
:103E0000BBFA1A00303A0021092A01D901F060FA00
:103E1000434680460800810009184900013388188C
:103E20005A1E11780A00303A092AF4D942469846B7
:103E30000B0001001000002901DA01F0FDF80B91E0
:103E4000414657E76246089B134308930B7850E7B7
:103E500000221500303B80461A00280083001B1802
:103E60005B000131D0184B1E1B781A00303A092A2A
:103E7000F4D90D9040463DE713930A91002801D0F4
:103E800001F0A7FA1023089A1A430892089B9B0690
:103E900001D400F09CFD0723119A07329A430133A5
:103EA0009C46944463461193536812680F930E9294
:103EB000002B01DA00F08EFE16ABDB7F98460B9BE1
:103EC000002B01DA00F0E3FD8023089A9A43089260
:103ED0000E9A0F9B1100194301D100F0BDFC0F9BFE
:103EE000002B01D101F0A2F80E9C0F9D32ABB14620
:103EF0001E00200029000A22002304F047FC013E96
:103F0000303232700023200029000A2204F03EFCE7
:103F1000030004000D000B43EBD1320032AB9B1ABF
:103F200012960E940F954E461093B1E0FFDFFFFFFF
:103F3000F0A70008C0A7000813930A91002801D039
:103F400001F032FA0722119B073393430132944662
:103F50009C44624611921A68169201225B68169D73
:103F60001793179B52425C006408C24B2800210043
:103F700006F00AFA002801D000F06CFE0122BD4BC9
:103F800052422800210004F0E3FB002801D000F099
:103F900061FE002200231698179904F0CFFB002839
:103FA00001D001F01FF916ABDB7F9846139B472B1E
:103FB00001DC00F072FFB04B12938023089A9A4301
:103FC00008927D3B0993109300230B93159368E0AF
:103FD0004A46089B134308930B788AE613930A9189
:103FE000002801D001F0E4F91023089A1A4308923E
:103FF000202308990B4001D100F0C1FC0722119B3E
:1040000007339343013294469C4462465C681B68C4
:1040100025001C000023119216AAD3770B9B0E9447
:104020000F95002B01DA00F0FDFD802399430891E4
:104030002100294301D100F0BDFC0023984607224E
:10404000B44632AB92461C000E9A0F9B5807D60816
:104050005146DD0830432B0005001140013C303152
:10406000217002001D43F1D10E920F93089A129411
:104070006646D20700D45BE1302901D100F099FFF8
:104080003023129D013D2B7032AB5B1B10931295B8
:10409000109A13000B9A934200DA1300099300233D
:1040A00015934346002B02D0099B01330993022349
:1040B000089A1A40924602D0099B0233099384233E
:1040C000089A1A40914600D0C7E10D9B099A9C1AA4
:1040D000002C00DCC1E16949BA687B688846102C75
:1040E00021DD310010255E4603E0103C0831102C24
:1040F00017DD40461032013308604D60BA607B60C6
:10410000072BF2DD3A003100079804F019F9002876
:1041100001D000F032FC103CBA687B6832A9102C48
:10412000E7DCB3460E00414674600133A4183160E9
:10413000BC607B60072B01DD00F011FC16ABDB7F60
:10414000083698468AE113930A91002801D001F0BD
:1041500038F91023089A1A430892202308990B4033
:1041600000D15EE30722119B07339343013294464B
:104170009C4462465C681B6825001C000023119269
:1041800016AAD3770B9B0E940F95002B01DA00F043
:104190007CFC802399430891210029430B1E00D108
:1041A00059E3002398469AE613930A91002800D118
:1041B0001EE716ABDC771BE72022089B134308930E
:1041C0000B7896E51393119B0A911C1D1B6816A989
:1041D0001A0012930023CB77002A01D100F0C6FF0A
:1041E0000B9B002B01DA00F0EAFE1A000021129866
:1041F00003F062F9002801D101F040F8129BC31AC4
:104200001A001093DB43DB171A40002316A9C97F5D
:104210000992884611940B93159342E713930A91E0
:10422000002800D132E616ABDC772FE65246089B19
:10423000134308930B785CE50B786C2B01D100F0ED
:10424000A4FE1025089A2A43089252E50A910028F4
:1042500001D001F0CBF8089B9B0601D400F085FD4E
:1042600011990C9A0B681A60D2175A600B0004332C
:10427000119303E5FFFFEF7FA0A7000854A90008F2
:1042800013930A91002801D001F09FF8089BB549CB
:104290009B0663D50722119B073393430132944653
:1042A0009C4462465C681B680E930F940123119234
:1042B000089A134065D00E9A0F9B1000184301D145
:1042C00000F06CFD30221EAB1A704C206A461218AA
:1042D0001278089C5A7000220223200016ADEA775B
:1042E0000B9A1843002A01DA00F082FF8022200096
:1042F000904302001A430023984608920F208C46F0
:10430000B14632AB1C000E9A0F9B0100654611406E
:10431000695C013C1E07217011091D090E432B0029
:10432000350032001D43F0D14E460E920F93129489
:1043300032AB1B1B1093ABE613930A91002800D1FC
:104340000BE716ABDC7708E713930A91002801D03E
:1043500001F043F88449089B9B069BD4089BDB062D
:1043600004D4089B5B0601D500F0CBFD119B1A68B5
:104370000E9200220433119301230F92089A1340E6
:1043800099D116A8C3770B9B002B01DA00F06DFDC5
:1043900080239A4308920E9A0F9B1000184359D11C
:1043A0000B9B9846002B00D0E0E400230B93109366
:1043B00032AB12936CE60B78002C00D099E401200C
:1043C000203496E40123089A1A4308920B7890E46B
:1043D0000B7801202B248CE4119A139313680A9113
:1043E000099324216B465B181B7828AD2B700023A2
:1043F00016A9CB7713000433119300239846013399
:1044000009931093002312950B9315934FE6002305
:10441000984678335449139370E713930A91002810
:1044200001D000F0DFFF139B002B01D100F028FD2D
:1044300028AD2B70002316AAD377DFE778230891E5
:10444000494913930E9A0F9B14001C43231E11908D
:1044500000D18CE40023984650E7BC684346002B0B
:104460000FD016AA1F239446634433600123736060
:104470007B6801340133BC607B60072B00DD0CE2FC
:1044800008365346002B0CD01EAB336002237360FA
:104490007B6802340133BC607B60072B00DD06E2E1
:1044A00008364B46802B00D152E10B9B109A9D1A87
:1044B000002D32DD2D4A7B689146102D22DD102221
:1044C000924622005C4603E0103D0836102D17DDB1
:1044D000494631605146103201337160BA607B60E9
:1044E000072BF1DD3A002100079803F029FF00288F
:1044F00000D066E1103DBA687B6832AE102DE7DC73
:10450000A34614004A466419013332607560BC60EA
:104510007B60072B00DDB6E10836089BDB0500D584
:10452000BAE0129B3360109B9C4673607B686444C6
:104530000133BC607B60072B00DDA2E00836089BDE
:104540005B0746D50D9B099A9D1A002D41DD084A4F
:104550007B689046102D2BDD1022914622005C4690
:104560000CE0C046ACA70008C0A7000864A900087A
:1045700054A90008103D0836102D17DD4146316062
:104580004946103201337160BA607B60072BF1DD60
:104590003A002100079803F0D3FE002800D010E174
:1045A000103DBA687B6832AE102DE7DCA3461400DC
:1045B00042466419013324C6BC607B60072B08DDCA
:1045C0003A005946079803F0BBFE002800D026E1C8
:1045D000BC680D9B099A934200DA13000C9A94462A
:1045E0009C4463460C93002C00D010E1002332AEB3
:1045F0007B60FFF743FB149B012B00DCEAE0129B7E
:1046000001343360012373607B68BC6001337B60DD
:10461000072B00DDB2E20836199A01333260189A8E
:104620009846944664447260BC607B60072B00DD52
:10463000B8E20836002200231698179904F078F89B
:10464000002800D0D1E1129D149B0135013B35605B
:104650007360E41801239C46E0444346BC607B60E1
:10466000072B00DDC7E0083621AB33601A9B9C4660
:104670007360434664440133BC607B60072B00DCFD
:104680005CE73A005946079803F05AFE002800D02C
:10469000C5E0BC6832AE52E7139B652BABDD002250
:1046A00000231698179904F043F8002800D108E178
:1046B000D64B01343360012373607B68BC600133E7
:1046C0007B60072B00DD7AE308361F9B149A934228
:1046D00003DB089BDB0700D431E7199B3360189B91
:1046E0009C4673607B6864440133BC607B60072B2D
:1046F00001DD00F052FC0836149B5D1E002D00DC2D
:104700001DE7C34A7B689146102D00DC9FE1102213
:10471000904622004C46D94604E00836103D102D44
:1047200000DC48E341461032013334607160BA6006
:104730007B60072BF1DD3A004946079803F000FE45
:10474000002801D000F00FFDBA687B6832AEE5E7C3
:104750000D9B099A9D1A002D00DCA6E6AC4A7B68E9
:104760009146102D21DD1022924622005C4603E086
:10477000103D0836102D16DD494631605146103285
:1047800001337160BA607B60072BF1DD3A002100D4
:10479000079803F0D5FD002813D1103DBA687B6857
:1047A00032AE102DE8DCA34614004A4664190133EA
:1047B00032607560BC607B60072B00DDFFE108366E
:1047C00073E6A04643469B895B0600D550E30C98F0
:1047D000FFF7EEFA0123089A134200D00FE7736047
:1047E0007B68129A013301343260BC6098467B606A
:1047F000072B00DC37E73A005946079803F0A0FD85
:1048000000280CD17B68BC68984632AE2CE73A0091
:104810005946079803F094FD002800D1E6E6D846F3
:10482000D0E7102208990A4000D11BE1119802003C
:10483000006804320E9000200F9016A8C3770B9BDF
:10484000002B00DA20E1802399430E9B08911192FE
:10485000002B00D0A5E498460B9B002B00D1A4E5CB
:10486000002300240E930F9427220E9B28A9303397
:104870008B5416AB9C466F2532AB65445B1B109383
:104880001295FFF705FC3A005946079803F058FDCA
:104890000028C4D1BC6832AE3FE63A0059460798BA
:1048A00003F04EFD0028BAD1BC6832AEE9E53A000B
:1048B0005946079803F044FD0028B0D1BC6832AED9
:1048C000EFE51F98002800DC84E2159A1499130084
:1048D00091468B4200DD89464B46002B0CDD129B36
:1048E0004C4433604B4673607B68BC6001337B6033
:1048F000072B00DDA4E308364B46DB434A46DB17B3
:104900001340159AD31A9846002B00DCD7E0102BE1
:1049100001DC00F019FD3E4A7B68914610224D46AD
:10492000924622004446D84604E00836103C102C3B
:1049300000DCB4E051461032013335607160BA607A
:104940007B60072BF1DD3A004146079803F0F8FC45
:10495000002800D036E7BA687B6832AEE6E73A0056
:104960005946079803F0ECFC002800D057E716AB37
:10497000DB7FBC68984632AE70E5B04622E7102275
:1049800008990A4000D13BE1119802000068043206
:104990000E9000200F9016A8C3770B9B002B00DA17
:1049A0003FE1802399430E9B08911192002B01D087
:1049B000FFF743FB0B9B002B01D100F06BFC0023A6
:1049C0009846002300240E930F94FFF738FB089BB2
:1049D000DB0600D430E1119A136809930E93043278
:1049E000DB170F931192FFF763FA149B5D1E002DE6
:1049F00000DC39E6064B9946102D00DCCDE0102393
:104A000022009A465C46434609E0C046DCA70008FF
:104A100064A900080836103D102D00DCBAE04946B4
:104A200031605146103201337160BA607B60072BF0
:104A3000F0DD3A002100079803F082FC002800D046
:104A4000BFE6BA687B6832AEE5E7A34614004A4683
:104A50006419013332607560BC607B60072B00DC39
:104A60006CE50EE6402308990B4000D030E2119926
:104A70000A00096804320E9100210F9116A9CB7724
:104A80000B9B002B00DBDFE01192002398460E9A6F
:104A90000F9B1100194301D0FFF721FAE0E6C3464E
:104AA000A946A04614004A463260424644440133B7
:104AB0007260BC607B60072B00DD6AE30836129AE7
:104AC000159B944663449846149A1F9B934246DB79
:104AD000089AD20743D4129A149915008C4642467C
:104AE0006544CB1AAD1A9D4200DD1D00002D0BDD83
:104AF000424632607A68641901327560BC607A603F
:104B0000072A00DD1CE30836EA43D21715405D1B77
:104B1000002D00DC13E5D84A7B689146102D96DD08
:104B20001022904622005C4603E00836103D102D0E
:104B30008BDD494631604146103201337160BA6005
:104B40007B60072BF1DD3A002100079803F0F8FBAA
:104B5000002800D035E6BA687B6832AEE6E7199ADD
:104B60003260189A944672607A6864440132BC607C
:104B70007A60072A00DD6FE20836ACE73A00594652
:104B8000079803F0DDFB002800D048E6BC687B688E
:104B900032AE41E5A346984614004B46756033603B
:104BA000641957E53A005946079803F0C9FB0028F5
:104BB00000D034E67B68BC68984632AE3AE53A00ED
:104BC0005946079803F0BCFB002800D027E6BC68D4
:104BD00032AE6AE40E990F9A00244B4294410E9330
:104BE0000F942D2316AAD3770B9B002B00DAB6E285
:104BF0008023089A9A43533B08929846FFF76FF92F
:104C0000402308990B4000D04BE111990A00096834
:104C100004320E9100210F9116A9CB770B9B002B2C
:104C200015DA1192002398460E9A0F9B1100194332
:104C300001D0FFF704FAC4E6089B119A5B0600D482
:104C4000CAE60021535EC9E680230899FCE580236B
:104C50000899A7E6169D179C2A002300280021002A
:104C600005F092FB002800D05FE30B9B013300D1DD
:104C70009BE22023139D9D43472D00D170E18023AB
:104C8000089A5B001A43179B1B92002B00DAC9E2BB
:104C9000169A9846002391460993139C662C00D1DE
:104CA00089E2462C00D130E12B00453B5942594165
:104CB0000B9B4A469A4623AB049320AB8A4403934A
:104CC0001FAB029353460193022307980093434678
:104CD00000F0ECFC1290672C00D0BBE2129B534416
:104CE0001C00089BDB0700D406E300230022484693
:104CF000414603F01DFD2300002809D1239B9C425F
:104D000006D930215A1C23921970239B9C42F9D852
:104D1000129A9B1A1493472D00D17FE1139B652BA8
:104D200000DCA9E2139B662B00D186E21F9B159342
:104D3000159A14998A4200DA5FE2089BDB0700D5D6
:104D4000CBE2D343DB171340109267221392099AE8
:104D5000002A00D056E109931B9B16AA0893002352
:104D6000D27F0B939046FFF79CF9089BDB060CD48F
:104D7000089B5B0609D56946119B098E1A680433A6
:104D8000089211801193FEF779FF119A0C9913681C
:104D90001960130004331193FEF770FF0B9B16AAE2
:104DA000D077002B01DAFEF7E1FF8023089A9A43BF
:104DB0000892FEF7D6FFCB46A146140047E63A001C
:104DC0005946079803F0BCFA002800D027E5BC68D4
:104DD00032AE7AE4294B01343360012373607B687F
:104DE000BC6001337B60072B00DDADE00836002896
:104DF00007D1149B002B04D1089BDB0701D4FFF7DC
:104E00009EFB199B3360189B191973607B68B9600E
:104E100001337B60072B00DD4CE232000832444254
:104E2000002C00DCDEE014488146102C00DC21E17F
:104E300010265D4604E00832103C102C00DC18E11E
:104E400048461031013310605660B9607B60072B13
:104E5000F1DD3A002900079803F072FA002800D02B
:104E600060E2B9687B6832AAE6E71198FFF7EAFAD0
:104E700001204042FEF79CFF64A90008DCA700085F
:104E8000079BD8469B46BB68002B00D19AE43A00AA
:104E90004146584603F054FA94E4E04B1293FFF76E
:104EA0008CF811980300008804330E9000200F90B6
:104EB00016A8C2770B9A002A00DA15E280229143E5
:104EC0000E9A08911193002A01D0FFF7B6F871E508
:104ED00011980300008804330E9000200F9016A84C
:104EE000C2770B9A002A00DA08E28022119300238D
:104EF00091430E9A08919846002A01D0FEF7EFFFE1
:104F0000AAE4119B1A88FFF733FA23AB049320AB72
:104F100003931FAB029303230B9C009301944A4617
:104F20004346079800F0C2FBA2461290129B5344DE
:104F30001C00139B462B00D0D7E6129B1B78302B0E
:104F400015D01F9BE418D0E63A005946079803F0A5
:104F5000F7F9002800D062E41F98BC6832AE46E73B
:104F60000B9B002B00D08AE601330B9387E60022CF
:104F700000234846414603F0DBFB0028E1D1012332
:104F800052469B1A1F93E418AFE62022089B01317A
:104F9000134308930B78FEF7ACFE3A005946079886
:104FA00003F0CEF9002800D039E4BC6832AEFFF738
:104FB000A3FB129A32AB9B1A1093FFF769F8129871
:104FC000FDF7D0F9020010900300FFF71BF93A003B
:104FD0005946079803F0B4F9002800D01FE4B968D7
:104FE0007B6832AA12980133106014987B604418D1
:104FF0005060BC60072B01DDFFF743FB0832160051
:10500000FFF79DFA09931B9B2D2208932D239846A9
:10501000002316A9CA770B93FFF746F81F9CE31CE1
:1050200033DB0B9BA34230DB159481E60E9B092BEF
:1050300001D9FEF759FF17E401214942FEF7FFFEAF
:105040003A005946079803F07BF9002801D0FFF792
:10505000E6FBBC6832AE4FE43A005946079803F0CD
:105060006FF9002801D0FFF7DAFB1F9BBC6832AE56
:1050700031E5AB4648460919013310605460B96008
:105080007B60072BA3DC0832ACE7139B023B139336
:105090006B464C229B181B78013C21AD1F942B7052
:1050A000002C00DA55E12B236B70092C00DC1DE18C
:1050B00016AA3B2394466344B0469A461E0020003D
:1050C0000A21FDF795F8013E3031317020000A21A8
:1050D000FCF7A8FF04000928F1DC330030345A1E25
:1050E000E4B2464614709846524500D364E1414606
:1050F000791A2B00691800E014789C700133013292
:105100008B42F9D116A98C462E224346624494461E
:10511000FB1A634414995B1B0A009C4662441A9371
:105120001092012900DC1DE1189A109B94466344FB
:105130001A001093DB43DB1713400022159206E69A
:105140003A005946079803F0FBF8002801D0FFF712
:1051500066FB149B1F9ABC689B1A32AED4E42D23C5
:105160009846FEF7BCFEC846FFF72CFB0B9B062BB0
:1051700000D906231A001093DB43DB171A400023E3
:1051800098460B931593264B099211941293FEF7B0
:105190008EFF3A005946079803F0D2F8002801D054
:1051A000FFF73DFBBC6832AE89E42023139D9D438D
:1051B0001A3B0B9363E523AB049320AB03931FAB24
:1051C000029303230B9C009301944A46434607989D
:1051D00000F06CFAA44601002200614412900C0019
:1051E0009246AAE62D2316AAD3779846FEF7DEFE4E
:1051F000002308909846FFF781F8189A149B94466C
:10520000159A63441093002A00DCA6E01A00DB43E1
:10521000DB1713406722139299E5C0469CA700084C
:10522000D4A70008802212069446169B9946179B25
:10523000634498462D2309932FE51F9B1593002B5C
:1052400000DCA4E00B9A002A5DD1089AD2075AD458
:1052500010937CE5129B53441C00139B472B00D0FA
:1052600043E5089BDB0700D560E6239B129A9B1A57
:105270001493472D00D1D1E61F9C09E716ABDB7FC5
:10528000119498460B9B0993109300230B9315934D
:10529000FEF707FF9846089BDB0705D5302127233B
:1052A00028AAD154FFF7E5FA0023109332AB1293EA
:1052B000FEF7EEFE3A005946079803F041F8002841
:1052C00001D0FFF7ACFA1F98B9687B6832AAA6E54F
:1052D000002241460B92FEF70DFD189A159B94464D
:1052E00063441A00109392E711939BE43023303407
:1052F000AB70EC7022AB0DE7239B09E51193002303
:105300009846FFF7C4FB189A159B9446634418000F
:105310000B9B9C46844463461093DB436246DB1739
:10532000134014E5A846FFF74DFA139B472B20DCEA
:10533000344B12938023089A9A4316ABDB7F089272
:1053400098460323FEF73EFE2F4A7B689146FFF7FF
:10535000AAFB2D2364426B70A7E6109B159A981A3E
:10536000431CBEE7089BDB0700D5DDE6109A13005F
:10537000E0E6264B1293DDE7119B1A1D1B680B9389
:10538000002B37DB4B7811924146FEF7B2FC0B9BAA
:10539000002B02D1089BDB0702D5189B581CB7E7EE
:1053A000012201231092D2E416ABDC77FEF7CAFD8E
:1053B00016ABDC77FEF718FE16AA2E23944663443C
:1053C000A8E616ABDC77FEF7C4FE16ABDC77FEF77B
:1053D0005DFF16ABDC77FEF755FD16ABDC770C49AD
:1053E000FEF7B9FF16ABDC77FFF71DF816ABDC77DD
:1053F000FEF731FF1192012252424B780B92414647
:10540000FEF777FCA4A7000864A90008A8A7000875
:10541000C0A7000870B5060002201A4CA5440C0075
:105420008989814368468181616E1991E189C181D1
:10543000E16930000791616A09911AA9009104910C
:105440008021C90002910591002106916946FEF76D
:10545000CDFB051E05DB6946300001F079F9002817
:105460000CD16B469B895B0603D54023A28913436D
:10547000A38128008D23DB009D4470BD01256D4272
:10548000EFE7C04698FBFFFF334B70B50500186887
:105490000C00002802D0836B002B3DD00C23E05E73
:1054A00083B21A070DD52169002916D0DA0722D553
:1054B0000023A360636900205B42A361002922D01E
:1054C00070BDDA0640D55B0729D4216908220300A4
:1054D0001343A3819BB20029E8D1A022802092002F
:1054E00080001A408242E1D02100280001F0F6FC41
:1054F000A3892169DAE700229B0700D46269A260D0
:1055000000200029DCD10C22A35E1A06D8D5402247
:105510001343A3810138D3E701F0B0F9BEE7216B53
:1055200000290AD023004033994204D0280001F01A
:1055300001FA0C23E05E0023236324239843002315
:10554000216963602160C1E709232B604023034385
:105550000120A3814042B3E758040020F0B544463F
:1055600080465F4656464D464246F0B412690C6985
:1055700085B00B0003910020944200DD8EE01422E0
:105580009446634499464A46013CA300D618142227
:10559000424493469B4433681500591C5B46186887
:1055A0000292FCF7B5FC031E019040D000272900B1
:1055B000B4461E002300CA463C0000204F460D00A2
:1055C000994602CF0A04120C7243090C7143121956
:1055D000130CC9182B6812041B041B0C1B18120C8B
:1055E0009B1A2A680C0C0904120C090C1814511A85
:1055F00009181B0408141B0C09040B4308C5BC45FF
:10560000DFD25B461B684C466646D146002B0ED166
:105610005B46029A043B9A4204D306E0043B013CF9
:105620009A4202D219680029F8D043461C610399B6
:10563000404602F059FA00282FDB4F460020019B1C
:10564000029D01330193296804CF0B041B0C181829
:1056500013041B0CC31A090C120C8A1A19145218C1
:105660001B0410141B0C12041A4304C5BE42EAD2D8
:105670000299A3008C4663441A68002A0DD1043BAA
:105680000A00994204D306E0043B013C9A4202D24C
:1056900019680029F8D043461C61019805B03CBC4C
:1056A00090469946A246AB46F0BDC046F0B55F466F
:1056B00056464D464446F0B414001D00016C99B0A6
:1056C0008346259E02940395002909D00123426C4C
:1056D00093404A608B6001F0F5FF00235A46136443
:1056E000039F002F34DB002333603A00D34B1A4072
:1056F0009A421AD0029C039D002200232000290018
:1057000003F016F8002829D00123249A1360269B61
:10571000002B00D12EE2CA481860013819B03CBCF9
:1057200090469946A246AB46F0BDC64B249A1360FC
:10573000029B002B00D1FDE1C348269B002BEDD03E
:10574000C278C31C002A00D00533269A1360E5E70F
:1057500001236800470833600397C6E716AB01933F
:1057600017AB009322002B00584602F069FA3E0D59
:105770000A9000D1E3E12B03B44A1B0B1A43B44B4C
:1057800020009C46169B1100984600236644129305
:105790000022B04B04F0A4FAAF4AB04B04F026F854
:1057A000AF4AB04B03F0D2F8040030000D0004F013
:1057B00041FEAD4AAD4B04F019F802000B00200089
:1057C000290003F0C3F804000D0004F0FDFD0022E1
:1057D000059000232000290002F0B0FF002800D02F
:1057E000B6E20123059C0D93162C10D8A049E300C6
:1057F000C91808684968029A039B02F0B3FF0028A1
:1058000000D1AAE32300013B059300230D934346F7
:105810009E1B00230693013EB24600D5A7E2059BDE
:10582000002B00DA8BE29C460E930023E2440B939C
:10583000229B092B00D99FE10124052B02DD0024C6
:10584000043B2293229B032B01D100F0D8FC01DC06
:1058500000F09DFC229B042B00D1A4E301230C93B8
:10586000229B052B01D000F098FC239A059B9446BF
:1058700063440F93013308931D1E01DC00F066FCA6
:10588000089D2E0000235A4600215364172E0AD982
:10589000012204335B0018001430110001328642EB
:1058A000F8D25B465964584601F0E4FE5B46099025
:1058B00018640E2D00D972E1002C00D16FE1029B1B
:1058C000039C059E10931194002E01DC00F031FD25
:1058D00031000F221140CB0065493611CB181C68EE
:1058E0005D68F10601D400F0DAFC10981199614B63
:1058F00016401A6A5B6A03F055FB03239846029030
:105900000391002E14D0012399465A4F4B4633423F
:105910000AD001239C463A687B6820002900E044B5
:1059200003F064FF04000D0076100837002EEDD15F
:105930002200029803992B0003F034FB06000F00AD
:105940000D9B002B09D00022404B3000390002F0A3
:10595000F5FE002801D000F0C7FD404604F06AFDC6
:1059600032003B0003F042FF0022434B02F0EEFF07
:10597000424A0B0094466344029003910393089BB0
:10598000002B01D100F05CFC059B1493089B139342
:105990000C9B002B01D100F01AFD139B344A013BF4
:1059A000DB00D3181A685B680020354903F0FAFA67
:1059B000029A039B04F094F902900391390030009D
:1059C00004F002FD050004F035FD02000B0030007C
:1059D000390004F085F906000F00099A3035E9B264
:1059E0001170541C88460298039932003B0002F063
:1059F000B9FE002800D08AE032003B0000201349A5
:105A000004F06EF902000B000298039902F0AAFE5E
:105A1000002801D000F0D8FD139B012B01DC00F021
:105A200083FC099A139B9446634499465346139307
:105A30005B46A246029C039D029335E00000F07F86
:105A4000DDA700080F27000080A900080000F03F34
:105A500001FCFFFF0000F83F61436F63A787D23F5F
:105A6000B3C8608B288AC63FFB799F501344D33F4D
:105A700098A9000860AA000800001C400000C0FCB3
:105A80000000E03F32003B000020BC4904F028F950
:105A900022002B0002F052FE002801D000F06CFD25
:105AA000CA4501D100F03CFC0022B54B2000290082
:105AB00003F09CFE0022B24B04000D0030003900C0
:105AC00003F094FE0F00060004F07EFC804604F014
:105AD000B1FC02000B003000390004F001F9012391
