:020000040800F2
:1000000000400020C1030008050400081B0400088C
:1000100000000000000000000000000000000000E0
:1000200000000000000000000000000005040008BF
:10003000000000000000000005040008C5000008E2
:10004000050400080504000805040008050400086C
:10005000050400080504000805040008050400085C
:10006000050400080504000805040008050400084C
:10007000050400080504000805040008050400083C
:10008000050400080504000805040008050400082C
:10009000050400080504000805040008050400081C
:1000A000050400080504000805040008050400080C
:1000B00005040008050400080504000805040008FC
:1000C0005FF808F180B500AF034B1B685A1C024B68
:1000D0001A60C046BD4680BD1800002080B500AF44
:1000E000044B044AD26910210A43DA61C046BD4676
:1000F00080BDC0460010024080B582B000AF020053
:10010000BB1D1A80144A154B1B689BB21385124BFA
:10011000BA1D1288DA62104B00225A620E4A0E4B48
:100120001B889BB201210B439BB21380C0460A4B34
:100130001B8A9BB21A0001231340F8D0064A064BD3
:100140001B8A9BB201218B439BB2138200231800B0
:10015000BD4602B080BDC046001000402000002017
:1001600080B582B000AF0200BB1D1A80144A154B47
:100170001B689BB21385124BBA1D1288DA62104BB2
:1001800000225A620E4A0E4B1B889BB201210B4380
:100190009BB21380C0460A4B1B8A9BB21A000123F4
:1001A0001340F8D0064A064B1B8A9BB201218B43B1
:1001B0009BB2138200231800BD4602B080BDC0462A
:1001C000001000401C00002080B500AF00F030F9A6
:1001D000444B444A5269802109030A435A61424B05
:1001E000414A126841490A40A021C9010A431A60E4
:1001F0003F4B1A68FA239900100000F051FC0300ED
:100200001A003C4B1A603A4B1B683B49180000F03F
:1002100047FC03001A00394B1A6000F07BF800F02D
:10022000A5F8FFF75BFF6420FFF79AFF00F0AEF937
:10023000C02000F06BFA324A324B10001900042340
:100240001A0000F0B9FC2E4B180000F07BF980205A
:1002500000F05CFA2A4A2C4B1000190004231A0003
:1002600000F0AAFC264B180000F06CF9FA239B0062
:100270001800FFF775FF012000F048FA802000F019
:1002800045FA1F4A214B1000190004231A0000F000
:1002900093FC1B4B180000F055F9194A1B4B10003A
:1002A000190004231A0000F087FC154B180000F019
:1002B00049F9FA239B001800FFF752FF012000F0D4
:1002C00025FAC02000F022FA0D4A114B1000190047
:1002D0000C231A0000F070FC094B180000F032F9F2
:1002E000FEE7C0460010024000080048FF0FFFFF75
:1002F000000000201C00002040420F0020000020D1
:1003000024000020380C0008340C00083C0C0008C5
:10031000400C000880B500AF114B114A5269802192
:10032000C9020A435A610F4B0E4A12680E490A402D
:10033000A02109020A431A600A4A0A4B9B889BB211
:10034000C0210B439BB29380064B064A126A1202ED
:10035000120A882149050A431A62C046BD4680BD7B
:100360000010024000040048FF0FFFFF80B500AFFF
:100370000F4B0F4AD269802189030A43DA610D4B82
:100380000C4A126801218A431A600A4B0A4A1A6110
:10039000084B084A126801210A431A60054B054AB6
:1003A000526806490A435A60C046BD4680BDC046F1
:1003B0000010024000540040FFD3E0004E00010254
:1003C000002103E00A4B5B584350043109480A4BB3
:1003D00042189A42F6D3094A02E00023136004321D
:1003E000074B9A42F9D300F023F8FFF7EDFE704770
:1003F0004C0C00080000002018000020180000200D
:1004000038000020FEE70000ABBE01E0002070478E
:10041000002A00D010600120704706980188034A26
:10042000914202D1043006907047FEE7ABBE000057
:1004300080B500AF1B4B1B4A126801210A431A60AA
:10044000184B184A526818490A405A60154B154A09
:10045000126816490A401A60124B124A126814496F
:100460000A401A600F4B0F4A526812490A405A60FC
:100470000C4B0C4AD26A0F218A43DA62094B094AB3
:10048000126B0D490A401A63064B064A526B012152
:100490008A435A63034B00229A6000F00FF8C0466B
:1004A000BD4680BD001002400CB8FFF8FFFFF6FE0D
:1004B000FFFFFBFFFFFFC0FFACFEFFFF80B500AFFB
:1004C0001D4B11221A601D4B1C4A52685A601B4B6F
:1004D0001A4A52685A60194B184A526818490A4019
:1004E0005A60164B154A5268A02189030A435A6084
:1004F000124B124A1268802149040A431A60C0460E
:100500000E4B1A6880239B041340F9D00B4B0B4A07
:10051000526803218A435A60084B084A52680221F4
:100520000A435A60C046054B5B680C221340082BF7
:10053000F9D1C046BD4680BD0020024000100240F7
:10054000FF7FC0FF80B584B000AF78600F23FB1839
:1005500001221A700BE00F23FB181B78180000F023
:10056000A9F90520FFF7FCFD7B6801337B600F23B1
:10057000FB187A6812781A700F23FB181B78002B6F
:10058000E9D1C046BD4604B080BDC04680B500AFCD
:10059000002000F0BBF8FA235B001800FFF7E0FD35
:1005A00000F050F8382000F0B1F8082000F0AEF864
:1005B000022000F0ABF8082000F0A8F8012000F0BD
:1005C000A5F80720FFF7CCFD062000F09FF80C20CF
:1005D00000F09CF8C046BD4680BDC04680B582B0E4
:1005E00000AF0200FB1D1A70C046144B9A698023AD
:1005F0001B021340F9D1C046114B9B6901221340E5
:10060000FAD00F4BFA1D12789A620D4B0C4A5268C1
:10061000802189010A435A60C046094B9B69012227
:100620001340FAD0C046054B9A6980231B02134041
:10063000F9D1C046BD4602B080BDC046005800405A
:100640000054004080B500AF0720FFF7C7FF6420CB
:10065000FFF752FD2C4B1B78DB005BB208221340E6
:100660005BB2032213435BB2DBB21800FFF7B6FFA5
:100670000520FFF775FD0720FFF7B0FF6420FFF7A7
:100680003BFD214B1B78DB005BB2082213405BB2C1
:10069000032213435BB2DBB21800FFF79FFF642015
:1006A000FFF72AFD0720FFF799FF6420FFF724FDDD
:1006B000154B1B78DB005BB2082213405BB20322B0
:1006C00013435BB2DBB21800FFF788FF6420FFF72B
:1006D00013FD0620FFF782FF6420FFF70DFD0A4B94
:1006E0001B78DB005BB2082213405BB2022213438B
:1006F0005BB2DBB21800FFF771FF6420FFF7FCFC70
:10070000C046BD4680BDC0461400002080B584B000
:1007100000AF0200FB1D1A700F23FB1800221A7095
:10072000634B1B78DB005BB2082213405AB20F23E5
:10073000FB181B785BB213435AB20F23FB181A70D5
:10074000FB1D1B785BB2102213405AB20F23FB181B
:100750001B785BB213435AB20F23FB181A70FB1DB0
:100760001B785BB2202213405AB20F23FB181B7870
:100770005BB213435AB20F23FB181A70FB1D1B7890
:100780005BB2402213405AB20F23FB181B785BB2B6
:1007900013435AB20F23FB181A70FB1D1B78DB0999
:1007A000DBB2DB015AB20F23FB181B785BB2134399
:1007B0005AB20F23FB181A700020FFF70FFF0F2308
:1007C000FB181B7804221343DBB21800FFF706FF67
:1007D0000F23FB181B781800FFF700FF0F23FB18EF
:1007E00000221A70324B1B78DB005BB208221340E8
:1007F0005AB20F23FB181B785BB213435AB20F2374
:10080000FB181A70FB1D1B781B015BB210221340F2
:100810005AB20F23FB181B785BB213435AB20F2353
:10082000FB181A70FB1D1B785B105B015BB220226A
:1008300013405AB20F23FB181B785BB213435AB212
:100840000F23FB181A70FB1D1B789B109B015BB2DA
:10085000402213405AB20F23FB181B785BB213439C
:100860005AB20F23FB181A70FB1D1B78DB10DB013B
:100870005AB20F23FB181B785BB213435AB20F23F3
:10088000FB181A700020FFF7A9FE0F23FB181B7836
:1008900004221343DBB21800FFF7A0FE0F23FB185E
:1008A0001B781800FFF79AFEC046BD4604B080BD15
:1008B0001400002080B584B000AF0200FB1D1A7048
:1008C0000F23FB1800221A700F23FB180F22BA18EF
:1008D000127801210A431A70704B1B78DB005BB25F
:1008E000082213405AB20F23FB181B785BB2134344
:1008F0005AB20F23FB181A70FB1D1B785BB2102233
:1009000013405AB20F23FB181B785BB213435AB241
:100910000F23FB181A70FB1D1B785BB220221340BB
:100920005AB20F23FB181B785BB213435AB20F2342
:10093000FB181A70FB1D1B785BB2402213405AB2A1
:100940000F23FB181B785BB213435AB20F23FB181B
:100950001A70FB1D1B78DB09DBB2DB015AB20F23D7
:10096000FB181B785BB213435AB20F23FB181A70A3
:100970004A4B1B78DB00DBB208221340DBB21800C5
:10098000FFF72CFE0F23FB181B7804221343DBB266
:100990001800FFF723FE0F23FB181B781800FFF742
:1009A0001DFE0F23FB1800221A700F23FB180F22C5
:1009B000BA18127801210A431A70384B1B78DB00F1
:1009C0005BB2082213405AB20F23FB181B785BB2AC
:1009D00013435AB20F23FB181A70FB1D1B781B011F
:1009E0005BB2102213405AB20F23FB181B785BB284
:1009F00013435AB20F23FB181A70FB1D1B785B10B0
:100A00005B015BB2202213405AB20F23FB181B7804
:100A10005BB213435AB20F23FB181A70FB1D1B78ED
:100A20009B109B015BB2402213405AB20F23FB186C
:100A30001B785BB213435AB20F23FB181A70FB1DCD
:100A40001B78DB10DB015AB20F23FB181B785BB25B
:100A500013435AB20F23FB181A70104B1B78DB009C
:100A6000DBB208221340DBB21800FFF7B7FD0F23FB
:100A7000FB181B7804221343DBB21800FFF7AEFD0E
:100A80000F23FB181B781800FFF7A8FD6420FFF761
:100A900033FBC046BD4604B080BDC04614000020F4
:100AA000002243088B4274D303098B425FD3030AAD
:100AB0008B4244D3030B8B4228D3030C8B420DD3C0
:100AC000FF22090212BA030C8B4202D3121209024E
:100AD00065D0030B8B4219D300E0090AC30B8B428C
:100AE00001D3CB03C01A5241830B8B4201D38B033A
:100AF000C01A5241430B8B4201D34B03C01A5241DF
:100B0000030B8B4201D30B03C01A5241C30A8B4221
:100B100001D3CB02C01A5241830A8B4201D38B020C
:100B2000C01A5241430A8B4201D34B02C01A5241B0
:100B3000030A8B4201D30B02C01A5241CDD2C30922
:100B40008B4201D3CB01C01A524183098B4201D39E
:100B50008B01C01A524143098B4201D34B01C01A89
:100B6000524103098B4201D30B01C01A5241C30801
:100B70008B4201D3CB00C01A524183088B4201D370
:100B80008B00C01A524143088B4201D34B00C01A5C
:100B90005241411A00D20146524110467047FFE7C8
:100BA00001B5002000F006F802BDC0460029F7D0CC
:100BB00076E770477047C04670B50F2A32D90C00EF
:100BC00004430B00A40731D115000400103D2D098A
:100BD00001352D0149191E6826605E6866609E68B1
:100BE000A660DE681033E66010349942F3D10F231B
:100BF00045191340032B1BD91C1F0023A4080134E3
:100C0000A400CE58EE5004339C42FAD103232D1990
:100C100009191A4005D00023CC5CEC5401339A42E8
:100C2000FAD170BD0500002AF5D1FAE70500F2E718
:100C30001A00F8E7544D57004141410041424F002E
:0C0C400056616C7565206F6620506900DD
:100C4C00006CDC0200000000000000000102030444
:080C5C00060708090100000071
:0400000508000000EF
:00000001FF
