:020000040800F2
:1000000000400020A5020008E9020008370B0008A4
:1000100000000000000000000000000000000000E0
:10002000000000000000000000000000E9020008DD
:100030000000000000000000E9020008650100085F
:10004000E9020008E9020008E9020008E9020008E4
:10005000E9020008E9020008E9020008E9020008D4
:10006000E9020008E9020008E9020008E9020008C4
:10007000E9020008E9020008E9020008E9020008B4
:10008000E9020008E9020008E9020008E9020008A4
:10009000E9020008E9020008E9020008E902000894
:1000A000E9020008E9020008E9020008E902000884
:1000B000E9020008E9020008E9020008E902000874
:1000C0005FF808F180B582B000AF7860134B1B7801
:1000D0005A1CD1B2114A11701A007B68D9B2104B68
:1000E00099540E4B1B781A000D4B002199540B4B61
:1000F0001B7801330F2B05D87B680A2B02D07B6855
:10010000002B08D1054B00221A70054B0022190064
:10011000042000F007FDBD4602B080BD3C04002075
:100120002C04002080B582B000AF78600A00FB1C70
:100130001A70FB1C1B78002B06D0094B084A51692A
:100140007A680A435A6106E0054B054A52697968A4
:10015000C9430A405A61C046BD4602B080BDC04690
:100160000010024080B500AF034B1B685A1C024BC5
:100170001A60C046BD4680BD4004002080B582B0F4
:1001800000AFE0231B0301211800FFF7CBFF3B006A
:10019000154A1A603B0001225A713B0001221A7174
:1001A0003B0000229A713B00104A1900100000F039
:1001B000FDFB3B00872212021A603B0001225A71AC
:1001C0003B0000221A713B0000229A713B00022280
:1001D000DA713A009023DB051100180000F0E6FB0D
:1001E000C046BD4602B080BDC10300000008004803
:1001F00080B582B000AF00F0A9FC00237B60FFF760
:10020000BDFF234B40229A61214B80221A85204B4F
:10021000802252001A851E4B802292001A8580236C
:100220005A009023DB051100180000F057FC031E54
:1002300003D0184B180000F05BFB80239A0090233A
:10024000DB051100180000F049FC031E03D0124B1F
:10025000180000F04DFB8023DA009023DB0511002D
:10026000180000F03BFC031E03D00C4B180000F0FC
:100270003FFB80231A029023DB051100180000F0D9
:100280002DFC031EBDD0064B180000F031FBB8E773
:1002900000080048780D00088C0D0008A00D00082B
:1002A000B40D0008002103E00A4B5B5843500431B1
:1002B00009480A4B42189A42F6D3094A02E0002341
:1002C00013600432074B9A42F9D300F03FFCFFF76A
:1002D0008FFF7047700E0008000000202C040020E3
:1002E0002C04002044040020FEE7000080B582B00A
:1002F00000AF0200FB1D1A70FB1D1B781800FFF7F2
:10030000E1FEC046BD4602B080BDC04680B582B0A9
:1003100000AF78600A00FB1C1A707B68FA1C127828
:100320001A7001231800BD4602B080BD80B584B0AC
:1003300000AF786039600023FB600AE07B685A1CDC
:100340007A603A68511C396012781A70FB68013380
:10035000FB603B681B78002BF0D1FB681800BD46A2
:1003600004B080BD90B587B000AFF8607A603B60A4
:100370000B23FB180A1C1A7000237B617B68013B6E
:100380007B603B68092B26D93B680A21180000F0E6
:1003900067FC03001C007A680B23FB181978F868C7
:1003A0002300FFF7DFFF03007B617B69FA68D31846
:1003B000FB6013E00B23FB181A78FB681100180090
:1003C000FFF7A4FFFB680133FB607B6901337B61AE
:1003D0007B68013B7B607B68002BEBDC3B680A2180
:1003E000180000F0C3FC0B00DBB23033DAB2FB685C
:1003F00011001800FFF78AFF02007B699B187B61E0
:100400007B691800BD4607B090BDC04690B587B067
:1004100000AFF8607A603B600B23FB180A1C1A706F
:1004200000237B613B68002B03DA3B685B423B6146
:1004300001E03B683B617B68013B7B603B69092BCA
:100440002BD93B68002B12DA3B690A21180000F017
:1004500007FC03005B421C007A680B23FB18197829
:10046000F8682300FFF7D2FF03007B6110E03B69CF
:100470000A21180000F0F4FB03001C007A680B232B
:10048000FB181978F8682300FFF7C0FF03007B61B1
:100490007B69FA68D318FB6029E03B68002B14DA0B
:1004A0007B68013B7B6010E00B23FB181A78FB682C
:1004B00011001800FFF72AFFFB680133FB607B691E
:1004C00001337B617B68013B7B607B68002BEBDC4D
:1004D0003B68002B0BDAFB682D211800FFF716FF95
:1004E00002007B699B187B61FB680133FB603B6901
:1004F0000A21180000F03AFC0B00DBB23033DAB20C
:10050000FB6811001800FFF701FF02007B699B18D0
:100510007B617B691800BD4607B090BDB0B588B05F
:1005200002AFF86008007A6019000B23FB18021C68
:100530001A700A23FB180A1C1A7000237B617B685F
:10054000013B7B60BB6A1B0928D0BB6A1B090A22DE
:10055000BA1815787C680B22BA181178F8680093DD
:100560002B002200FFF7DAFF02007B699B187B61FA
:100570007B69FA68D318FB6013E00B23FB181A7829
:10058000FB6811001800FFF7C1FEFB680133FB6038
:100590007B6901337B617B68013B7B607B68002B5F
:1005A000EBDCBB6A0F221340092B0CD8BB6ADBB211
:1005B0000F221340DBB23033DAB2FB6811001800AF
:1005C000FFF7A4FE1DE00A23FB181B78002B0CD0BC
:1005D000BB6ADBB20F221340DBB23733DAB2FB68FF
:1005E00011001800FFF792FE0BE0BB6ADBB20F228E
:1005F0001340DBB25733DAB2FB6811001800FFF783
:1006000085FE7B6901337B617B691800BD4606B0BE
:10061000B0BDC04690B58BB002AFF860B9607A60EB
:100620003B600023BB6100237B61FB68002B00D192
:10063000E2E0FB6800221A70DEE07B681B78252B65
:100640000BD0FB685A1CFA607A68511C79601278EA
:100650001A707B6901337B61CEE07B6801331B78C4
:10066000252B0BD1FB685A1CFA6025221A707B6877
:1006700002337B607B6901337B61BDE01F23FB1884
:1006800020221A701E23FB1800221A707B68013387
:100690007B607B681B78302B1AD11F23FB1830221C
:1006A0001A707B6801337B6012E01E23FB181B78F5
:1006B0001A1C9200D318DB18DAB27B681B78D318A7
:1006C000DAB21E23FB18303A1A707B6801337B6064
:1006D0007B681B782F2B03D97B681B78392BE4D9D7
:1006E0001E23FB181A787B69D3181A00BB689A423C
:1006F00007D9BB68D9B27B69DAB21E23FB188A1A04
:100700001A707B681B78583B202B67D89A004A4B9D
:10071000D3181B689F461E23FB181C783B681A1DC4
:100720003A601A681F23FB181978F8681300220032
:10073000FFF76CFE0300BB6153E01E23FB181C781F
:100740003B681A1D3A601A681F23FB181978F8686D
:1007500013002200FFF706FE0300BB6141E01E23E9
:10076000FB181C783B681A1D3A601B681F22BA18D8
:100770001178F868009300232200FFF7CFFE0300F2
:10078000BB612EE01E23FB181C783B681A1D3A60E3
:100790001B681F22BA181178F86800930123220001
:1007A000FFF7BCFE0300BB611BE03B681A1D3A600B
:1007B0001A68FB6811001800FFF7B8FD0300BB6161
:1007C0000FE03B681A1D3A601B68DAB2FB68110043
:1007D0001800FFF79BFD0300BB6102E001235B42B1
:1007E00025E07B6801337B60BB69FA68D318FB6046
:1007F0007A69BB69D3187B617B681B78002B04D0B6
:100800007A69BB689A4200D217E77A69BB689A4254
:1008100003D2FB6800221A7008E0FB68013BFB6012
:10082000FB6800221A707B69013B7B617B691800C1
:10083000BD4609B090BDC046C80D000880B584B063
:1008400000AFF860B9607A607B68BA68F8686421C4
:10085000FFF7E0FE03001800BD4604B080BDC046AF
:1008600090B5A7B000AFF860B9607A601023FB18AC
:10087000134A13CA13C313CA13C313CA13C37A6820
:10088000B9683423FB181800FFF7D8FF0300632B67
:1008900009DD0C4B1B68DA681023FB1811001800E7
:1008A00000F05EF8FEE7FA683423FB181100180028
:1008B00000F056F803001800BD4627B090BDC046B2
:1008C0004C0E00082804002080B582B000AF78608C
:1008D0003960064B1B689B683A6879681800FFF717
:1008E000BFFF03001800BD4602B080BD28040020F1
:1008F0000FB480B582B000AF1423FB183B603A6898
:100900003B6911001800FFF7DFFF03007B607B6885
:100910001800BD4602B080BC08BC04B01847C046F1
:1009200080B582B000AF786039600C4B1B689A6864
:100930003B689A4205D0094B1B68DA683B689A42CB
:1009400006D17B68DBB21800FFF7D0FC7B6801E0C2
:1009500001235B421800BD4602B080BD2804002080
:1009600080B584B000AF786039600023FB6013E08D
:100970007B681B781A003B6819001000FFF7D0FF56
:100980000300013302D101235B420AE0FB6801331B
:10099000FB607B6801337B607B681B78002BE7D1B1
:1009A000FB681800BD4604B080BDC04680B586B067
:1009B00000AF7860396000237B6100233B61002336
:1009C000FB6000237B6181E001227B699A40130078
:1009D0003B613B681B683A691340FB60FA683B69FE
:1009E0009A4270D13B681B79012B03D03B681B797D
:1009F000022B38D17B689B687A69520003219140B1
:100A00000A00D2431A407B689A607B689A683B6808
:100A10005B7919007B695B0099400B001A437B6886
:100A20009A607B689B889BB27A691204120C012140
:100A300091400A0092B2D24392B213409AB27B68BC
:100A40009A807B689B889BB21AB23B689B7919009D
:100A50007B691B041B0C99400B001BB213431BB298
:100A60009AB27B689A807B681B687A69520003217E
:100A700091400A00D2431A407B681A607B681A686A
:100A80003B681B7919007B695B0099400B001A4396
:100A90007B681A607B68DB687A691204120C52006A
:100AA000032191400A00D2431A407B68DA607B68D8
:100AB000DA683B68DB7919007B695B0099400B00C1
:100AC0001A437B68DA607B6901337B617B690F2B9A
:100AD00000D879E7C046BD4606B080BD80B584B079
:100AE00000AF78600A00BB1C1A800F23FB1800229D
:100AF0001A707B681B8A9BB2BA1C128813409BB287
:100B0000002B04D00F23FB1801221A7003E00F23DF
:100B1000FB1800221A700F23FB181B781800BD4623
:100B200004B080BDABBE01E000207047002A00D0B9
:100B300010600120704706980188034A914202D153
:100B4000043006907047FEE7ABBE000080B500AFF2
:100B50001B4B1B4A126801210A431A60184B184AA2
:100B6000526818490A405A60154B154A12681649CE
:100B70000A401A60124B124A126814490A401A605D
:100B80000F4B0F4A526812490A405A600C4B0C4AEC
:100B9000D26A0F218A43DA62094B094A126B0D4966
:100BA0000A401A63064B064A526B01218A435A6374
:100BB000034B00229A6000F00FF8C046BD4680BD8E
:100BC000001002400CB8FFF8FFFFF6FEFFFFFBFF2E
:100BD000FFFFC0FFACFEFFFF80B500AF1D4B112231
:100BE0001A601D4B1C4A52685A601B4B1A4A5268C5
:100BF0005A60194B184A526818490A405A60164BF5
:100C0000154A5268A02189030A435A60124B124ABE
:100C10001268802149040A431A60C0460E4B1A68C4
:100C200080239B041340F9D00B4B0B4A52680321DD
:100C30008A435A60084B084A526802210A435A60A4
:100C4000C046054B5B680C221340082BF9D1C04607
:100C5000BD4680BD0020024000100240FF7FC0FF63
:100C6000002243088B4274D303098B425FD3030AEB
:100C70008B4244D3030B8B4228D3030C8B420DD3FE
:100C8000FF22090212BA030C8B4202D3121209028C
:100C900065D0030B8B4219D300E0090AC30B8B42CA
:100CA00001D3CB03C01A5241830B8B4201D38B0378
:100CB000C01A5241430B8B4201D34B03C01A52411D
:100CC000030B8B4201D30B03C01A5241C30A8B4260
:100CD00001D3CB02C01A5241830A8B4201D38B024B
:100CE000C01A5241430A8B4201D34B02C01A5241EF
:100CF000030A8B4201D30B02C01A5241CDD2C30961
:100D00008B4201D3CB01C01A524183098B4201D3DC
:100D10008B01C01A524143098B4201D34B01C01AC7
:100D2000524103098B4201D30B01C01A5241C3083F
:100D30008B4201D3CB00C01A524183088B4201D3AE
:100D40008B00C01A524143088B4201D34B00C01A9A
:100D50005241411A00D20146524110467047FFE706
:100D600001B5002000F006F802BDC0460029F7D00A
:100D700076E770477047C0465468652076616C75A9
:100D8000652069732038200A0D0000005468652032
:100D900076616C75652069732039200A0D000000AA
:100DA0005468652076616C75652069732031302048
:100DB0000A0D00005468652076616C7565206973C2
:100DC000203131200A0D000084070008DC070008EC
:100DD000DC070008DC070008DC070008DC07000867
:100DE000DC070008DC070008DC070008DC07000857
:100DF000DC070008C207000816070008DC07000827
:100E0000DC070008DC070008DC07000816070008FC
:100E1000DC070008DC070008DC070008DC07000826
:100E2000DC070008DC070008DC070008DC07000816
:100E3000DC070008AA070008DC0700083A070008DA
:100E4000DC070008DC0700085E07000873746469AB
:100E50006F2E633A20696E637265617365204D4140
:100E6000585F535452494E475F53495A450A0D0043
:100E70000000000000000000010000000000000071
:100E80000000000000000000000000000000000062
:100E90000000000000000000000000000000000052
:100EA0000000000000000000000000000000000042
:100EB0000000000000000000000000000000000032
:0C12900000000000000000000000002032
:0400000508000000EF
:00000001FF
