:020000040800F2
:1000000000400020F90600083D0700089310000892
:1000100000000000000000000000000000000000E0
:100020000000000000000000000000003D07000884
:1000300000000000000000003D070008A1050008C6
:100040003D0700083D0700083D0700083D07000880
:100050003D0700083D0700083D0700083D07000870
:100060003D0700083D0700083D0700083D07000860
:100070003D0700083D0700083D0700083D07000850
:100080003D0700083D0700083D070008010E000875
:100090003D0700083D0700083D0700083D07000830
:1000A0003D0700083D0700083D0700083D07000820
:1000B0003D0700083D0700083D0700083D07000810
:1000C0005FF808F180B582B000AF7860134B1B7801
:1000D0005A1CD1B2114A11701A007B68D9B2104B68
:1000E00099540E4B1B781A000D4B002199540B4B61
:1000F0001B7801330F2B05D87B680A2B02D07B6855
:10010000002B08D1054B00221A70054B0022190064
:10011000042000F0B5FFBD4602B080BD54040020AD
:100120004404002080B500AF104B1A68FA239900F0
:10013000100001F095F803009BB2013B9AB20C4B02
:100140001A800A4B1B680B49180001F089F803005C
:100150009BB2013B9AB2084B1A80084B074AD269FE
:1001600010210A43DA61C046BD4680BD300400203C
:100170006004002040420F00620400200010024092
:1001800080B582B000AF0200BB1D1A80144A154B27
:100190001B881385124BBA1D1288013ADA62104B84
:1001A00000225A620E4A0E4B1B889BB201210B4360
:1001B0009BB2138000E0C046094B1B8A9BB21A0019
:1001C00001231340F7D0064A054B1B8A9BB201213D
:1001D0008B439BB21382C046BD4602B080BDC04671
:1001E000001000406004002080B500AF084B084AB2
:1001F0005269802109030A435A61064B054A126875
:10020000C02189000A431A60C046BD4680BDC04671
:10021000001002400008004880B500AF0A4B0A4AAF
:100220009269802189000A439A61074B064A526B02
:1002300001210A435A63C046034B5B6B0222134001
:10024000FAD0C046BD4680BD0010024080B500AF68
:100250000C4B9B680122134005D00A4B094A926857
:1002600001218A439A60074B064A92688021090659
:100270000A439A60C046034B9B68002BFBDBC046D9
:10028000BD4680BD0024014080B500AF064B064A44
:10029000926801210A439A60034B1B6801221340B4
:1002A000F4D0C046BD4680BD0024014080B500AFFB
:1002B000034B8022D2019A62C046BD4680BDC04633
:1002C0000024014080B500AFFFF78EFFFFF7A4FFC9
:1002D000FFF7BCFFFFF7D8FFFFF7E8FFC0461800A5
:1002E000BD4680BD80B584B000AF78600A00BB1CFD
:1002F0001A80FA231B011800FFF742FF7B68514A5E
:1003000093420CD1BB1C1B88802B08D19023DB05AA
:10031000FB600A23FB18802252001A8007E090231A
:10032000DB05FB600A23FB18802292001A800A2357
:10033000FB181A88FB681100180000F0B5F8BB1C08
:100340001A887B681100180000F0CEF8FA231B0110
:100350001800FFF715FF7B683A4A934217D1BB1C80
:100360001B88802B13D1BB1C1A887B6811001800D6
:1003700000F0DAF803009AB2334B1A80324B1B8834
:100380001A00324B1100180000F0DCFC12E0BB1C1C
:100390001A887B681100180000F0C6F803009AB2B2
:1003A0002B4B1A80284B1B881A00284B1100180071
:1003B00000F0C8FC0A23FB181A88FB68110018001B
:1003C00000F082F8FA231B011800FFF7D9FE7B68C2
:1003D0001C4A934217D1BB1C1B88802B13D1BB1C1A
:1003E0001A887B681100180000F09EF803009AB28A
:1003F000184B1A80174B1B881A00174B1100180056
:1004000000F0A0FC12E0BB1C1A887B6811001800E9
:1004100000F08AF803009AB2104B1A800F4B1B8829
:100420001A000D4B1100180000F08CFCBB1C1A8840
:100430007B681100180000F067F8C046BD4604B0A4
:1004400080BDC046000800486604002078130008FC
:10045000640400206A040020881300086804002057
:1004600080B584B000AF78600A00BB1C1A80BB1C4A
:100470001A880823FB181A600823FB1801225A71F6
:100480000823FB1801221A710823FB1800229A7115
:100490000823FA187B681100180000F039FDC046E7
:1004A000BD4604B080BDC04680B582B000AF786064
:1004B0000A00BB1C1A80BB1C1A887B689A61C04664
:1004C000BD4602B080BDC04680B582B000AF786046
:1004D0000A00BB1C1A807B68BA1C12881A85C046A9
:1004E000BD4602B080BDC04680B582B000AF786026
:1004F0000A00BB1C1A80BB1C1A887B689A61C04624
:10050000BD4602B080BDC04680B582B000AF786005
:100510000A00BB1C1A807B68BA1C12881A85C04668
:10052000BD4602B080BDC04680B582B000AF7860E5
:100530000A00BB1C1A80094B084A926804210A432E
:100540009A60C046054B1B6804221340FAD0034B47
:100550001B6C1800BD4602B080BDC046002401409F
:1005600080B582B000AF78600A00FB1C1A70FB1CDB
:100570001B78002B06D0094B084A51697A680A4358
:100580005A6106E0054B054A52697968C9430A4039
:100590005A61C046BD4602B080BDC0460010024050
:1005A00080B500AF034B1B685A1C024B1A60C04653
:1005B000BD4680BD5804002080B582B000AF424BDC
:1005C00000221A80414B00221A80414B00221A80DF
:1005D000404B00221A80404B1A68FA239900100001
:1005E00000F03EFE03009AB23C4B1A803A4B1B6867
:1005F0003B49180000F034FE03009AB2394B1A80D0
:1006000000F0A4FD00F0A2FDFFF78CFDFFF75AFEFD
:1006100000237B6080231B0301211800FFF7A0FF4C
:1006200080239B0201211800FFF79AFF2E4B8021A7
:100630001800FFF715FF80235B002B4A19001000FC
:10064000FFF70EFF80235A009023DB0511001800EE
:10065000FFF706FF80239A009023DB0511001800A6
:10066000FFF7FEFE204B80211800FFF73DFF80239F
:100670005B001D4A19001000FFF736FF1A4B80215E
:100680001800FFF72FFE104B1B8819000F4B1B881B
:100690001A00164B180000F055FB80235B00124A2D
:1006A00019001000FFF71EFE094B1B881900094BAB
:1006B0001B881A000E4B180000F044FB0D4B18006D
:1006C00000F040FBFEE7C046660400206A040020FC
:1006D000640400206804002030040020600400202E
:1006E00040420F00620400200008004898130008F0
:1006F000BC130008E4130008002103E00A4B5B5818
:100700004350043109480A4B42189A42F6D3094A29
:1007100002E0002313600432074B9A42F9D300F041
:1007200015FDFFF749FF7047A414000800000020E2
:10073000440400204404002000050020FEE70000DF
:1007400080B582B000AF0200FB1D1A70FB1D1B7844
:100750001800FFF7B7FCC046BD4602B080BDC046DA
:1007600080B582B000AF78600A00FB1C1A707B680D
:10077000FA1C12781A7001231800BD4602B080BD21
:1007800080B584B000AF786039600023FB600AE078
:100790007B685A1C7A603A68511C396012781A706A
:1007A000FB680133FB603B681B78002BF0D1FB68D2
:1007B0001800BD4604B080BD90B587B000AFF860AA
:1007C0007A603B600B23FB180A1C1A7000237B61C4
:1007D0007B68013B7B603B68092B26D93B680A217B
:1007E000180000F03DFD03001C007A680B23FB1885
:1007F0001978F8682300FFF7DFFF03007B617B694E
:10080000FA68D318FB6013E00B23FB181A78FB6817
:1008100011001800FFF7A4FFFB680133FB607B6940
:1008200001337B617B68013B7B607B68002BEBDCE9
:100830003B680A21180000F099FD0B00DBB2303351
:10084000DAB2FB6811001800FFF78AFF02007B692B
:100850009B187B617B691800BD4607B090BDC04600
:1008600090B587B000AFF8607A603B600B23FB184F
:100870000A1C1A7000237B613B68002B03DA3B687B
:100880005B423B6101E03B683B617B68013B7B6015
:100890003B69092B2BD93B68002B12DA3B690A21F3
:1008A000180000F0DDFC03005B421C007A680B239B
:1008B000FB181978F8682300FFF7D2FF03007B616B
:1008C00010E03B690A21180000F0CAFC03001C007C
:1008D0007A680B23FB181978F8682300FFF7C0FF2C
:1008E00003007B617B69FA68D318FB6029E03B68F1
:1008F000002B14DA7B68013B7B6010E00B23FB18B4
:100900001A78FB6811001800FFF72AFFFB68013313
:10091000FB607B6901337B617B68013B7B607B68AB
:10092000002BEBDC3B68002B0BDAFB682D21180059
:10093000FFF716FF02007B699B187B61FB680133A0
:10094000FB603B690A21180000F010FD0B00DBB2D0
:100950003033DAB2FB6811001800FFF701FF020024
:100960007B699B187B617B691800BD4607B090BD11
:10097000B0B588B002AFF86008007A6019000B23A8
:10098000FB18021C1A700A23FB180A1C1A70002399
:100990007B617B68013B7B60BB6A1B0928D0BB6A1B
:1009A0001B090A22BA1815787C680B22BA1811782C
:1009B000F86800932B002200FFF7DAFF02007B6942
:1009C0009B187B617B69FA68D318FB6013E00B23EB
:1009D000FB181A78FB6811001800FFF7C1FEFB68CE
:1009E0000133FB607B6901337B617B68013B7B608A
:1009F0007B68002BEBDCBB6A0F221340092B0CD861
:100A0000BB6ADBB20F221340DBB23033DAB2FB68D1
:100A100011001800FFF7A4FE1DE00A23FB181B7845
:100A2000002B0CD0BB6ADBB20F221340DBB2373392
:100A3000DAB2FB6811001800FFF792FE0BE0BB6A08
:100A4000DBB20F221340DBB25733DAB2FB6811007E
:100A50001800FFF785FE7B6901337B617B69180015
:100A6000BD4606B0B0BDC04690B58BB002AFF860D1
:100A7000B9607A603B600023BB6100237B61FB6847
:100A8000002B00D1E2E0FB6800221A70DEE07B68F8
:100A90001B78252B0BD0FB685A1CFA607A68511C16
:100AA000796012781A707B6901337B61CEE07B68D4
:100AB00001331B78252B0BD1FB685A1CFA602522C9
:100AC0001A707B6802337B607B6901337B61BDE018
:100AD0001F23FB1820221A701E23FB1800221A70F5
:100AE0007B6801337B607B681B78302B1AD11F2316
:100AF000FB1830221A707B6801337B6012E01E23E2
:100B0000FB181B781A1C9200D318DB18DAB27B682A
:100B10001B78D318DAB21E23FB18303A1A707B68A0
:100B200001337B607B681B782F2B03D97B681B7894
:100B3000392BE4D91E23FB181A787B69D3181A00C5
:100B4000BB689A4207D9BB68D9B27B69DAB21E2367
:100B5000FB188A1A1A707B681B78583B202B67D8C1
:100B60009A004A4BD3181B689F461E23FB181C781B
:100B70003B681A1D3A601A681F23FB181978F86839
:100B800013002200FFF76CFE0300BB6153E01E233D
:100B9000FB181C783B681A1D3A601A681F23FB1863
:100BA0001978F86813002200FFF706FE0300BB6106
:100BB00041E01E23FB181C783B681A1D3A601B6835
:100BC0001F22BA181178F868009300232200FFF75B
:100BD000CFFE0300BB612EE01E23FB181C783B6890
:100BE0001A1D3A601B681F22BA181178F868009322
:100BF00001232200FFF7BCFE0300BB611BE03B6842
:100C00001A1D3A601A68FB6811001800FFF7B8FD5A
:100C10000300BB610FE03B681A1D3A601B68DAB243
:100C2000FB6811001800FFF79BFD0300BB6102E0A9
:100C300001235B4225E07B6801337B60BB69FA6876
:100C4000D318FB607A69BB69D3187B617B681B781A
:100C5000002B04D07A69BB689A4200D217E77A6900
:100C6000BB689A4203D2FB6800221A7008E0FB6856
:100C7000013BFB60FB6800221A707B69013B7B61D2
:100C80007B691800BD4609B090BDC046FC13000842
:100C900080B584B000AFF860B9607A607B68BA68EC
:100CA000F8686421FFF7E0FE03001800BD4604B0B9
:100CB00080BDC04690B5A7B000AFF860B9607A605B
:100CC0001023FB18134A13CA13C313CA13C313CA3E
:100CD00013C37A68B9683423FB181800FFF7D8FFEC
:100CE0000300632B09DD0C4B1B68DA681023FB182B
:100CF0001100180000F05EF8FEE7FA683423FB18D4
:100D00001100180000F056F803001800BD4627B087
:100D100090BDC046801400082804002080B582B031
:100D200000AF78603960064B1B689B683A68796849
:100D30001800FFF7BFFF03001800BD4602B080BDDA
:100D4000280400200FB480B582B000AF1423FB1834
:100D50003B603A683B6911001800FFF7DFFF0300B2
:100D60007B607B681800BD4602B080BC08BC04B044
:100D70001847C04680B582B000AF786039600C4B30
:100D80001B689A683B689A4205D0094B1B68DA6871
:100D90003B689A4206D17B68DBB21800FFF7D0FCB3
:100DA0007B6801E001235B421800BD4602B080BDB4
:100DB0002804002080B584B000AF7860396000233B
:100DC000FB6013E07B681B781A003B681900100079
:100DD000FFF7D0FF0300013302D101235B420AE099
:100DE000FB680133FB607B6801337B607B681B78A9
:100DF000002BE7D1FB681800BD4604B080BDC0469B
:100E000080B582B000AF3F4B0121180000F04CF9D3
:100E1000031E00D171E03B4B0121180000F084F962
:100E2000394B1B681C2B35D800237B602EE03749DB
:100E30007A6813005B009B189B00CB1808331B8853
:100E40001A00314B1B689A421DD830497A6813004A
:100E50005B009B189B00CB1804331B78002B12D02F
:100E60002A497A6813005B009B189B005858274951
:100E70007A6813005B009B189B00CB1806331B8815
:100E8000190000F0EDF87B6801337B607B68072B6D
:100E9000CDDD2DE01C4B1B68BE2B29D11A4B002247
:100EA0001A6000237B6020E018497A6813005B0019
:100EB0009B189B00CB1804331B78002B12D01349CE
:100EC0007A6813005B009B189B0058580F497A689A
:100ED00013005B009B189B00CB1806331B8819007E
:100EE00000F0AEF87B6801337B607B68072BDBDDAD
:100EF000054B1B685A1C044B1A60C046BD4602B025
:100F000080BDC046002000402C0400207804002052
:100F100080B586B000AF7860396000237B61002324
:100F20003B610023FB6000237B6181E001227B6940
:100F30009A4013003B613B681B683A691340FB60B1
:100F4000FA683B699A4270D13B681B79012B03D048
:100F50003B681B79022B38D17B689B687A69520009
:100F6000032191400A00D2431A407B689A607B6853
:100F70009A683B685B7919007B695B0099400B00BC
:100F80001A437B689A607B689B889BB27A691204DB
:100F9000120C012191400A0092B2D24392B2134046
:100FA0009AB27B689A807B689B889BB21AB23B6836
:100FB0009B7919007B691B041B0C99400B001BB229
:100FC00013431BB29AB27B689A807B681B687A696C
:100FD0005200032191400A00D2431A407B681A60F4
:100FE0007B681A683B681B7919007B695B00994034
:100FF0000B001A437B681A607B68DB687A6912040D
:10100000120C5200032191400A00D2431A407B681F
:10101000DA607B68DA683B68DB7919007B695B0022
:1010200099400B001A437B68DA607B6901337B616E
:101030007B690F2B00D879E7C046BD4606B080BD5E
:1010400080B582B000AF78600A00BB1C1A80BB1C60
:101050001A887B689A61C046BD4602B080BDC04612
:1010600080B582B000AF78600A00BB1C1A807B6834
:10107000BA1C12881A85C046BD4602B080BDC04663
:10108000ABBE01E000207047002A00D010600120B4
:10109000704706980188034A914202D104300690B5
:1010A0007047FEE7ABBE000080B584B000AF78604B
:1010B0000A00BB1C1A800F23FB1800221A700C2395
:1010C000FB1800221A800A23FB1800221A807B6872
:1010D0001B8A9AB20C23FB18B91C09880A401A8093
:1010E0007B689B899AB20A23FB18B91C09880A40BD
:1010F0001A800C23FB181B88002B09D00A23FB182D
:101100001B88002B04D00F23FB1801221A7003E068
:101110000F23FB1800221A700F23FB181B781800EE
:10112000BD4604B080BDC04680B582B000AF7860D7
:101130000A00BB1C1A80BB1C1B88DB439AB27B686D
:101140001A82C046BD4602B080BDC04680B500AF21
:101150001B4B1B4A126801210A431A60184B184A9C
:10116000526818490A405A60154B154A12681649C8
:101170000A401A60124B124A126814490A401A6057
:101180000F4B0F4A526812490A405A600C4B0C4AE6
:10119000D26A0F218A43DA62094B094A126B0D4960
:1011A0000A401A63064B064A526B01218A435A636E
:1011B000034B00229A6000F00FF8C046BD4680BD88
:1011C000001002400CB8FFF8FFFFF6FEFFFFFBFF28
:1011D000FFFFC0FFACFEFFFF80B500AF1D4B11222B
:1011E0001A601D4B1C4A52685A601B4B1A4A5268BF
:1011F0005A60194B184A526818490A405A60164BEF
:10120000154A5268A02189030A435A60124B124AB8
:101210001268802149040A431A60C0460E4B1A68BE
:1012200080239B041340F9D00B4B0B4A52680321D7
:101230008A435A60084B084A526802210A435A609E
:10124000C046054B5B680C221340082BF9D1C04601
:10125000BD4680BD0020024000100240FF7FC0FF5D
:10126000002243088B4274D303098B425FD3030AE5
:101270008B4244D3030B8B4228D3030C8B420DD3F8
:10128000FF22090212BA030C8B4202D31212090286
:1012900065D0030B8B4219D300E0090AC30B8B42C4
:1012A00001D3CB03C01A5241830B8B4201D38B0372
:1012B000C01A5241430B8B4201D34B03C01A524117
:1012C000030B8B4201D30B03C01A5241C30A8B425A
:1012D00001D3CB02C01A5241830A8B4201D38B0245
:1012E000C01A5241430A8B4201D34B02C01A5241E9
:1012F000030A8B4201D30B02C01A5241CDD2C3095B
:101300008B4201D3CB01C01A524183098B4201D3D6
:101310008B01C01A524143098B4201D34B01C01AC1
:10132000524103098B4201D30B01C01A5241C30839
:101330008B4201D3CB00C01A524183088B4201D3A8
:101340008B00C01A524143088B4201D34B00C01A94
:101350005241411A00D20146524110467047FFE700
:1013600001B5002000F006F802BDC0460029F7D004
:1013700076E770477047C046676F742048203D206D
:1013800025640A0D00000000676F74204C203D208A
:1013900025640A0D000000005245445F4143544952
:1013A0005645203D2025642C205245445F50415332
:1013B00053495645203D2025640A0D00424C5545B1
:1013C0005F414354495645203D2025642C20424C22
:1013D00055455F50415353495645203D2025640AE9
:1013E0000D0000004C522063616C69627261746987
:1013F0006F6E204F4B200A0D00000000D80B000834
:10140000300C0008300C0008300C0008300C0008CC
:10141000300C0008300C0008300C0008300C0008BC
:10142000300C0008300C0008160C00086A0B00088D
:10143000300C0008300C0008300C0008300C00089C
:101440006A0B0008300C0008300C0008300C000853
:10145000300C0008300C0008300C0008300C00087C
:10146000300C0008300C0008FE0B0008300C00089F
:101470008E0B0008300C0008300C0008B20B00087E
:10148000737464696F2E633A20696E637265617369
:1014900065204D41585F535452494E475F53495A56
:0414A000450A0D00EC
:1014A4000000000000000000010000000000000037
:1014B4000000000000000000000000000000000028
:1014C4000000000000000000000000000000000018
:1014D4000000000000000000000000000000000008
:1014E40000000000000000000000000000000000F8
:1018C400000000000000000000000020BE00000036
:1018D400006CDC02000000000000000001020304B0
:0418E40006070809E2
:0400000508000000EF
:00000001FF
