:020000040800F2
:100000000040002091060008D5060008D50600082B
:1000100000000000000000000000000000000000E0
:10002000000000000000000000000000D5060008ED
:100030000000000000000000D5060008E5040008EC
:10004000D5060008D5060008D5060008D506000824
:10005000D5060008D5060008D5060008D506000814
:10006000D5060008D5060008D5060008D506000804
:10007000D5060008D5060008D5060008D5060008F4
:10008000D5060008D5060008D5060008D9060008E0
:10009000D5060008D5060008D5060008D5060008D4
:1000A000D5060008D5060008D5060008D5060008C4
:1000B000D5060008D5060008D5060008D5060008B4
:1000C0005FF808F180B588B000AF78600023FB616D
:1000D0000023BB6100237B6100233B610023FB60A5
:1000E0008F4B5B680C221340FB61FB69042B0CD027
:1000F00002D8002B05D03AE0082B0AD00C2B32D0C6
:1001000035E07B68874A1A6035E07B68854A1A606B
:1001100031E0834B5A68F0239B031340BB61804B53
:100120005A68C0235B0213407B61BB699B0C02339E
:10013000BB617B69002B05D1BB697B4A5A437B6855
:100140001A6018E0764BDB6A0F22134001333B61E3
:100150003969744800F0A2FF03001A00BB695A43D2
:100160007B681A6007E07B68704A1A6003E07B686E
:100170006C4A1A60C0466A4B5B68F0221340FB6110
:10018000FB691B09FB616A4AFB69D3181B78DBB268
:10019000FB607B681A68FB68DA407B685A60604BDA
:1001A0005A68E023DB001340FB61FB691B0AFB611B
:1001B0005F4AFB69D3181B78DBB2FB607B685A6827
:1001C000FB68DA407B689A60554B1A6B80235B00B2
:1001D0001A4080235B009A4203D07B68554ADA605C
:1001E00013E04F4B5A688023DB011A408023DB0168
:1001F0009A4205D07B689B685A087B68DA6004E005
:100200007B689B689A087B68DA60454B1B6B4022D1
:100210001340402B03D07B68474A1A6103E07B6898
:10022000802212021A613E4B1B6B10221340102BCE
:1002300003D07B683B4A5A6103E07B681A687B689D
:100240005A61374B1B6B0322134004D17B689A68B9
:100250007B689A611EE0324B1B6B03221340012B1B
:1002600004D17B681A687B689A6113E02C4B1B6B86
:1002700003221340022B04D17B68802212029A6170
:1002800008E0274B1B6B03221340032B02D17B6832
:10029000244A9A61224B1A6BC0239B02134004D15B
:1002A0007B689A687B68DA6127E01D4B1A6BC02374
:1002B0009B021A4080235B029A4204D17B681A6831
:1002C0007B68DA6119E0164B1A6BC0239B021A4057
:1002D00080239B029A4204D17B6880221202DA6159
:1002E0000BE00F4B1A6BC0239B021A40C0239B02EA
:1002F0009A4202D17B680B4ADA61094B1B6B802260
:100300001340802B03D07B68084A1A6203E07B68A5
:100310001A687B681A62C046BD4608B080BDC046F8
:100320000010024000127A0000093D00006CDC025F
:1003300000000020809FD5001280000080B582B0B0
:1003400000AF78600A00FB1C1A70FB1C1B78002BA6
:1003500006D0094B084A51697A680A435A6106E097
:10036000054B054A52697968C9430A405A61C0463B
:10037000BD4602B080BDC0460010024080B582B0CC
:1003800000AF78600A00FB1C1A70FB1C1B78002B66
:1003900006D0094B084AD1697A680A43DA6106E057
:1003A000054B054AD2697968C9430A40DA61C046FB
:1003B000BD4602B080BDC04600100240B0B582B05C
:1003C00000AF02003960FB1D1A70FB1D1B787F2BEC
:1003D00032D92F4CFB1D1B781A000F231340083B0A
:1003E00099082B4AFB1D1B7818000F230340083B7C
:1003F0009B0806339B00D31804331B68FA1D127840
:10040000100003220240D200FF2090400200D2439D
:100410001A403B689B01FF201840FB1D1B781D0004
:1004200003232B40DB00984003001A438B1D9B00E5
:10043000E31804331A6027E0164CFB1D1B785BB2EF
:100440009B081449FA1D127852B29208C0329200E9
:100450005258F91D0978080003210140C900FF2006
:1004600088400100C94311403A689201FF201040C2
:10047000FA1D1278150003222A40D2009040020093
:100480000A43C0339B001A51C046BD4602B0B0BDFE
:1004900000ED00E000E100E080B582B000AF7860E0
:1004A0007B680E4A934201D9012312E00C4B7A6813
:1004B0001202120A013A5A6001235B42032118001A
:1004C000FFF77CFF064B00229A60054B07221A605B
:1004D00000231800BD4602B080BDC046FFFFFF00EC
:1004E00010E000E080B500AF034B1B685A1C024BC4
:1004F0001A60C046BD4680BD2800002080B584B08B
:1005000000AF7860074B1B68FB60C046054B1A685C
:10051000FB68D21A7B689A42F8D3C046BD4604B045
:1005200080BDC0462800002080B588B000AF802381
:100530009B0201211800FFF701FF00F055F9514B14
:1005400003221A604F4B01221A714E4B00229A71FE
:100550004C4B0022DA714B4B02225A71494A9023CC
:10056000DB051100180000F0F5FA9023DB051222DC
:100570000121180000F0B6F903001A001723FB1838
:100580001A709023DB0512220221180000F0AAF94C
:1005900003001A001723FB181A703B4B1A68FA2342
:1005A0009900100000F07AFD03001800FFF774FFB7
:1005B00000233B612D23FB602D235B42BB600323A3
:1005C000FB6101237B60FB69002BFCDD3B69BB61A8
:1005D000BB691AB29023DB050121180000F064FA10
:1005E00000F0AEFAFA23DB001800FFF787FF3EE0C9
:1005F000BA69FB68D318BB61BB691AB29023DB05EB
:100600000121180000F050FA00F09AFAFA23DB00FA
:100610001800FFF773FFBA69BB68D318BB61BB69E9
:100620001AB29023DB050121180000F03DFA00F01A
:1006300087FAFA23DB001800FFF760FF7B68012BC5
:1006400015D1BA69BB68D318BB61BB691AB29023D4
:10065000DB050121180000F027FA00F071FAFA23F7
:10066000DB001800FFF74AFF084B01221A60074B16
:100670001B68002BBCD0FB69013BFB61034B0022D4
:100680001A60A0E730000020140000202C00002099
:10069000002103E00A4B5B584350043109480A4BE0
:1006A00042189A42F6D3094A02E00023136004324A
:1006B000074B9A42F9D300F011FCFFF735FF704762
:1006C00088130008000000202800002028000020D7
:1006D000D0000020FEE7000080B582B000AF3F4BA5
:1006E0000121180000F0A9FB031E00D171E03B4B73
:1006F0000121180000F0E0FB394B1B681C2B35D89A
:1007000000237B602EE037497A6813005B009B185A
:100710009B00CB1808331B881A00314B1B689A4288
:100720001DD830497A6813005B009B189B00CB18DA
:1007300004331B78002B12D02A497A6813005B001F
:100740009B189B00585827497A6813005B009B1838
:100750009B00CB1806331B88190000F09DFA7B68BC
:1007600001337B607B68072BCDDD2DE01C4B1B68C4
:10077000BE2B29D11A4B00221A6000237B6020E097
:1007800018497A6813005B009B189B00CB18043350
:100790001B78002B12D013497A6813005B009B185A
:1007A0009B0058580F497A6813005B009B189B0008
:1007B000CB1806331B88190000F05FFA7B68013301
:1007C0007B607B68072BDBDD054B1B685A1C044BE9
:1007D0001A60C046BD4602B080BDC0460020004041
:1007E000100000204800002080B582B000AF8023B8
:1007F0005B0001211800FFF7C1FD314B1800FFF726
:1008000061FC2F4B9B682F49180000F047FC030048
:100810001A002D4B53431421180000F03FFC030035
:100820001A002A4B1A602A4B00221A81284B0022F8
:100830005A80274B00221A80254B00229A72234BA4
:100840001A68234B5A60224B224A1900100000F00C
:1008500033FA204B0121180000F02EFB1D4B012222
:100860000121180000F0C0FA1B4B13221A701A4B1A
:1008700001229A70184B01225A70174B180000F091
:10088000B7FB00237B600CE014497A6813005B001F
:100890009B189B00CB18043300221A707B6801332D
:1008A0007B607B68072BEFD90D4B00221A60094B48
:1008B0000121180000F078FAC046BD4602B080BDA4
:1008C000AC00002040420F0034080000A8000020C7
:1008D0003C0000200020004038000020480000209C
:1008E0001000002080B584B000AF786008001100CF
:1008F000BB1C021C1A803B000A1C1A800B23FB182D
:1009000000221A700A23FB1801221A700023FB60D0
:100910002CE04149FA6813005B009B189B005A5871
:100920007B689A4210D13C49FA6813005B009B181F
:100930009B00CB1806331B88BA1C12889A4203D13D
:100940000B23FB1801221A703349FA6813005B006D
:100950009B189B00CB1804331B78002B03D10A2370
:10096000FB1800221A70FB680133FB60FB68072B41
:10097000CFD90B23FB181B78002B02D001235B423D
:1009800046E00A23FB181B78002B02D002235B42AF
:100990003EE00023FB6037E01F49FA6813005B006C
:1009A0009B189B00CB1804331B78002B29D11A49C4
:1009B000FA6813005B009B189B00CB180633BA1C27
:1009C00012881A803B0018881349FA6813005B00EC
:1009D0009B189B00CB180833021C1A800E49FA683A
:1009E00013005B009B189B00CB18043301221A7084
:1009F0000949FA6813005B009B189B007A685A50FB
:100A000005E0FB680133FB60FB68072BC4D90023BA
:100A10001800BD4604B080BD4800002080B584B0F9
:100A200000AF786008001100BB1C021C1A803B005C
:100A30000A1C1A800023FB6026E01A49FA6813009A
:100A40005B009B189B005A587B689A4219D1154944
:100A5000FA6813005B009B189B00CB1806331B88B9
:100A6000BA1C12889A420CD13B0018880D49FA68CA
:100A700013005B009B189B00CB180833021C1A80E4
:100A800005E0FB680133FB60FB68072BD5DDFB68E5
:100A9000082B02D103235B4200E000231800BD466F
:100AA00004B080BD4800002080B584B000AF7860FD
:100AB00008001100BB1C021C1A803B000A1C1A8093
:100AC0003B0000229B5E5A3304DB3B0000229B5E0E
:100AD0005A2B02DD04235B421FE03B0000229B5E99
:100AE0005A331A001300DB009B1A9B0019003B00CD
:100AF00000229B5E5A22D31ADB00CB18B4211800C7
:100B000000F056FB0300FB60FB681AB2BB1C19889F
:100B10007B681800FFF782FF03001800BD4604B091
:100B200080BD000080B500AF044B1A681C21002373
:100B300091425B41DBB21800BD4680BD1000002031
:100B400080B500AFC046FFF7EDFF031EFBD1C046E6
:100B5000BD4680BD80B586B000AF786039600023A7
:100B60007B6100233B610023FB6000237B617CE011
:100B700001227B699A4013003B613B681B683A691C
:100B80001340FB60FA683B699A426BD13B681B7962
:100B9000012B03D03B681B79022B34D17B689B6807
:100BA0007A695200032191400A00D2431A407B68BF
:100BB0009A607B689A683B685B7919007B695B0087
:100BC00099400B001A437B689A607B689B889BB2B4
:100BD0007A6992B2110001228A4092B2D24392B253
:100BE00013409AB27B689A807B689B889AB23B6874
:100BF0009B7919007B699BB299400B009BB2134310
:100C00009AB27B689A807B681B687A6952000321DC
:100C100091400A00D2431A407B681A607B681A68C8
:100C20003B681B7919007B695B0099400B001A43F4
:100C30007B681A607B68DB687A6992B25200032194
:100C400091400A00D2431A407B68DA607B68DA6818
:100C50003B68DB7919007B695B0099400B001A4304
:100C60007B68DA607B6901337B617B690F2B00D87D
:100C70007EE7C046BD4606B080BD80B582B000AFFD
:100C800078600A00BB1C1A80BB1C1A887B689A61BA
:100C9000C046BD4602B080BD80B582B000AF78606E
:100CA0000A00BB1C1A807B68BA1C12881A85C046D1
:100CB000BD4602B080BD000080B584B000AF786052
:100CC00039600E23FB1800221A800E23FB187A6865
:100CD00012881A807B682D4A934208D07A68802354
:100CE000DB059A4203D07B68294A934210D10E2338
:100CF000FB180E22BA18128870218A431A803B68AA
:100D000059880E23FB180E22BA1812880A431A803B
:100D10007B68204A934210D00E23FB180E22BA188B
:100D200012881D490A401A803B6819890E23FB1856
:100D30000E22BA1812880A431A807B680E22BA184B
:100D400012881A803B685A687B68DA623B681A88A6
:100D50007B681A857B680D4A93420BD07B680F4AEB
:100D6000934207D07B680E4A934203D07B680D4ABA
:100D7000934204D13B689B7A9AB27B681A867B685F
:100D800001229A82C046BD4604B080BD002C0140BD
:100D90000004004000100040FFFCFFFF0040014045
:100DA000004401400048014080B582B000AF786047
:100DB0000A00FB1C1A70FB1C1B78002B08D07B68F8
:100DC0001B889BB2012213439AB27B681A8007E00A
:100DD0007B681B889BB2012293439AB27B681A807E
:100DE000C046BD4602B080BD80B582B000AF78601D
:100DF00008001100BB1C021C1A807B1C0A1C1A7004
:100E00007B1C1B78002B09D07B689B899AB2BB1C8A
:100E10001B8813439AB27B689A810AE07B689B899E
:100E20009BB2BA1C1288D24392B213409AB27B682A
:100E30009A81C046BD4602B080BD80B584B000AF87
:100E400078600A00BB1C1A800F23FB1800221A705E
:100E50000C23FB1800221A800A23FB1800221A8098
:100E60007B681B8A9AB20C23FB18B91C09880A40BC
:100E70001A807B689B899AB20A23FB18B91C0988DF
:100E80000A401A800C23FB181B88002B09D00A2368
:100E9000FB181B88002B04D00F23FB1801221A70AB
:100EA00003E00F23FB1800221A700F23FB181B7896
:100EB0001800BD4604B080BD80B582B000AF786038
:100EC0000A00BB1C1A80BB1C1B88DB439AB27B68E0
:100ED0001A82C046BD4602B080BD000080B500AF9A
:100EE0001B4B1B4A126801210A431A60184B184A0F
:100EF000526818490A405A60154B154A126816493B
:100F00000A401A60124B124A126814490A401A60C9
:100F10000F4B0F4A526812490A405A600C4B0C4A58
:100F2000D26A0F218A43DA62094B094A126B0D49D2
:100F30000A401A63064B064A526B01218A435A63E0
:100F4000034B00229A6000F00FF8C046BD4680BDFA
:100F5000001002400CB8FFF8FFFFF6FEFFFFFBFF9A
:100F6000FFFFC0FFACFEFFFF80B500AF1D4B11229D
:100F70001A601D4B1C4A52685A601B4B1A4A526831
:100F80005A60194B184A526818490A405A60164B61
:100F9000154A5268A02189030A435A60124B124A2B
:100FA0001268802149040A431A60C0460E4B1A6831
:100FB00080239B041340F9D00B4B0B4A526803214A
:100FC0008A435A60084B084A526802210A435A6011
:100FD000C046054B5B680C221340082BF9D1C04674
:100FE000BD4680BD0020024000100240FF7FC0FFD0
:100FF00080B584B000AF78600023FB607B689B788D
:10100000002B39D0244A7B681B789B08DBB2C033A5
:101010009B009B58FB607B681B781A0003231340DE
:10102000DB00FF229A401300DA43FB681340FB60A9
:101030007B685B789B01FF221A407B681B78190054
:1010400003230B40DB009A401300FA681343FB6054
:1010500011497B681B789B08DBB2C0339B00FA68A0
:101060005A500D4B7A68127811001F220A40012154
:1010700091400A001A600AE007497B681B781A0051
:101080001F23134001229A40130080228B50C04638
:10109000BD4604B080BDC04600E100E00022430828
:1010A0008B4274D303098B425FD3030A8B4244D330
:1010B000030B8B4228D3030C8B420DD3FF22090272
:1010C00012BA030C8B4202D31212090265D0030B31
:1010D0008B4219D300E0090AC30B8B4201D3CB0327
:1010E000C01A5241830B8B4201D38B03C01A524169
:1010F000430B8B4201D34B03C01A5241030B8B426B
:1011000001D30B03C01A5241C30A8B4201D3CB0255
:10111000C01A5241830A8B4201D38B02C01A52413A
:10112000430A8B4201D34B02C01A5241030A8B423D
:1011300001D30B02C01A5241CDD2C3098B4201D355
:10114000CB01C01A524183098B4201D38B01C01AD3
:10115000524143098B4201D34B01C01A524103094A
:101160008B4201D30B01C01A5241C3088B4201D3F9
:10117000CB00C01A524183088B4201D38B00C01AA6
:10118000524143088B4201D34B00C01A5241411ACD
:1011900000D20146524110467047FFE701B50020DA
:1011A00000F0F0F802BDC0460029F7D076E770479E
:1011B00003460B437FD4002243088B4274D30309B8
:1011C0008B425FD3030A8B4244D3030B8B4228D359
:1011D000030C8B420DD3FF22090212BA030C8B427F
:1011E00002D31212090265D0030B8B4219D300E01F
:1011F000090AC30B8B4201D3CB03C01A5241830BA4
:101200008B4201D38B03C01A5241430B8B4201D353
:101210004B03C01A5241030B8B4201D30B03C01A7C
:101220005241C30A8B4201D3CB02C01A5241830AF6
:101230008B4201D38B02C01A5241430A8B4201D325
:101240004B02C01A5241030A8B4201D30B02C01A4F
:101250005241CDD2C3098B4201D3CB01C01A5241B6
:1012600083098B4201D38B01C01A524143098B423F
:1012700001D34B01C01A524103098B4201D30B0128
:10128000C01A5241C3088B4201D3CB00C01A52414D
:1012900083088B4201D38B00C01A524143088B4212
:1012A00001D34B00C01A5241411A00D201465241AB
:1012B000104670475DE0CA0F00D04942031000D3CA
:1012C0004042534000229C4603098B422DD3030A1F
:1012D0008B4212D3FC22890112BA030A8B420CD32F
:1012E000890192118B4208D3890192118B4204D358
:1012F00089013AD0921100E08909C3098B4201D3D8
:10130000CB01C01A524183098B4201D38B01C01A11
:10131000524143098B4201D34B01C01A5241030988
:101320008B4201D30B01C01A5241C3088B4201D337
:10133000CB00C01A524183088B4201D38B00C01AE4
:101340005241D9D243088B4201D34B00C01A5241BB
:10135000411A00D20146634652415B10104601D348
:101360004042002B00D54942704763465B1000D3D2
:10137000404201B5002000F005F802BD0029F8D078
:0813800016E770477047C046F4
:101388000000000001020304010203040607080923
:10139800BE000000006CDC0200000000000000003D
:0813A800010203040607080915
:0400000508000000EF
:00000001FF
